{
  "fileName": "DrawManager.sol",
  "contractName": "DrawManager",
  "source": "/**\nCopyright 2019 PoolTogether LLC\n\nThis file is part of PoolTogether.\n\nPoolTogether is free software: you can redistribute it and/or modify\nit under the terms of the GNU General Public License as published by\nthe Free Software Foundation under version 3 of the License.\n\nPoolTogether is distributed in the hope that it will be useful,\nbut WITHOUT ANY WARRANTY; without even the implied warranty of\nMERCHANTABILITY or FITNESS FOR A PARTICULAR PURPOSE.  See the\nGNU General Public License for more details.\n\nYou should have received a copy of the GNU General Public License\nalong with PoolTogether.  If not, see <https://www.gnu.org/licenses/>.\n*/\n\npragma solidity 0.5.12;\n\nimport \"./UniformRandomNumber.sol\";\nimport \"@kleros/kleros/contracts/data-structures/SortitionSumTreeFactory.sol\";\nimport \"@openzeppelin/contracts-ethereum-package/contracts/math/SafeMath.sol\";\n\n/**\n * @author Brendan Asselstine\n * @notice Tracks committed and open balances for addresses.  Affords selection of an address by indexing all committed balances.\n *\n * Balances are tracked in Draws.  There is always one open Draw.  Deposits are always added to the open Draw.\n * When a new draw is opened, the previous opened draw is committed.\n *\n * The committed balance for an address is the total of their balances for committed Draws.\n * An address's open balance is their balance in the open Draw.\n */\nlibrary DrawManager {\n    using SortitionSumTreeFactory for SortitionSumTreeFactory.SortitionSumTrees;\n    using SafeMath for uint256;\n\n    /**\n     * The ID to use for the selection tree.\n     */\n    bytes32 public constant TREE_OF_DRAWS = \"TreeOfDraws\";\n\n    uint8 public constant MAX_BRANCHES_PER_NODE = 10;\n\n    /**\n     * Stores information for all draws.\n     */\n    struct State {\n        /**\n         * Each Draw stores it's address balances in a sortitionSumTree.  Draw trees are indexed using the Draw index.\n         * There is one root sortitionSumTree that stores all of the draw totals.  The root tree is indexed using the constant TREE_OF_DRAWS.\n         */\n        SortitionSumTreeFactory.SortitionSumTrees sortitionSumTrees;\n\n        /**\n         * Stores the consolidated draw index that an address deposited to.\n         */\n        mapping(address => uint256) consolidatedDrawIndices;\n\n        /**\n         * Stores the last Draw index that an address deposited to.\n         */\n        mapping(address => uint256) latestDrawIndices;\n\n        /**\n         * Stores a mapping of Draw index => Draw total\n         */\n        mapping(uint256 => uint256) __deprecated__drawTotals;\n\n        /**\n         * The current open Draw index\n         */\n        uint256 openDrawIndex;\n\n        /**\n         * The total of committed balances\n         */\n        uint256 __deprecated__committedSupply;\n    }\n\n    /**\n     * @notice Opens the next Draw and commits the previous open Draw (if any).\n     * @param self The drawState this library is attached to\n     * @return The index of the new open Draw\n     */\n    function openNextDraw(State storage self) public returns (uint256) {\n        if (self.openDrawIndex == 0) {\n            // If there is no previous draw, we must initialize\n            self.sortitionSumTrees.createTree(TREE_OF_DRAWS, MAX_BRANCHES_PER_NODE);\n        } else {\n            // else add current draw to sortition sum trees\n            bytes32 drawId = bytes32(self.openDrawIndex);\n            uint256 drawTotal = openSupply(self);\n            self.sortitionSumTrees.set(TREE_OF_DRAWS, drawTotal, drawId);\n        }\n        // now create a new draw\n        uint256 drawIndex = self.openDrawIndex.add(1);\n        self.sortitionSumTrees.createTree(bytes32(drawIndex), MAX_BRANCHES_PER_NODE);\n        self.openDrawIndex = drawIndex;\n\n        return drawIndex;\n    }\n\n    /**\n     * @notice Deposits the given amount into the current open draw by the given user.\n     * @param self The DrawManager state\n     * @param _addr The address to deposit for\n     * @param _amount The amount to deposit\n     */\n    function deposit(State storage self, address _addr, uint256 _amount) public requireOpenDraw(self) onlyNonZero(_addr) {\n        bytes32 userId = bytes32(uint256(_addr));\n        uint256 openDrawIndex = self.openDrawIndex;\n\n        // update the current draw\n        uint256 currentAmount = self.sortitionSumTrees.stakeOf(bytes32(openDrawIndex), userId);\n        currentAmount = currentAmount.add(_amount);\n        drawSet(self, openDrawIndex, currentAmount, _addr);\n\n        uint256 consolidatedDrawIndex = self.consolidatedDrawIndices[_addr];\n        uint256 latestDrawIndex = self.latestDrawIndices[_addr];\n\n        // if this is the user's first draw, set it\n        if (consolidatedDrawIndex == 0) {\n            self.consolidatedDrawIndices[_addr] = openDrawIndex;\n        // otherwise, if the consolidated draw is not this draw\n        } else if (consolidatedDrawIndex != openDrawIndex) {\n            // if a second draw does not exist\n            if (latestDrawIndex == 0) {\n                // set the second draw to the current draw\n                self.latestDrawIndices[_addr] = openDrawIndex;\n            // otherwise if a second draw exists but is not the current one\n            } else if (latestDrawIndex != openDrawIndex) {\n                // merge it into the first draw, and update the second draw index to this one\n                uint256 consolidatedAmount = self.sortitionSumTrees.stakeOf(bytes32(consolidatedDrawIndex), userId);\n                uint256 latestAmount = self.sortitionSumTrees.stakeOf(bytes32(latestDrawIndex), userId);\n                drawSet(self, consolidatedDrawIndex, consolidatedAmount.add(latestAmount), _addr);\n                drawSet(self, latestDrawIndex, 0, _addr);\n                self.latestDrawIndices[_addr] = openDrawIndex;\n            }\n        }\n    }\n\n    /**\n     * @notice Deposits into a user's committed balance, thereby bypassing the open draw.\n     * @param self The DrawManager state\n     * @param _addr The address of the user for whom to deposit\n     * @param _amount The amount to deposit\n     */\n    function depositCommitted(State storage self, address _addr, uint256 _amount) public requireCommittedDraw(self) onlyNonZero(_addr) {\n        bytes32 userId = bytes32(uint256(_addr));\n        uint256 consolidatedDrawIndex = self.consolidatedDrawIndices[_addr];\n\n        // if they have a committed balance\n        if (consolidatedDrawIndex != 0 && consolidatedDrawIndex != self.openDrawIndex) {\n            uint256 consolidatedAmount = self.sortitionSumTrees.stakeOf(bytes32(consolidatedDrawIndex), userId);\n            drawSet(self, consolidatedDrawIndex, consolidatedAmount.add(_amount), _addr);\n        } else { // they must not have any committed balance\n            self.latestDrawIndices[_addr] = consolidatedDrawIndex;\n            self.consolidatedDrawIndices[_addr] = self.openDrawIndex.sub(1);\n            drawSet(self, self.consolidatedDrawIndices[_addr], _amount, _addr);\n        }\n    }\n\n    /**\n     * @notice Withdraws a user's committed and open draws.\n     * @param self The DrawManager state\n     * @param _addr The address whose balance to withdraw\n     */\n    function withdraw(State storage self, address _addr) public requireOpenDraw(self) onlyNonZero(_addr) {\n        uint256 consolidatedDrawIndex = self.consolidatedDrawIndices[_addr];\n        uint256 latestDrawIndex = self.latestDrawIndices[_addr];\n\n        if (consolidatedDrawIndex != 0) {\n            drawSet(self, consolidatedDrawIndex, 0, _addr);\n            delete self.consolidatedDrawIndices[_addr];\n        }\n\n        if (latestDrawIndex != 0) {\n            drawSet(self, latestDrawIndex, 0, _addr);\n            delete self.latestDrawIndices[_addr];\n        }\n    }\n\n    /**\n     * @notice Withdraw's from a user's open balance\n     * @param self The DrawManager state\n     * @param _addr The user to withdrawn from\n     * @param _amount The amount to withdraw\n     */\n    function withdrawOpen(State storage self, address _addr, uint256 _amount) public requireOpenDraw(self) onlyNonZero(_addr) {\n        bytes32 userId = bytes32(uint256(_addr));\n        uint256 openTotal = self.sortitionSumTrees.stakeOf(bytes32(self.openDrawIndex), userId);\n\n        require(_amount <= openTotal, \"DrawMan/exceeds-open\");\n\n        uint256 remaining = openTotal.sub(_amount);\n\n        drawSet(self, self.openDrawIndex, remaining, _addr);\n    }\n\n    /**\n     * @notice Withdraw's from a user's committed balance.  Fails if the user attempts to take more than available.\n     * @param self The DrawManager state\n     * @param _addr The user to withdraw from\n     * @param _amount The amount to withdraw.\n     */\n    function withdrawCommitted(State storage self, address _addr, uint256 _amount) public requireCommittedDraw(self) onlyNonZero(_addr) {\n        bytes32 userId = bytes32(uint256(_addr));\n        uint256 consolidatedDrawIndex = self.consolidatedDrawIndices[_addr];\n        uint256 latestDrawIndex = self.latestDrawIndices[_addr];\n\n        uint256 consolidatedAmount = 0;\n        uint256 latestAmount = 0;\n        uint256 total = 0;\n\n        if (latestDrawIndex != 0 && latestDrawIndex != self.openDrawIndex) {\n            latestAmount = self.sortitionSumTrees.stakeOf(bytes32(latestDrawIndex), userId);\n            total = total.add(latestAmount);\n        }\n\n        if (consolidatedDrawIndex != 0 && consolidatedDrawIndex != self.openDrawIndex) {\n            consolidatedAmount = self.sortitionSumTrees.stakeOf(bytes32(consolidatedDrawIndex), userId);\n            total = total.add(consolidatedAmount);\n        }\n\n        require(_amount <= total, \"Pool/exceed\");\n\n        uint256 remaining = total.sub(_amount);\n\n        // if there was a second amount that needs to be updated\n        if (remaining > consolidatedAmount) {\n            uint256 secondRemaining = remaining.sub(consolidatedAmount);\n            drawSet(self, latestDrawIndex, secondRemaining, _addr);\n        } else if (latestAmount > 0) { // else delete the second amount if it exists\n            delete self.latestDrawIndices[_addr];\n            drawSet(self, latestDrawIndex, 0, _addr);\n        }\n\n        // if the consolidated amount needs to be destroyed\n        if (remaining == 0) {\n            delete self.consolidatedDrawIndices[_addr];\n            drawSet(self, consolidatedDrawIndex, 0, _addr);\n        } else if (remaining < consolidatedAmount) {\n            drawSet(self, consolidatedDrawIndex, remaining, _addr);\n        }\n    }\n\n    /**\n     * @notice Returns the total balance for an address, including committed balances and the open balance.\n     */\n    function balanceOf(State storage drawState, address _addr) public view returns (uint256) {\n        return committedBalanceOf(drawState, _addr).add(openBalanceOf(drawState, _addr));\n    }\n\n    /**\n     * @notice Returns the total committed balance for an address.\n     * @param self The DrawManager state\n     * @param _addr The address whose committed balance should be returned\n     * @return The total committed balance\n     */\n    function committedBalanceOf(State storage self, address _addr) public view returns (uint256) {\n        uint256 balance = 0;\n\n        uint256 consolidatedDrawIndex = self.consolidatedDrawIndices[_addr];\n        uint256 latestDrawIndex = self.latestDrawIndices[_addr];\n\n        if (consolidatedDrawIndex != 0 && consolidatedDrawIndex != self.openDrawIndex) {\n            balance = self.sortitionSumTrees.stakeOf(bytes32(consolidatedDrawIndex), bytes32(uint256(_addr)));\n        }\n\n        if (latestDrawIndex != 0 && latestDrawIndex != self.openDrawIndex) {\n            balance = balance.add(self.sortitionSumTrees.stakeOf(bytes32(latestDrawIndex), bytes32(uint256(_addr))));\n        }\n\n        return balance;\n    }\n\n    /**\n     * @notice Returns the open balance for an address\n     * @param self The DrawManager state\n     * @param _addr The address whose open balance should be returned\n     * @return The open balance\n     */\n    function openBalanceOf(State storage self, address _addr) public view returns (uint256) {\n        if (self.openDrawIndex == 0) {\n            return 0;\n        } else {\n            return self.sortitionSumTrees.stakeOf(bytes32(self.openDrawIndex), bytes32(uint256(_addr)));\n        }\n    }\n\n    /**\n     * @notice Returns the open Draw balance for the DrawManager\n     * @param self The DrawManager state\n     * @return The open draw total balance\n     */\n    function openSupply(State storage self) public view returns (uint256) {\n        return self.sortitionSumTrees.total(bytes32(self.openDrawIndex));\n    }\n\n    /**\n     * @notice Returns the committed balance for the DrawManager\n     * @param self The DrawManager state\n     * @return The total committed balance\n     */\n    function committedSupply(State storage self) public view returns (uint256) {\n        return self.sortitionSumTrees.total(TREE_OF_DRAWS);\n    }\n\n    /**\n     * @notice Updates the Draw balance for an address.\n     * @param self The DrawManager state\n     * @param _drawIndex The Draw index\n     * @param _amount The new balance\n     * @param _addr The address whose balance should be updated\n     */\n    function drawSet(State storage self, uint256 _drawIndex, uint256 _amount, address _addr) internal {\n        bytes32 drawId = bytes32(_drawIndex);\n        bytes32 userId = bytes32(uint256(_addr));\n        uint256 oldAmount = self.sortitionSumTrees.stakeOf(drawId, userId);\n\n        if (oldAmount != _amount) {\n            // If the amount has changed\n\n            // Update the Draw's balance for that address\n            self.sortitionSumTrees.set(drawId, _amount, userId);\n\n            // if the draw is committed\n            if (_drawIndex != self.openDrawIndex) {\n                // Get the new draw total\n                uint256 newDrawTotal = self.sortitionSumTrees.total(drawId);\n\n                // update the draw in the committed tree\n                self.sortitionSumTrees.set(TREE_OF_DRAWS, newDrawTotal, drawId);\n            }\n        }\n    }\n\n   /**\n     * @notice Selects an address by indexing into the committed tokens using the passed token.\n     * If there is no committed supply, the zero address is returned.\n     * @param self The DrawManager state\n     * @param _token The token index to select\n     * @return The selected address\n     */\n    function draw(State storage self, uint256 _token) public view returns (address) {\n        // If there is no one to select, just return the zero address\n        if (committedSupply(self) == 0) {\n            return address(0);\n        }\n        require(_token < committedSupply(self), \"Pool/ineligible\");\n        bytes32 drawIndex = self.sortitionSumTrees.draw(TREE_OF_DRAWS, _token);\n        uint256 drawSupply = self.sortitionSumTrees.total(drawIndex);\n        uint256 drawToken = _token % drawSupply;\n        return address(uint256(self.sortitionSumTrees.draw(drawIndex, drawToken)));\n    }\n\n    /**\n     * @notice Selects an address using the entropy as an index into the committed tokens\n     * The entropy is passed into the UniformRandomNumber library to remove modulo bias.\n     * @param self The DrawManager state\n     * @param _entropy The random entropy to use\n     * @return The selected address\n     */\n    function drawWithEntropy(State storage self, bytes32 _entropy) public view returns (address) {\n        uint256 bound = committedSupply(self);\n        address selected;\n        if (bound == 0) {\n            selected = address(0);\n        } else {\n            selected = draw(self, UniformRandomNumber.uniform(uint256(_entropy), bound));\n        }\n        return selected;\n    }\n\n    modifier requireOpenDraw(State storage self) {\n        require(self.openDrawIndex > 0, \"Pool/no-open\");\n        _;\n    }\n\n    modifier requireCommittedDraw(State storage self) {\n        require(self.openDrawIndex > 1, \"Pool/no-commit\");\n        _;\n    }\n\n    modifier onlyNonZero(address _addr) {\n        require(_addr != address(0), \"Pool/not-zero\");\n        _;\n    }\n}",
  "sourcePath": "@pooltogether/pooltogether-contracts/contracts/DrawManager.sol",
  "abi": [
    {
      "constant": true,
      "inputs": [],
      "name": "MAX_BRANCHES_PER_NODE",
      "outputs": [
        {
          "internalType": "uint8",
          "name": "",
          "type": "uint8"
        }
      ],
      "payable": false,
      "stateMutability": "view",
      "type": "function"
    },
    {
      "constant": true,
      "inputs": [],
      "name": "TREE_OF_DRAWS",
      "outputs": [
        {
          "internalType": "bytes32",
          "name": "",
          "type": "bytes32"
        }
      ],
      "payable": false,
      "stateMutability": "view",
      "type": "function"
    }
  ],
  "bytecode": "0x61171c610026600b82828239805160001a60731461001957fe5b30600052607381538281f3fe73000000000000000000000000000000000000000030146080604052600436106100ff5760003560e01c80639a80fe04116100a1578063ddfe5e3e11610070578063ddfe5e3e14610312578063e27683ea14610335578063e3451b7614610361578063ed21d6ea146103a0576100ff565b80639a80fe0414610281578063b41297e014610289578063c4ab3d9a146102b5578063ce1f9589146102f4576100ff565b8063663d9a7a116100dd578063663d9a7a146101ba57806383e8aad5146101d75780638fa1e1981461021657806393d8557614610242576100ff565b80633484b6bb146101045780634c9b9e9c14610143578063629072881461017e575b600080fd5b6101276004803603604081101561011a57600080fd5b50803590602001356103bd565b604080516001600160a01b039092168252519081900360200190f35b81801561014f57600080fd5b5061017c6004803603604081101561016657600080fd5b50803590602001356001600160a01b03166103fa565b005b81801561018a57600080fd5b506101a8600480360360208110156101a157600080fd5b503561051e565b60408051918252519081900360200190f35b6101a8600480360360208110156101d057600080fd5b50356105c1565b8180156101e357600080fd5b5061017c600480360360608110156101fa57600080fd5b508035906001600160a01b0360208201351690604001356105e1565b6101a86004803603604081101561022c57600080fd5b50803590602001356001600160a01b0316610717565b81801561024e57600080fd5b5061017c6004803603606081101561026557600080fd5b508035906001600160a01b0360208201351690604001356107c6565b6101a861092c565b6101a86004803603604081101561029f57600080fd5b50803590602001356001600160a01b031661093e565b8180156102c157600080fd5b5061017c600480360360608110156102d857600080fd5b508035906001600160a01b03602082013516906040013561096a565b6102fc610bb6565b6040805160ff9092168252519081900360200190f35b6101276004803603604081101561032857600080fd5b5080359060200135610bbb565b6101a86004803603604081101561034b57600080fd5b50803590602001356001600160a01b0316610c80565b81801561036d57600080fd5b5061017c6004803603606081101561038457600080fd5b508035906001600160a01b036020820135169060400135610cbe565b6101a8600480360360208110156103b657600080fd5b5035610e99565b6000806103c9846105c1565b90506000816103da575060006103f0565b6103ed856103e88685610eb2565b610bbb565b90505b9150505b92915050565b816000816004015411610443576040805162461bcd60e51b815260206004820152600c60248201526b2837b7b617b73796b7b832b760a11b604482015290519081900360640190fd5b816001600160a01b03811661048f576040805162461bcd60e51b815260206004820152600d60248201526c506f6f6c2f6e6f742d7a65726f60981b604482015290519081900360640190fd5b6001600160a01b0383166000908152600185016020908152604080832054600288019092529091205481156104e7576104cb8683600088610f58565b6001600160a01b03851660009081526001870160205260408120555b8015610516576104fa8682600088610f58565b6001600160a01b03851660009081526002870160205260408120555b505050505050565b60008160040154600014156105525761054d826a547265654f66447261777360a81b600a63ffffffff610fd016565b610587565b6004820154600061056284610e99565b9050610584846a547265654f66447261777360a81b838563ffffffff6110bc16565b50505b60048201546000906105a090600163ffffffff61138916565b90506105b48382600a63ffffffff610fd016565b6004929092018290555090565b60006103f4826a547265654f66447261777360a81b63ffffffff6113e316565b82600081600401541161062a576040805162461bcd60e51b815260206004820152600c60248201526b2837b7b617b73796b7b832b760a11b604482015290519081900360640190fd5b826001600160a01b038116610676576040805162461bcd60e51b815260206004820152600d60248201526c506f6f6c2f6e6f742d7a65726f60981b604482015290519081900360640190fd5b60048501546001600160a01b0385169060009061069b9088908463ffffffff61142716565b9050808511156106e9576040805162461bcd60e51b8152602060048201526014602482015273223930bba6b0b717b2bc31b2b2b23996b7b832b760611b604482015290519081900360640190fd5b60006106fb828763ffffffff61147716565b905061070d888960040154838a610f58565b5050505050505050565b6001600160a01b0381166000908152600183016020908152604080832054600286019092528220548291908115801590610755575085600401548214155b156107775761077486836001600160a01b03881663ffffffff61142716565b92505b801580159061078a575085600401548114155b156107bc576107b96107ac87836001600160a01b03891663ffffffff61142716565b849063ffffffff61138916565b92505b5090949350505050565b826001816004015411610811576040805162461bcd60e51b815260206004820152600e60248201526d141bdbdb0bdb9bcb58dbdb5b5a5d60921b604482015290519081900360640190fd5b826001600160a01b03811661085d576040805162461bcd60e51b815260206004820152600d60248201526c506f6f6c2f6e6f742d7a65726f60981b604482015290519081900360640190fd5b6001600160a01b0384166000818152600187016020526040902054801580159061088b575086600401548114155b156108c65760006108a388838563ffffffff61142716565b90506108c088836108ba848a63ffffffff61138916565b8a610f58565b50610923565b6001600160a01b0386166000908152600288016020526040902081905560048701546108f990600163ffffffff61147716565b6001600160a01b038716600090815260018901602052604090208190556109239088908789610f58565b50505050505050565b6a547265654f66447261777360a81b81565b600061096361094d8484610c80565b6109578585610717565b9063ffffffff61138916565b9392505050565b8260018160040154116109b5576040805162461bcd60e51b815260206004820152600e60248201526d141bdbdb0bdb9bcb58dbdb5b5a5d60921b604482015290519081900360640190fd5b826001600160a01b038116610a01576040805162461bcd60e51b815260206004820152600d60248201526c506f6f6c2f6e6f742d7a65726f60981b604482015290519081900360640190fd5b6001600160a01b038416600081815260018701602090815260408083205460028a01909252822054909180808315801590610a4057508a600401548414155b15610a6b57610a568b858863ffffffff61142716565b9150610a68818363ffffffff61138916565b90505b8415801590610a7e57508a600401548514155b15610aa957610a948b868863ffffffff61142716565b9250610aa6818463ffffffff61138916565b90505b80891115610aec576040805162461bcd60e51b815260206004820152600b60248201526a141bdbdb0bd95e18d9595960aa1b604482015290519081900360640190fd5b6000610afe828b63ffffffff61147716565b905083811115610b2e576000610b1a828663ffffffff61147716565b9050610b288d87838f610f58565b50610b5f565b8215610b5f576001600160a01b038b16600090815260028d0160205260408120819055610b5f908d9087908e610f58565b80610b94576001600160a01b038b16600090815260018d0160205260408120819055610b8f908d9088908e610f58565b610ba8565b83811015610ba857610ba88c87838e610f58565b505050505050505050505050565b600a81565b6000610bc6836105c1565b610bd2575060006103f4565b610bdb836105c1565b8210610c20576040805162461bcd60e51b815260206004820152600f60248201526e506f6f6c2f696e656c696769626c6560881b604482015290519081900360640190fd5b6000610c41846a547265654f66447261777360a81b8563ffffffff6114b916565b90506000610c55858363ffffffff6113e316565b90506000818581610c6257fe5b069050610c7686848363ffffffff6114b916565b9695505050505050565b6000826004015460001415610c97575060006103f4565b6004830154610cb79084906001600160a01b03851663ffffffff61142716565b90506103f4565b826000816004015411610d07576040805162461bcd60e51b815260206004820152600c60248201526b2837b7b617b73796b7b832b760a11b604482015290519081900360640190fd5b826001600160a01b038116610d53576040805162461bcd60e51b815260206004820152600d60248201526c506f6f6c2f6e6f742d7a65726f60981b604482015290519081900360640190fd5b60048501546001600160a01b038516906000610d7688838563ffffffff61142716565b9050610d88818763ffffffff61138916565b9050610d968883838a610f58565b6001600160a01b038716600090815260018901602090815260408083205460028c019092529091205481610de6576001600160a01b038916600090815260018b0160205260409020849055610e8d565b838214610e8d5780610e14576001600160a01b038916600090815260028b0160205260409020849055610e8d565b838114610e8d576000610e2e8b848863ffffffff61142716565b90506000610e438c848963ffffffff61142716565b9050610e608c85610e5a858563ffffffff61138916565b8e610f58565b610e6d8c8460008e610f58565b50506001600160a01b038916600090815260028b01602052604090208490555b50505050505050505050565b60048101546000906103f490839063ffffffff6113e316565b6000808211610f00576040805162461bcd60e51b8152602060048201526015602482015274155b9a599bdc9b54985b990bdb5a5b8b589bdd5b99605a1b604482015290519081900360640190fd5b6000828360000381610f0e57fe5b069050835b818110610f1f57610f45565b604080516020808201939093528151808203840181529082019091528051910120610f13565b838181610f4e57fe5b0695945050505050565b826001600160a01b0382166000610f7687848463ffffffff61142716565b905084811461092357610f918784878563ffffffff6110bc16565b86600401548614610923576000610fae888563ffffffff6113e316565b905061070d886a547265654f66447261777360a81b838763ffffffff6110bc16565b6000828152602084905260409020805415611029576040805162461bcd60e51b81526020600482015260146024820152732a3932b29030b63932b0b23c9032bc34b9ba399760611b604482015290519081900360640190fd5b6001821161107e576040805162461bcd60e51b815260206004820152601b60248201527f4b206d7573742062652067726561746572207468616e206f6e652e0000000000604482015290519081900360640190fd5b8181556000611090600183018261169d565b5060006110a0600283018261169d565b5060020180546001810182556000918252602082200155505050565b6000838152602085815260408083208484526003810190925290912054806112475783156112425760018201546111ba5750600281018054600180820183556000928352602090922081018590559081148015906111265750815460001982018161112357fe5b06155b156111b5578154600090828161113857fe5b046000818152600485016020526040902054600285018054929350909160018501919081908590811061116757fe5b60009182526020808320909101548354600181018555938352818320909301929092559384526004860180825260408086208690558486526003880183528086208490559285529052909120555b61120f565b60018201805460001981019081106111ce57fe5b6000918252602090912001546001830180549192506111f190600019830161169d565b508382600201828154811061120257fe5b6000918252602090912001555b6000838152600383016020908152604080832084905583835260048501909152902083905561124286868360018861157c565b610516565b836112d857600082600201828154811061125d57fe5b90600052602060002001549050600083600201838154811061127b57fe5b60009182526020808320909101929092556001808601805491820181558252828220018490558581526003850182526040808220829055848252600486019092529081208190556112d2908890889085908561157c565b50610516565b8160020181815481106112e757fe5b906000526020600020015484146105165760008483600201838154811061130a57fe5b906000526020600020015411159050600081611341578584600201848154811061133057fe5b90600052602060002001540361135e565b83600201838154811061135057fe5b906000526020600020015486035b90508584600201848154811061137057fe5b60009182526020909120015561070d888885858561157c565b600082820183811015610963576040805162461bcd60e51b815260206004820152601b60248201527f536166654d6174683a206164646974696f6e206f766572666c6f770000000000604482015290519081900360640190fd5b600081815260208390526040812060028101546114045760009150506103f4565b8060020160008154811061141457fe5b90600052602060002001549150506103f4565b6000828152602084815260408083208484526003810190925282205480611451576000925061146e565b81600201818154811061146057fe5b906000526020600020015492505b50509392505050565b600061096383836040518060400160405280601e81526020017f536166654d6174683a207375627472616374696f6e206f766572666c6f770000815250611606565b60008281526020849052604081206002810180548391829182906114d957fe5b906000526020600020015485816114ec57fe5b0690505b60028301548354830260010110156115615760015b8354811161155b5760008184866000015402019050600085600201828154811061152b57fe5b90600052602060002001549050808410611549578084039350611551565b50925061155b565b5050600101611505565b506114f0565b50600090815260049091016020526040902054949350505050565b6000848152602086905260409020835b80156109235781546000198201816115a057fe5b049050836115c957828260020182815481106115b857fe5b9060005260206000200154036115e6565b828260020182815481106115d957fe5b9060005260206000200154015b8260020182815481106115f557fe5b60009182526020909120015561158c565b600081848411156116955760405162461bcd60e51b81526004018080602001828103825283818151815260200191508051906020019080838360005b8381101561165a578181015183820152602001611642565b50505050905090810190601f1680156116875780820380516001836020036101000a031916815260200191505b509250505060405180910390fd5b505050900390565b8154818355818111156116c1576000838152602090206116c19181019083016116c6565b505050565b6116e491905b808211156116e057600081556001016116cc565b5090565b9056fea265627a7a72315820c28a216a755fd15e441e6e6a5e3eae2c3cf50bb0a5a79a4c2195113968ee60aa64736f6c634300050c0032",
  "compiler": {
    "name": "solc",
    "version": "0.5.12+commit.7709ece9.Emscripten.clang",
    "optimizer": {
      "enabled": true,
      "runs": 200
    },
    "evmVersion": "petersburg"
  }
}