{
  "fileName": "FixidityLib.sol",
  "contractName": "FixidityLib",
  "source": "pragma solidity ^0.5.0;\n\n\n/**\n * @title FixidityLib\n * @author Gadi Guy, Alberto Cuesta Canada\n * @notice This library provides fixed point arithmetic with protection against\n * overflow. \n * All operations are done with int256 and the operands must have been created \n * with any of the newFrom* functions, which shift the comma digits() to the \n * right and check for limits.\n * When using this library be sure of using maxNewFixed() as the upper limit for\n * creation of fixed point numbers. Use maxFixedMul(), maxFixedDiv() and\n * maxFixedAdd() if you want to be certain that those operations don't \n * overflow.\n */\nlibrary FixidityLib {\n\n    /**\n     * @notice Number of positions that the comma is shifted to the right.\n     */\n    function digits() public pure returns(uint8) {\n        return 24;\n    }\n    \n    /**\n     * @notice This is 1 in the fixed point units used in this library.\n     * @dev Test fixed1() equals 10^digits()\n     * Hardcoded to 24 digits.\n     */\n    function fixed1() public pure returns(int256) {\n        return 1000000000000000000000000;\n    }\n\n    /**\n     * @notice The amount of decimals lost on each multiplication operand.\n     * @dev Test mulPrecision() equals sqrt(fixed1)\n     * Hardcoded to 24 digits.\n     */\n    function mulPrecision() public pure returns(int256) {\n        return 1000000000000;\n    }\n\n    /**\n     * @notice Maximum value that can be represented in an int256\n     * @dev Test maxInt256() equals 2^255 -1\n     */\n    function maxInt256() public pure returns(int256) {\n        return 57896044618658097711785492504343953926634992332820282019728792003956564819967;\n    }\n\n    /**\n     * @notice Minimum value that can be represented in an int256\n     * @dev Test minInt256 equals (2^255) * (-1)\n     */\n    function minInt256() public pure returns(int256) {\n        return -57896044618658097711785492504343953926634992332820282019728792003956564819968;\n    }\n\n    /**\n     * @notice Maximum value that can be converted to fixed point. Optimize for\n     * @dev deployment. \n     * Test maxNewFixed() equals maxInt256() / fixed1()\n     * Hardcoded to 24 digits.\n     */\n    function maxNewFixed() public pure returns(int256) {\n        return 57896044618658097711785492504343953926634992332820282;\n    }\n\n    /**\n     * @notice Minimum value that can be converted to fixed point. Optimize for\n     * deployment. \n     * @dev Test minNewFixed() equals -(maxInt256()) / fixed1()\n     * Hardcoded to 24 digits.\n     */\n    function minNewFixed() public pure returns(int256) {\n        return -57896044618658097711785492504343953926634992332820282;\n    }\n\n    /**\n     * @notice Maximum value that can be safely used as an addition operator.\n     * @dev Test maxFixedAdd() equals maxInt256()-1 / 2\n     * Test add(maxFixedAdd(),maxFixedAdd()) equals maxFixedAdd() + maxFixedAdd()\n     * Test add(maxFixedAdd()+1,maxFixedAdd()) throws \n     * Test add(-maxFixedAdd(),-maxFixedAdd()) equals -maxFixedAdd() - maxFixedAdd()\n     * Test add(-maxFixedAdd(),-maxFixedAdd()-1) throws \n     */\n    function maxFixedAdd() public pure returns(int256) {\n        return 28948022309329048855892746252171976963317496166410141009864396001978282409983;\n    }\n\n    /**\n     * @notice Maximum negative value that can be safely in a subtraction.\n     * @dev Test maxFixedSub() equals minInt256() / 2\n     */\n    function maxFixedSub() public pure returns(int256) {\n        return -28948022309329048855892746252171976963317496166410141009864396001978282409984;\n    }\n\n    /**\n     * @notice Maximum value that can be safely used as a multiplication operator.\n     * @dev Calculated as sqrt(maxInt256()*fixed1()). \n     * Be careful with your sqrt() implementation. I couldn't find a calculator\n     * that would give the exact square root of maxInt256*fixed1 so this number\n     * is below the real number by no more than 3*10**28. It is safe to use as\n     * a limit for your multiplications, although powers of two of numbers over\n     * this value might still work.\n     * Test multiply(maxFixedMul(),maxFixedMul()) equals maxFixedMul() * maxFixedMul()\n     * Test multiply(maxFixedMul(),maxFixedMul()+1) throws \n     * Test multiply(-maxFixedMul(),maxFixedMul()) equals -maxFixedMul() * maxFixedMul()\n     * Test multiply(-maxFixedMul(),maxFixedMul()+1) throws \n     * Hardcoded to 24 digits.\n     */\n    function maxFixedMul() public pure returns(int256) {\n        return 240615969168004498257251713877715648331380787511296;\n    }\n\n    /**\n     * @notice Maximum value that can be safely used as a dividend.\n     * @dev divide(maxFixedDiv,newFixedFraction(1,fixed1())) = maxInt256().\n     * Test maxFixedDiv() equals maxInt256()/fixed1()\n     * Test divide(maxFixedDiv(),multiply(mulPrecision(),mulPrecision())) = maxFixedDiv()*(10^digits())\n     * Test divide(maxFixedDiv()+1,multiply(mulPrecision(),mulPrecision())) throws\n     * Hardcoded to 24 digits.\n     */\n    function maxFixedDiv() public pure returns(int256) {\n        return 57896044618658097711785492504343953926634992332820282;\n    }\n\n    /**\n     * @notice Maximum value that can be safely used as a divisor.\n     * @dev Test maxFixedDivisor() equals fixed1()*fixed1() - Or 10**(digits()*2)\n     * Test divide(10**(digits()*2 + 1),10**(digits()*2)) = returns 10*fixed1()\n     * Test divide(10**(digits()*2 + 1),10**(digits()*2 + 1)) = throws\n     * Hardcoded to 24 digits.\n     */\n    function maxFixedDivisor() public pure returns(int256) {\n        return 1000000000000000000000000000000000000000000000000;\n    }\n\n    /**\n     * @notice Converts an int256 to fixed point units, equivalent to multiplying\n     * by 10^digits().\n     * @dev Test newFixed(0) returns 0\n     * Test newFixed(1) returns fixed1()\n     * Test newFixed(maxNewFixed()) returns maxNewFixed() * fixed1()\n     * Test newFixed(maxNewFixed()+1) fails\n     */\n    function newFixed(int256 x)\n        public\n        pure\n        returns (int256)\n    {\n        require(x <= maxNewFixed());\n        require(x >= minNewFixed());\n        return x * fixed1();\n    }\n\n    /**\n     * @notice Converts an int256 in the fixed point representation of this \n     * library to a non decimal. All decimal digits will be truncated.\n     */\n    function fromFixed(int256 x)\n        public\n        pure\n        returns (int256)\n    {\n        return x / fixed1();\n    }\n\n    /**\n     * @notice Converts an int256 which is already in some fixed point \n     * representation to a different fixed precision representation.\n     * Both the origin and destination precisions must be 38 or less digits.\n     * Origin values with a precision higher than the destination precision\n     * will be truncated accordingly.\n     * @dev \n     * Test convertFixed(1,0,0) returns 1;\n     * Test convertFixed(1,1,1) returns 1;\n     * Test convertFixed(1,1,0) returns 0;\n     * Test convertFixed(1,0,1) returns 10;\n     * Test convertFixed(10,1,0) returns 1;\n     * Test convertFixed(10,0,1) returns 100;\n     * Test convertFixed(100,1,0) returns 10;\n     * Test convertFixed(100,0,1) returns 1000;\n     * Test convertFixed(1000,2,0) returns 10;\n     * Test convertFixed(1000,0,2) returns 100000;\n     * Test convertFixed(1000,2,1) returns 100;\n     * Test convertFixed(1000,1,2) returns 10000;\n     * Test convertFixed(maxInt256,1,0) returns maxInt256/10;\n     * Test convertFixed(maxInt256,0,1) throws\n     * Test convertFixed(maxInt256,38,0) returns maxInt256/(10**38);\n     * Test convertFixed(1,0,38) returns 10**38;\n     * Test convertFixed(maxInt256,39,0) throws\n     * Test convertFixed(1,0,39) throws\n     */\n    function convertFixed(int256 x, uint8 _originDigits, uint8 _destinationDigits)\n        public\n        pure\n        returns (int256)\n    {\n        require(_originDigits <= 38 && _destinationDigits <= 38);\n        \n        uint8 decimalDifference;\n        if ( _originDigits > _destinationDigits ){\n            decimalDifference = _originDigits - _destinationDigits;\n            return x/(uint128(10)**uint128(decimalDifference));\n        }\n        else if ( _originDigits < _destinationDigits ){\n            decimalDifference = _destinationDigits - _originDigits;\n            // Cast uint8 -> uint128 is safe\n            // Exponentiation is safe:\n            //     _originDigits and _destinationDigits limited to 38 or less\n            //     decimalDifference = abs(_destinationDigits - _originDigits)\n            //     decimalDifference < 38\n            //     10**38 < 2**128-1\n            require(x <= maxInt256()/uint128(10)**uint128(decimalDifference));\n            require(x >= minInt256()/uint128(10)**uint128(decimalDifference));\n            return x*(uint128(10)**uint128(decimalDifference));\n        }\n        // _originDigits == digits()) \n        return x;\n    }\n\n    /**\n     * @notice Converts an int256 which is already in some fixed point \n     * representation to that of this library. The _originDigits parameter is the\n     * precision of x. Values with a precision higher than FixidityLib.digits()\n     * will be truncated accordingly.\n     */\n    function newFixed(int256 x, uint8 _originDigits)\n        public\n        pure\n        returns (int256)\n    {\n        return convertFixed(x, _originDigits, digits());\n    }\n\n    /**\n     * @notice Converts an int256 in the fixed point representation of this \n     * library to a different representation. The _destinationDigits parameter is the\n     * precision of the output x. Values with a precision below than \n     * FixidityLib.digits() will be truncated accordingly.\n     */\n    function fromFixed(int256 x, uint8 _destinationDigits)\n        public\n        pure\n        returns (int256)\n    {\n        return convertFixed(x, digits(), _destinationDigits);\n    }\n\n    /**\n     * @notice Converts two int256 representing a fraction to fixed point units,\n     * equivalent to multiplying dividend and divisor by 10^digits().\n     * @dev \n     * Test newFixedFraction(maxFixedDiv()+1,1) fails\n     * Test newFixedFraction(1,maxFixedDiv()+1) fails\n     * Test newFixedFraction(1,0) fails     \n     * Test newFixedFraction(0,1) returns 0\n     * Test newFixedFraction(1,1) returns fixed1()\n     * Test newFixedFraction(maxFixedDiv(),1) returns maxFixedDiv()*fixed1()\n     * Test newFixedFraction(1,fixed1()) returns 1\n     * Test newFixedFraction(1,fixed1()-1) returns 0\n     */\n    function newFixedFraction(\n        int256 numerator, \n        int256 denominator\n        )\n        public\n        pure\n        returns (int256)\n    {\n        require(numerator <= maxNewFixed());\n        require(denominator <= maxNewFixed());\n        require(denominator != 0);\n        int256 convertedNumerator = newFixed(numerator);\n        int256 convertedDenominator = newFixed(denominator);\n        return divide(convertedNumerator, convertedDenominator);\n    }\n\n    /**\n     * @notice Returns the integer part of a fixed point number.\n     * @dev \n     * Test integer(0) returns 0\n     * Test integer(fixed1()) returns fixed1()\n     * Test integer(newFixed(maxNewFixed())) returns maxNewFixed()*fixed1()\n     * Test integer(-fixed1()) returns -fixed1()\n     * Test integer(newFixed(-maxNewFixed())) returns -maxNewFixed()*fixed1()\n     */\n    function integer(int256 x) public pure returns (int256) {\n        return (x / fixed1()) * fixed1(); // Can't overflow\n    }\n\n    /**\n     * @notice Returns the fractional part of a fixed point number. \n     * In the case of a negative number the fractional is also negative.\n     * @dev \n     * Test fractional(0) returns 0\n     * Test fractional(fixed1()) returns 0\n     * Test fractional(fixed1()-1) returns 10^24-1\n     * Test fractional(-fixed1()) returns 0\n     * Test fractional(-fixed1()+1) returns -10^24-1\n     */\n    function fractional(int256 x) public pure returns (int256) {\n        return x - (x / fixed1()) * fixed1(); // Can't overflow\n    }\n\n    /**\n     * @notice Converts to positive if negative.\n     * Due to int256 having one more negative number than positive numbers \n     * abs(minInt256) reverts.\n     * @dev \n     * Test abs(0) returns 0\n     * Test abs(fixed1()) returns -fixed1()\n     * Test abs(-fixed1()) returns fixed1()\n     * Test abs(newFixed(maxNewFixed())) returns maxNewFixed()*fixed1()\n     * Test abs(newFixed(minNewFixed())) returns -minNewFixed()*fixed1()\n     */\n    function abs(int256 x) public pure returns (int256) {\n        if (x >= 0) {\n            return x;\n        } else {\n            int256 result = -x;\n            assert (result > 0);\n            return result;\n        }\n    }\n\n    /**\n     * @notice x+y. If any operator is higher than maxFixedAdd() it \n     * might overflow.\n     * In solidity maxInt256 + 1 = minInt256 and viceversa.\n     * @dev \n     * Test add(maxFixedAdd(),maxFixedAdd()) returns maxInt256()-1\n     * Test add(maxFixedAdd()+1,maxFixedAdd()+1) fails\n     * Test add(-maxFixedSub(),-maxFixedSub()) returns minInt256()\n     * Test add(-maxFixedSub()-1,-maxFixedSub()-1) fails\n     * Test add(maxInt256(),maxInt256()) fails\n     * Test add(minInt256(),minInt256()) fails\n     */\n    function add(int256 x, int256 y) public pure returns (int256) {\n        int256 z = x + y;\n        if (x > 0 && y > 0) assert(z > x && z > y);\n        if (x < 0 && y < 0) assert(z < x && z < y);\n        return z;\n    }\n\n    /**\n     * @notice x-y. You can use add(x,-y) instead. \n     * @dev Tests covered by add(x,y)\n     */\n    function subtract(int256 x, int256 y) public pure returns (int256) {\n        return add(x,-y);\n    }\n\n    /**\n     * @notice x*y. If any of the operators is higher than maxFixedMul() it \n     * might overflow.\n     * @dev \n     * Test multiply(0,0) returns 0\n     * Test multiply(maxFixedMul(),0) returns 0\n     * Test multiply(0,maxFixedMul()) returns 0\n     * Test multiply(maxFixedMul(),fixed1()) returns maxFixedMul()\n     * Test multiply(fixed1(),maxFixedMul()) returns maxFixedMul()\n     * Test all combinations of (2,-2), (2, 2.5), (2, -2.5) and (0.5, -0.5)\n     * Test multiply(fixed1()/mulPrecision(),fixed1()*mulPrecision())\n     * Test multiply(maxFixedMul()-1,maxFixedMul()) equals multiply(maxFixedMul(),maxFixedMul()-1)\n     * Test multiply(maxFixedMul(),maxFixedMul()) returns maxInt256() // Probably not to the last digits\n     * Test multiply(maxFixedMul()+1,maxFixedMul()) fails\n     * Test multiply(maxFixedMul(),maxFixedMul()+1) fails\n     */\n    function multiply(int256 x, int256 y) public pure returns (int256) {\n        if (x == 0 || y == 0) return 0;\n        if (y == fixed1()) return x;\n        if (x == fixed1()) return y;\n\n        // Separate into integer and fractional parts\n        // x = x1 + x2, y = y1 + y2\n        int256 x1 = integer(x) / fixed1();\n        int256 x2 = fractional(x);\n        int256 y1 = integer(y) / fixed1();\n        int256 y2 = fractional(y);\n        \n        // (x1 + x2) * (y1 + y2) = (x1 * y1) + (x1 * y2) + (x2 * y1) + (x2 * y2)\n        int256 x1y1 = x1 * y1;\n        if (x1 != 0) assert(x1y1 / x1 == y1); // Overflow x1y1\n        \n        // x1y1 needs to be multiplied back by fixed1\n        // solium-disable-next-line mixedcase\n        int256 fixed_x1y1 = x1y1 * fixed1();\n        if (x1y1 != 0) assert(fixed_x1y1 / x1y1 == fixed1()); // Overflow x1y1 * fixed1\n        x1y1 = fixed_x1y1;\n\n        int256 x2y1 = x2 * y1;\n        if (x2 != 0) assert(x2y1 / x2 == y1); // Overflow x2y1\n\n        int256 x1y2 = x1 * y2;\n        if (x1 != 0) assert(x1y2 / x1 == y2); // Overflow x1y2\n\n        x2 = x2 / mulPrecision();\n        y2 = y2 / mulPrecision();\n        int256 x2y2 = x2 * y2;\n        if (x2 != 0) assert(x2y2 / x2 == y2); // Overflow x2y2\n\n        // result = fixed1() * x1 * y1 + x1 * y2 + x2 * y1 + x2 * y2 / fixed1();\n        int256 result = x1y1;\n        result = add(result, x2y1); // Add checks for overflow\n        result = add(result, x1y2); // Add checks for overflow\n        result = add(result, x2y2); // Add checks for overflow\n        return result;\n    }\n    \n    /**\n     * @notice 1/x\n     * @dev \n     * Test reciprocal(0) fails\n     * Test reciprocal(fixed1()) returns fixed1()\n     * Test reciprocal(fixed1()*fixed1()) returns 1 // Testing how the fractional is truncated\n     * Test reciprocal(2*fixed1()*fixed1()) returns 0 // Testing how the fractional is truncated\n     */\n    function reciprocal(int256 x) public pure returns (int256) {\n        require(x != 0);\n        return (fixed1()*fixed1()) / x; // Can't overflow\n    }\n\n    /**\n     * @notice x/y. If the dividend is higher than maxFixedDiv() it \n     * might overflow. You can use multiply(x,reciprocal(y)) instead.\n     * There is a loss of precision on division for the lower mulPrecision() decimals.\n     * @dev \n     * Test divide(fixed1(),0) fails\n     * Test divide(maxFixedDiv(),1) = maxFixedDiv()*(10^digits())\n     * Test divide(maxFixedDiv()+1,1) throws\n     * Test divide(maxFixedDiv(),maxFixedDiv()) returns fixed1()\n     */\n    function divide(int256 x, int256 y) public pure returns (int256) {\n        if (y == fixed1()) return x;\n        require(y != 0);\n        require(y <= maxFixedDivisor());\n        return multiply(x, reciprocal(y));\n    }\n}\n",
  "sourcePath": "fixidity/contracts/FixidityLib.sol",
  "abi": [
    {
      "constant": true,
      "inputs": [
        {
          "internalType": "int256",
          "name": "x",
          "type": "int256"
        }
      ],
      "name": "abs",
      "outputs": [
        {
          "internalType": "int256",
          "name": "",
          "type": "int256"
        }
      ],
      "payable": false,
      "stateMutability": "pure",
      "type": "function"
    },
    {
      "constant": true,
      "inputs": [
        {
          "internalType": "int256",
          "name": "x",
          "type": "int256"
        },
        {
          "internalType": "int256",
          "name": "y",
          "type": "int256"
        }
      ],
      "name": "add",
      "outputs": [
        {
          "internalType": "int256",
          "name": "",
          "type": "int256"
        }
      ],
      "payable": false,
      "stateMutability": "pure",
      "type": "function"
    },
    {
      "constant": true,
      "inputs": [
        {
          "internalType": "int256",
          "name": "x",
          "type": "int256"
        },
        {
          "internalType": "uint8",
          "name": "_originDigits",
          "type": "uint8"
        },
        {
          "internalType": "uint8",
          "name": "_destinationDigits",
          "type": "uint8"
        }
      ],
      "name": "convertFixed",
      "outputs": [
        {
          "internalType": "int256",
          "name": "",
          "type": "int256"
        }
      ],
      "payable": false,
      "stateMutability": "pure",
      "type": "function"
    },
    {
      "constant": true,
      "inputs": [],
      "name": "digits",
      "outputs": [
        {
          "internalType": "uint8",
          "name": "",
          "type": "uint8"
        }
      ],
      "payable": false,
      "stateMutability": "pure",
      "type": "function"
    },
    {
      "constant": true,
      "inputs": [
        {
          "internalType": "int256",
          "name": "x",
          "type": "int256"
        },
        {
          "internalType": "int256",
          "name": "y",
          "type": "int256"
        }
      ],
      "name": "divide",
      "outputs": [
        {
          "internalType": "int256",
          "name": "",
          "type": "int256"
        }
      ],
      "payable": false,
      "stateMutability": "pure",
      "type": "function"
    },
    {
      "constant": true,
      "inputs": [],
      "name": "fixed1",
      "outputs": [
        {
          "internalType": "int256",
          "name": "",
          "type": "int256"
        }
      ],
      "payable": false,
      "stateMutability": "pure",
      "type": "function"
    },
    {
      "constant": true,
      "inputs": [
        {
          "internalType": "int256",
          "name": "x",
          "type": "int256"
        }
      ],
      "name": "fractional",
      "outputs": [
        {
          "internalType": "int256",
          "name": "",
          "type": "int256"
        }
      ],
      "payable": false,
      "stateMutability": "pure",
      "type": "function"
    },
    {
      "constant": true,
      "inputs": [
        {
          "internalType": "int256",
          "name": "x",
          "type": "int256"
        }
      ],
      "name": "fromFixed",
      "outputs": [
        {
          "internalType": "int256",
          "name": "",
          "type": "int256"
        }
      ],
      "payable": false,
      "stateMutability": "pure",
      "type": "function"
    },
    {
      "constant": true,
      "inputs": [
        {
          "internalType": "int256",
          "name": "x",
          "type": "int256"
        },
        {
          "internalType": "uint8",
          "name": "_destinationDigits",
          "type": "uint8"
        }
      ],
      "name": "fromFixed",
      "outputs": [
        {
          "internalType": "int256",
          "name": "",
          "type": "int256"
        }
      ],
      "payable": false,
      "stateMutability": "pure",
      "type": "function"
    },
    {
      "constant": true,
      "inputs": [
        {
          "internalType": "int256",
          "name": "x",
          "type": "int256"
        }
      ],
      "name": "integer",
      "outputs": [
        {
          "internalType": "int256",
          "name": "",
          "type": "int256"
        }
      ],
      "payable": false,
      "stateMutability": "pure",
      "type": "function"
    },
    {
      "constant": true,
      "inputs": [],
      "name": "maxFixedAdd",
      "outputs": [
        {
          "internalType": "int256",
          "name": "",
          "type": "int256"
        }
      ],
      "payable": false,
      "stateMutability": "pure",
      "type": "function"
    },
    {
      "constant": true,
      "inputs": [],
      "name": "maxFixedDiv",
      "outputs": [
        {
          "internalType": "int256",
          "name": "",
          "type": "int256"
        }
      ],
      "payable": false,
      "stateMutability": "pure",
      "type": "function"
    },
    {
      "constant": true,
      "inputs": [],
      "name": "maxFixedDivisor",
      "outputs": [
        {
          "internalType": "int256",
          "name": "",
          "type": "int256"
        }
      ],
      "payable": false,
      "stateMutability": "pure",
      "type": "function"
    },
    {
      "constant": true,
      "inputs": [],
      "name": "maxFixedMul",
      "outputs": [
        {
          "internalType": "int256",
          "name": "",
          "type": "int256"
        }
      ],
      "payable": false,
      "stateMutability": "pure",
      "type": "function"
    },
    {
      "constant": true,
      "inputs": [],
      "name": "maxFixedSub",
      "outputs": [
        {
          "internalType": "int256",
          "name": "",
          "type": "int256"
        }
      ],
      "payable": false,
      "stateMutability": "pure",
      "type": "function"
    },
    {
      "constant": true,
      "inputs": [],
      "name": "maxInt256",
      "outputs": [
        {
          "internalType": "int256",
          "name": "",
          "type": "int256"
        }
      ],
      "payable": false,
      "stateMutability": "pure",
      "type": "function"
    },
    {
      "constant": true,
      "inputs": [],
      "name": "maxNewFixed",
      "outputs": [
        {
          "internalType": "int256",
          "name": "",
          "type": "int256"
        }
      ],
      "payable": false,
      "stateMutability": "pure",
      "type": "function"
    },
    {
      "constant": true,
      "inputs": [],
      "name": "minInt256",
      "outputs": [
        {
          "internalType": "int256",
          "name": "",
          "type": "int256"
        }
      ],
      "payable": false,
      "stateMutability": "pure",
      "type": "function"
    },
    {
      "constant": true,
      "inputs": [],
      "name": "minNewFixed",
      "outputs": [
        {
          "internalType": "int256",
          "name": "",
          "type": "int256"
        }
      ],
      "payable": false,
      "stateMutability": "pure",
      "type": "function"
    },
    {
      "constant": true,
      "inputs": [],
      "name": "mulPrecision",
      "outputs": [
        {
          "internalType": "int256",
          "name": "",
          "type": "int256"
        }
      ],
      "payable": false,
      "stateMutability": "pure",
      "type": "function"
    },
    {
      "constant": true,
      "inputs": [
        {
          "internalType": "int256",
          "name": "x",
          "type": "int256"
        },
        {
          "internalType": "int256",
          "name": "y",
          "type": "int256"
        }
      ],
      "name": "multiply",
      "outputs": [
        {
          "internalType": "int256",
          "name": "",
          "type": "int256"
        }
      ],
      "payable": false,
      "stateMutability": "pure",
      "type": "function"
    },
    {
      "constant": true,
      "inputs": [
        {
          "internalType": "int256",
          "name": "x",
          "type": "int256"
        }
      ],
      "name": "newFixed",
      "outputs": [
        {
          "internalType": "int256",
          "name": "",
          "type": "int256"
        }
      ],
      "payable": false,
      "stateMutability": "pure",
      "type": "function"
    },
    {
      "constant": true,
      "inputs": [
        {
          "internalType": "int256",
          "name": "x",
          "type": "int256"
        },
        {
          "internalType": "uint8",
          "name": "_originDigits",
          "type": "uint8"
        }
      ],
      "name": "newFixed",
      "outputs": [
        {
          "internalType": "int256",
          "name": "",
          "type": "int256"
        }
      ],
      "payable": false,
      "stateMutability": "pure",
      "type": "function"
    },
    {
      "constant": true,
      "inputs": [
        {
          "internalType": "int256",
          "name": "numerator",
          "type": "int256"
        },
        {
          "internalType": "int256",
          "name": "denominator",
          "type": "int256"
        }
      ],
      "name": "newFixedFraction",
      "outputs": [
        {
          "internalType": "int256",
          "name": "",
          "type": "int256"
        }
      ],
      "payable": false,
      "stateMutability": "pure",
      "type": "function"
    },
    {
      "constant": true,
      "inputs": [
        {
          "internalType": "int256",
          "name": "x",
          "type": "int256"
        }
      ],
      "name": "reciprocal",
      "outputs": [
        {
          "internalType": "int256",
          "name": "",
          "type": "int256"
        }
      ],
      "payable": false,
      "stateMutability": "pure",
      "type": "function"
    },
    {
      "constant": true,
      "inputs": [
        {
          "internalType": "int256",
          "name": "x",
          "type": "int256"
        },
        {
          "internalType": "int256",
          "name": "y",
          "type": "int256"
        }
      ],
      "name": "subtract",
      "outputs": [
        {
          "internalType": "int256",
          "name": "",
          "type": "int256"
        }
      ],
      "payable": false,
      "stateMutability": "pure",
      "type": "function"
    }
  ],
  "bytecode": "0x610960610026600b82828239805160001a60731461001957fe5b30600052607381538281f3fe73000000000000000000000000000000000000000030146080604052600436106101985760003560e01c806395ac72cf116100e8578063b93ea812116100a1578063d6c1528b1161007b578063d6c1528b1461038e578063e179f252146103b4578063f5984236146103d1578063f800d6721461028057610198565b8063b93ea81214610331578063bd5cbd6214610354578063cf94513a1461037157610198565b806395ac72cf146102a05780639c15bca4146102c35780639ca7eb76146102e05780639e20437c146102e8578063a0601be714610306578063a5f3c23b1461030e57610198565b80633c4308a8116101555780637bc140ea1161012f5780637bc140ea146102805780637c1bd7c814610288578063925d6dfd1461029057806393b027b41461029857610198565b80633c4308a8146102275780634daaea531461024a578063718db30a1461027857610198565b80630e9989931461019d5780631b5ac4b5146101cc5780632179bb6c146101e9578063239909ea146101f15780632fd81f46146101f9578063393ca44614610201575b600080fd5b6101ba600480360360208110156101b357600080fd5b50356103f4565b60408051918252519081900360200190f35b6101ba600480360360208110156101e257600080fd5b503561040f565b6101ba610434565b6101ba610442565b6101ba61045a565b6101ba6004803603604081101561021757600080fd5b508035906020013560ff16610468565b6101ba6004803603604081101561023d57600080fd5b5080359060200135610485565b6101ba6004803603606081101561026057600080fd5b5080359060ff60208201358116916040013516610615565b6101ba6106fb565b6101ba610716565b6101ba610730565b6101ba610738565b6101ba610743565b6101ba600480360360408110156102b657600080fd5b508035906020013561074e565b6101ba600480360360208110156102d957600080fd5b50356107af565b6101ba6107d4565b6102f06107dd565b6040805160ff9092168252519081900360200190f35b6101ba6107e2565b6101ba6004803603604081101561032457600080fd5b50803590602001356107ea565b6101ba6004803603604081101561034757600080fd5b5080359060200135610840565b6101ba6004803603602081101561036a57600080fd5b503561084f565b6101ba6004803603602081101561038757600080fd5b5035610889565b6101ba600480360360408110156103a457600080fd5b508035906020013560ff166108ad565b6101ba600480360360208110156103ca57600080fd5b50356108c1565b6101ba600480360360408110156103e757600080fd5b50803590602001356108e3565b60006103fe610434565b828161040657fe5b0590505b919050565b600080821261041f57508061040a565b600082810390811361042d57fe5b905061040a565b69d3c21bcecceda100000090565b73af298d050e4395d69670b12b7f4100000000000090565b6614945b2700518560731b90565b600061047c836104766107dd565b84610615565b90505b92915050565b6000821580610492575081155b1561049f5750600061047f565b6104a7610434565b8214156104b557508161047f565b6104bd610434565b8314156104cb57508061047f565b60006104d5610434565b6104de856108c1565b816104e557fe5b05905060006104f385610889565b905060006104ff610434565b610508866108c1565b8161050f57fe5b059050600061051d86610889565b9050838202841561053a578285828161053257fe5b051461053a57fe5b6000610544610434565b82029050811561056757610556610434565b82828161055f57fe5b051461056757fe5b9050808484028515610585578486828161057d57fe5b051461058557fe5b86840287156105a0578488828161059857fe5b05146105a057fe5b6105a86107d4565b87816105b057fe5b0596506105bb6107d4565b85816105c357fe5b05945086850287156105e157858882816105d957fe5b05146105e157fe5b846105ec81856107ea565b90506105f881846107ea565b905061060481836107ea565b9d9c50505050505050505050505050565b600060268360ff161115801561062f575060268260ff1611155b61063857600080fd5b60008260ff168460ff16111561066d575081830360ff8116600a0a6001600160801b0316858161066457fe5b059150506106f4565b8260ff168460ff1610156106ef575082820360ff8116600a0a6001600160801b0316610697610743565b8161069e57fe5b058513156106ab57600080fd5b60ff8116600a0a6001600160801b03166106c3610730565b816106ca57fe5b058512156106d757600080fd5b60ff16600a0a6001600160801b0316840290506106f4565b849150505b9392505050565b759abe14cd44753b52c4926a9672793542d78c3615cf391990565b759abe14cd44753b52c4926a9672793542d78c3615cf3a90565b600160ff1b90565b6001600160fe1b0390565b6001600160ff1b0390565b6000610758610716565b83131561076457600080fd5b61076c610716565b82131561077857600080fd5b8161078257600080fd5b600061078d8461084f565b9050600061079a8461084f565b90506107a682826108e3565b95945050505050565b6000816107bb57600080fd5b816107c4610434565b6107cc610434565b028161040657fe5b64e8d4a5100090565b601890565b600360fe1b90565b600082820181841380156107fe5750600083135b1561081757838113801561081157508281135b61081757fe5b6000841280156108275750600083125b1561047c57838112801561083a57508281125b61047c57fe5b600061047c83836000036107ea565b6000610859610716565b82131561086557600080fd5b61086d6106fb565b82121561087957600080fd5b610881610434565b909102919050565b6000610893610434565b61089b610434565b83816108a357fe5b0502909103919050565b600061047c83836108bc6107dd565b610615565b60006108cb610434565b6108d3610434565b83816108db57fe5b050292915050565b60006108ed610434565b8214156108fb57508161047f565b8161090557600080fd5b61090d610442565b82131561091957600080fd5b61047c83610926846107af565b61048556fea265627a7a72315820f5cbdccc2e1b7338b23e7bb589724b835c8ff687f9cd110430cd636690788c4b64736f6c634300050c0032",
  "compiler": {
    "name": "solc",
    "version": "0.5.12+commit.7709ece9.Emscripten.clang",
    "optimizer": {
      "enabled": true,
      "runs": 200
    },
    "evmVersion": "petersburg"
  }
}