{
  "fileName": "PodMock.sol",
  "contractName": "PodMock",
  "source": "pragma solidity ^0.5.0;\n\nimport \"@pooltogether/pods/contracts/Pod.sol\";\n\ncontract PodMock is Pod {}\n",
  "sourcePath": "contracts/PodMock.sol",
  "abi": [
    {
      "anonymous": false,
      "inputs": [
        {
          "indexed": true,
          "internalType": "address",
          "name": "owner",
          "type": "address"
        },
        {
          "indexed": true,
          "internalType": "address",
          "name": "spender",
          "type": "address"
        },
        {
          "indexed": false,
          "internalType": "uint256",
          "name": "value",
          "type": "uint256"
        }
      ],
      "name": "Approval",
      "type": "event"
    },
    {
      "anonymous": false,
      "inputs": [
        {
          "indexed": true,
          "internalType": "address",
          "name": "operator",
          "type": "address"
        },
        {
          "indexed": true,
          "internalType": "address",
          "name": "tokenHolder",
          "type": "address"
        }
      ],
      "name": "AuthorizedOperator",
      "type": "event"
    },
    {
      "anonymous": false,
      "inputs": [
        {
          "indexed": true,
          "internalType": "address",
          "name": "operator",
          "type": "address"
        },
        {
          "indexed": true,
          "internalType": "address",
          "name": "from",
          "type": "address"
        },
        {
          "indexed": false,
          "internalType": "uint256",
          "name": "amount",
          "type": "uint256"
        },
        {
          "indexed": false,
          "internalType": "bytes",
          "name": "data",
          "type": "bytes"
        },
        {
          "indexed": false,
          "internalType": "bytes",
          "name": "operatorData",
          "type": "bytes"
        }
      ],
      "name": "Burned",
      "type": "event"
    },
    {
      "anonymous": false,
      "inputs": [
        {
          "indexed": true,
          "internalType": "uint256",
          "name": "timestamp",
          "type": "uint256"
        },
        {
          "indexed": false,
          "internalType": "uint256",
          "name": "tokens",
          "type": "uint256"
        },
        {
          "indexed": false,
          "internalType": "uint256",
          "name": "collateral",
          "type": "uint256"
        },
        {
          "indexed": false,
          "internalType": "uint256",
          "name": "mantissa",
          "type": "uint256"
        }
      ],
      "name": "CollateralizationChanged",
      "type": "event"
    },
    {
      "anonymous": false,
      "inputs": [
        {
          "indexed": true,
          "internalType": "address",
          "name": "operator",
          "type": "address"
        },
        {
          "indexed": true,
          "internalType": "address",
          "name": "from",
          "type": "address"
        },
        {
          "indexed": false,
          "internalType": "uint256",
          "name": "collateral",
          "type": "uint256"
        },
        {
          "indexed": false,
          "internalType": "uint256",
          "name": "drawId",
          "type": "uint256"
        },
        {
          "indexed": false,
          "internalType": "bytes",
          "name": "data",
          "type": "bytes"
        },
        {
          "indexed": false,
          "internalType": "bytes",
          "name": "operatorData",
          "type": "bytes"
        }
      ],
      "name": "Deposited",
      "type": "event"
    },
    {
      "anonymous": false,
      "inputs": [
        {
          "indexed": true,
          "internalType": "address",
          "name": "operator",
          "type": "address"
        },
        {
          "indexed": true,
          "internalType": "address",
          "name": "to",
          "type": "address"
        },
        {
          "indexed": false,
          "internalType": "uint256",
          "name": "amount",
          "type": "uint256"
        },
        {
          "indexed": false,
          "internalType": "bytes",
          "name": "data",
          "type": "bytes"
        },
        {
          "indexed": false,
          "internalType": "bytes",
          "name": "operatorData",
          "type": "bytes"
        }
      ],
      "name": "Minted",
      "type": "event"
    },
    {
      "anonymous": false,
      "inputs": [
        {
          "indexed": true,
          "internalType": "address",
          "name": "operator",
          "type": "address"
        },
        {
          "indexed": true,
          "internalType": "address",
          "name": "from",
          "type": "address"
        },
        {
          "indexed": false,
          "internalType": "uint256",
          "name": "collateral",
          "type": "uint256"
        },
        {
          "indexed": false,
          "internalType": "bytes",
          "name": "data",
          "type": "bytes"
        },
        {
          "indexed": false,
          "internalType": "bytes",
          "name": "operatorData",
          "type": "bytes"
        }
      ],
      "name": "PendingDepositWithdrawn",
      "type": "event"
    },
    {
      "anonymous": false,
      "inputs": [
        {
          "indexed": true,
          "internalType": "address",
          "name": "operator",
          "type": "address"
        },
        {
          "indexed": true,
          "internalType": "address",
          "name": "from",
          "type": "address"
        },
        {
          "indexed": false,
          "internalType": "uint256",
          "name": "amount",
          "type": "uint256"
        },
        {
          "indexed": false,
          "internalType": "uint256",
          "name": "collateral",
          "type": "uint256"
        },
        {
          "indexed": false,
          "internalType": "bytes",
          "name": "data",
          "type": "bytes"
        },
        {
          "indexed": false,
          "internalType": "bytes",
          "name": "operatorData",
          "type": "bytes"
        }
      ],
      "name": "Redeemed",
      "type": "event"
    },
    {
      "anonymous": false,
      "inputs": [
        {
          "indexed": true,
          "internalType": "address",
          "name": "operator",
          "type": "address"
        },
        {
          "indexed": true,
          "internalType": "address",
          "name": "from",
          "type": "address"
        },
        {
          "indexed": false,
          "internalType": "uint256",
          "name": "amount",
          "type": "uint256"
        },
        {
          "indexed": false,
          "internalType": "uint256",
          "name": "collateral",
          "type": "uint256"
        },
        {
          "indexed": false,
          "internalType": "bytes",
          "name": "data",
          "type": "bytes"
        },
        {
          "indexed": false,
          "internalType": "bytes",
          "name": "operatorData",
          "type": "bytes"
        }
      ],
      "name": "RedeemedToPool",
      "type": "event"
    },
    {
      "anonymous": false,
      "inputs": [
        {
          "indexed": true,
          "internalType": "address",
          "name": "operator",
          "type": "address"
        },
        {
          "indexed": true,
          "internalType": "address",
          "name": "tokenHolder",
          "type": "address"
        }
      ],
      "name": "RevokedOperator",
      "type": "event"
    },
    {
      "anonymous": false,
      "inputs": [
        {
          "indexed": true,
          "internalType": "address",
          "name": "operator",
          "type": "address"
        },
        {
          "indexed": true,
          "internalType": "address",
          "name": "from",
          "type": "address"
        },
        {
          "indexed": true,
          "internalType": "address",
          "name": "to",
          "type": "address"
        },
        {
          "indexed": false,
          "internalType": "uint256",
          "name": "amount",
          "type": "uint256"
        },
        {
          "indexed": false,
          "internalType": "bytes",
          "name": "data",
          "type": "bytes"
        },
        {
          "indexed": false,
          "internalType": "bytes",
          "name": "operatorData",
          "type": "bytes"
        }
      ],
      "name": "Sent",
      "type": "event"
    },
    {
      "anonymous": false,
      "inputs": [
        {
          "indexed": true,
          "internalType": "address",
          "name": "from",
          "type": "address"
        },
        {
          "indexed": true,
          "internalType": "address",
          "name": "to",
          "type": "address"
        },
        {
          "indexed": false,
          "internalType": "uint256",
          "name": "value",
          "type": "uint256"
        }
      ],
      "name": "Transfer",
      "type": "event"
    },
    {
      "constant": true,
      "inputs": [
        {
          "internalType": "address",
          "name": "holder",
          "type": "address"
        },
        {
          "internalType": "address",
          "name": "spender",
          "type": "address"
        }
      ],
      "name": "allowance",
      "outputs": [
        {
          "internalType": "uint256",
          "name": "",
          "type": "uint256"
        }
      ],
      "payable": false,
      "stateMutability": "view",
      "type": "function"
    },
    {
      "constant": false,
      "inputs": [
        {
          "internalType": "address",
          "name": "spender",
          "type": "address"
        },
        {
          "internalType": "uint256",
          "name": "value",
          "type": "uint256"
        }
      ],
      "name": "approve",
      "outputs": [
        {
          "internalType": "bool",
          "name": "",
          "type": "bool"
        }
      ],
      "payable": false,
      "stateMutability": "nonpayable",
      "type": "function"
    },
    {
      "constant": false,
      "inputs": [
        {
          "internalType": "address",
          "name": "operator",
          "type": "address"
        }
      ],
      "name": "authorizeOperator",
      "outputs": [],
      "payable": false,
      "stateMutability": "nonpayable",
      "type": "function"
    },
    {
      "constant": true,
      "inputs": [
        {
          "internalType": "address",
          "name": "tokenHolder",
          "type": "address"
        }
      ],
      "name": "balanceOf",
      "outputs": [
        {
          "internalType": "uint256",
          "name": "",
          "type": "uint256"
        }
      ],
      "payable": false,
      "stateMutability": "view",
      "type": "function"
    },
    {
      "constant": true,
      "inputs": [
        {
          "internalType": "address",
          "name": "user",
          "type": "address"
        }
      ],
      "name": "balanceOfUnderlying",
      "outputs": [
        {
          "internalType": "uint256",
          "name": "",
          "type": "uint256"
        }
      ],
      "payable": false,
      "stateMutability": "view",
      "type": "function"
    },
    {
      "constant": false,
      "inputs": [
        {
          "internalType": "uint256",
          "name": "",
          "type": "uint256"
        },
        {
          "internalType": "bytes",
          "name": "",
          "type": "bytes"
        }
      ],
      "name": "burn",
      "outputs": [],
      "payable": false,
      "stateMutability": "nonpayable",
      "type": "function"
    },
    {
      "constant": true,
      "inputs": [],
      "name": "currentExchangeRateMantissa",
      "outputs": [
        {
          "internalType": "uint256",
          "name": "",
          "type": "uint256"
        }
      ],
      "payable": false,
      "stateMutability": "view",
      "type": "function"
    },
    {
      "constant": true,
      "inputs": [],
      "name": "decimals",
      "outputs": [
        {
          "internalType": "uint8",
          "name": "",
          "type": "uint8"
        }
      ],
      "payable": false,
      "stateMutability": "pure",
      "type": "function"
    },
    {
      "constant": true,
      "inputs": [],
      "name": "defaultOperators",
      "outputs": [
        {
          "internalType": "address[]",
          "name": "",
          "type": "address[]"
        }
      ],
      "payable": false,
      "stateMutability": "view",
      "type": "function"
    },
    {
      "constant": false,
      "inputs": [
        {
          "internalType": "uint256",
          "name": "amount",
          "type": "uint256"
        },
        {
          "internalType": "bytes",
          "name": "data",
          "type": "bytes"
        }
      ],
      "name": "deposit",
      "outputs": [],
      "payable": false,
      "stateMutability": "nonpayable",
      "type": "function"
    },
    {
      "constant": true,
      "inputs": [],
      "name": "granularity",
      "outputs": [
        {
          "internalType": "uint256",
          "name": "",
          "type": "uint256"
        }
      ],
      "payable": false,
      "stateMutability": "view",
      "type": "function"
    },
    {
      "constant": false,
      "inputs": [],
      "name": "initialize",
      "outputs": [],
      "payable": false,
      "stateMutability": "nonpayable",
      "type": "function"
    },
    {
      "constant": false,
      "inputs": [
        {
          "internalType": "contract MCDAwarePool",
          "name": "_pool",
          "type": "address"
        }
      ],
      "name": "initialize",
      "outputs": [],
      "payable": false,
      "stateMutability": "nonpayable",
      "type": "function"
    },
    {
      "constant": false,
      "inputs": [
        {
          "internalType": "string",
          "name": "name",
          "type": "string"
        },
        {
          "internalType": "string",
          "name": "symbol",
          "type": "string"
        },
        {
          "internalType": "address[]",
          "name": "defaultOperators",
          "type": "address[]"
        }
      ],
      "name": "initialize",
      "outputs": [],
      "payable": false,
      "stateMutability": "nonpayable",
      "type": "function"
    },
    {
      "constant": true,
      "inputs": [
        {
          "internalType": "address",
          "name": "operator",
          "type": "address"
        },
        {
          "internalType": "address",
          "name": "tokenHolder",
          "type": "address"
        }
      ],
      "name": "isOperatorFor",
      "outputs": [
        {
          "internalType": "bool",
          "name": "",
          "type": "bool"
        }
      ],
      "payable": false,
      "stateMutability": "view",
      "type": "function"
    },
    {
      "constant": true,
      "inputs": [],
      "name": "name",
      "outputs": [
        {
          "internalType": "string",
          "name": "",
          "type": "string"
        }
      ],
      "payable": false,
      "stateMutability": "view",
      "type": "function"
    },
    {
      "constant": false,
      "inputs": [
        {
          "internalType": "address",
          "name": "",
          "type": "address"
        },
        {
          "internalType": "uint256",
          "name": "",
          "type": "uint256"
        },
        {
          "internalType": "bytes",
          "name": "",
          "type": "bytes"
        },
        {
          "internalType": "bytes",
          "name": "",
          "type": "bytes"
        }
      ],
      "name": "operatorBurn",
      "outputs": [],
      "payable": false,
      "stateMutability": "nonpayable",
      "type": "function"
    },
    {
      "constant": false,
      "inputs": [
        {
          "internalType": "address",
          "name": "user",
          "type": "address"
        },
        {
          "internalType": "uint256",
          "name": "amount",
          "type": "uint256"
        },
        {
          "internalType": "bytes",
          "name": "data",
          "type": "bytes"
        },
        {
          "internalType": "bytes",
          "name": "operatorData",
          "type": "bytes"
        }
      ],
      "name": "operatorDeposit",
      "outputs": [],
      "payable": false,
      "stateMutability": "nonpayable",
      "type": "function"
    },
    {
      "constant": false,
      "inputs": [
        {
          "internalType": "address",
          "name": "account",
          "type": "address"
        },
        {
          "internalType": "uint256",
          "name": "amount",
          "type": "uint256"
        },
        {
          "internalType": "bytes",
          "name": "data",
          "type": "bytes"
        },
        {
          "internalType": "bytes",
          "name": "operatorData",
          "type": "bytes"
        }
      ],
      "name": "operatorRedeem",
      "outputs": [],
      "payable": false,
      "stateMutability": "nonpayable",
      "type": "function"
    },
    {
      "constant": false,
      "inputs": [
        {
          "internalType": "address",
          "name": "account",
          "type": "address"
        },
        {
          "internalType": "uint256",
          "name": "amount",
          "type": "uint256"
        },
        {
          "internalType": "bytes",
          "name": "data",
          "type": "bytes"
        },
        {
          "internalType": "bytes",
          "name": "operatorData",
          "type": "bytes"
        }
      ],
      "name": "operatorRedeemToPool",
      "outputs": [],
      "payable": false,
      "stateMutability": "nonpayable",
      "type": "function"
    },
    {
      "constant": false,
      "inputs": [
        {
          "internalType": "address",
          "name": "sender",
          "type": "address"
        },
        {
          "internalType": "address",
          "name": "recipient",
          "type": "address"
        },
        {
          "internalType": "uint256",
          "name": "amount",
          "type": "uint256"
        },
        {
          "internalType": "bytes",
          "name": "data",
          "type": "bytes"
        },
        {
          "internalType": "bytes",
          "name": "operatorData",
          "type": "bytes"
        }
      ],
      "name": "operatorSend",
      "outputs": [],
      "payable": false,
      "stateMutability": "nonpayable",
      "type": "function"
    },
    {
      "constant": false,
      "inputs": [
        {
          "internalType": "address",
          "name": "from",
          "type": "address"
        },
        {
          "internalType": "uint256",
          "name": "amount",
          "type": "uint256"
        },
        {
          "internalType": "bytes",
          "name": "data",
          "type": "bytes"
        },
        {
          "internalType": "bytes",
          "name": "operatorData",
          "type": "bytes"
        }
      ],
      "name": "operatorWithdrawPendingDeposit",
      "outputs": [],
      "payable": false,
      "stateMutability": "nonpayable",
      "type": "function"
    },
    {
      "constant": true,
      "inputs": [
        {
          "internalType": "address",
          "name": "user",
          "type": "address"
        }
      ],
      "name": "pendingDeposit",
      "outputs": [
        {
          "internalType": "uint256",
          "name": "",
          "type": "uint256"
        }
      ],
      "payable": false,
      "stateMutability": "view",
      "type": "function"
    },
    {
      "constant": true,
      "inputs": [],
      "name": "pool",
      "outputs": [
        {
          "internalType": "contract MCDAwarePool",
          "name": "",
          "type": "address"
        }
      ],
      "payable": false,
      "stateMutability": "view",
      "type": "function"
    },
    {
      "constant": false,
      "inputs": [
        {
          "internalType": "uint256",
          "name": "amount",
          "type": "uint256"
        },
        {
          "internalType": "bytes",
          "name": "data",
          "type": "bytes"
        }
      ],
      "name": "redeem",
      "outputs": [],
      "payable": false,
      "stateMutability": "nonpayable",
      "type": "function"
    },
    {
      "constant": false,
      "inputs": [
        {
          "internalType": "uint256",
          "name": "amount",
          "type": "uint256"
        },
        {
          "internalType": "bytes",
          "name": "data",
          "type": "bytes"
        }
      ],
      "name": "redeemToPool",
      "outputs": [],
      "payable": false,
      "stateMutability": "nonpayable",
      "type": "function"
    },
    {
      "constant": false,
      "inputs": [
        {
          "internalType": "address",
          "name": "operator",
          "type": "address"
        }
      ],
      "name": "revokeOperator",
      "outputs": [],
      "payable": false,
      "stateMutability": "nonpayable",
      "type": "function"
    },
    {
      "constant": false,
      "inputs": [
        {
          "internalType": "address",
          "name": "",
          "type": "address"
        },
        {
          "internalType": "uint256",
          "name": "winnings",
          "type": "uint256"
        },
        {
          "internalType": "uint256",
          "name": "drawId",
          "type": "uint256"
        }
      ],
      "name": "rewarded",
      "outputs": [],
      "payable": false,
      "stateMutability": "nonpayable",
      "type": "function"
    },
    {
      "constant": false,
      "inputs": [
        {
          "internalType": "address",
          "name": "recipient",
          "type": "address"
        },
        {
          "internalType": "uint256",
          "name": "amount",
          "type": "uint256"
        },
        {
          "internalType": "bytes",
          "name": "data",
          "type": "bytes"
        }
      ],
      "name": "send",
      "outputs": [],
      "payable": false,
      "stateMutability": "nonpayable",
      "type": "function"
    },
    {
      "constant": true,
      "inputs": [],
      "name": "symbol",
      "outputs": [
        {
          "internalType": "string",
          "name": "",
          "type": "string"
        }
      ],
      "payable": false,
      "stateMutability": "view",
      "type": "function"
    },
    {
      "constant": false,
      "inputs": [
        {
          "internalType": "address",
          "name": "",
          "type": "address"
        },
        {
          "internalType": "address",
          "name": "from",
          "type": "address"
        },
        {
          "internalType": "address",
          "name": "",
          "type": "address"
        },
        {
          "internalType": "uint256",
          "name": "amount",
          "type": "uint256"
        },
        {
          "internalType": "bytes",
          "name": "",
          "type": "bytes"
        },
        {
          "internalType": "bytes",
          "name": "",
          "type": "bytes"
        }
      ],
      "name": "tokensReceived",
      "outputs": [],
      "payable": false,
      "stateMutability": "nonpayable",
      "type": "function"
    },
    {
      "constant": true,
      "inputs": [],
      "name": "totalSupply",
      "outputs": [
        {
          "internalType": "uint256",
          "name": "",
          "type": "uint256"
        }
      ],
      "payable": false,
      "stateMutability": "view",
      "type": "function"
    },
    {
      "constant": false,
      "inputs": [
        {
          "internalType": "address",
          "name": "recipient",
          "type": "address"
        },
        {
          "internalType": "uint256",
          "name": "amount",
          "type": "uint256"
        }
      ],
      "name": "transfer",
      "outputs": [
        {
          "internalType": "bool",
          "name": "",
          "type": "bool"
        }
      ],
      "payable": false,
      "stateMutability": "nonpayable",
      "type": "function"
    },
    {
      "constant": false,
      "inputs": [
        {
          "internalType": "address",
          "name": "holder",
          "type": "address"
        },
        {
          "internalType": "address",
          "name": "recipient",
          "type": "address"
        },
        {
          "internalType": "uint256",
          "name": "amount",
          "type": "uint256"
        }
      ],
      "name": "transferFrom",
      "outputs": [
        {
          "internalType": "bool",
          "name": "",
          "type": "bool"
        }
      ],
      "payable": false,
      "stateMutability": "nonpayable",
      "type": "function"
    },
    {
      "constant": false,
      "inputs": [
        {
          "internalType": "uint256",
          "name": "amount",
          "type": "uint256"
        },
        {
          "internalType": "bytes",
          "name": "data",
          "type": "bytes"
        }
      ],
      "name": "withdrawPendingDeposit",
      "outputs": [],
      "payable": false,
      "stateMutability": "nonpayable",
      "type": "function"
    }
  ],
  "bytecode": "0x608060405261502f806100136000396000f3fe608060405234801561001057600080fd5b50600436106102105760003560e01c806370a0823111610125578063c4d66de8116100ad578063dd62ed3e1161007c578063dd62ed3e14610e66578063e77c646d14610e94578063fad8b32a14610f09578063fc673c4f14610f2f578063fe9d93031461106d57610210565b8063c4d66de814610b94578063ca27593114610bba578063d7d5b92814610d65578063d95b637114610e3857610210565b8063959b8c3f116100f4578063959b8c3f146109ae57806395d89b41146109d45780639bd9bbc6146109dc578063a9059cbb14610a95578063ad3eda7d14610ac157610210565b806370a0823114610903578063807ae243146109295780638129fc1c146109315780638d3a03b51461093957610210565b80631aa04968116101a85780633af9e669116101775780633af9e66914610644578063556f0dc71461066a5780635d303519146106725780635e336b77146106e757806362ad1b83146107ba57610210565b80631aa049681461059857806323b872dd146105ca578063313ce567146106005780633a64b4921461061e57610210565b8063095ea7b3116101e4578063095ea7b31461044757806316f0115b1461048757806318160ddd146104ab57806318b54be3146104c557610210565b806223de291461021557806303ac4eb4146102fd57806306e485381461037257806306fdde03146103ca575b600080fd5b6102fb600480360360c081101561022b57600080fd5b6001600160a01b03823581169260208101358216926040820135909216916060820135919081019060a081016080820135600160201b81111561026d57600080fd5b82018360208201111561027f57600080fd5b803590602001918460018302840111600160201b831117156102a057600080fd5b919390929091602081019035600160201b8111156102bd57600080fd5b8201836020820111156102cf57600080fd5b803590602001918460018302840111600160201b831117156102f057600080fd5b5090925090506110a4565b005b6102fb6004803603604081101561031357600080fd5b81359190810190604081016020820135600160201b81111561033457600080fd5b82018360208201111561034657600080fd5b803590602001918460018302840111600160201b8311171561036757600080fd5b50909250905061125b565b61037a6112b0565b60408051602080825283518183015283519192839290830191858101910280838360005b838110156103b657818101518382015260200161039e565b505050509050019250505060405180910390f35b6103d2611313565b6040805160208082528351818301528351919283929083019185019080838360005b8381101561040c5781810151838201526020016103f4565b50505050905090810190601f1680156104395780820380516001836020036101000a031916815260200191505b509250505060405180910390f35b6104736004803603604081101561045d57600080fd5b506001600160a01b0381351690602001356113a0565b604080519115158252519081900360200190f35b61048f6113c2565b604080516001600160a01b039092168252519081900360200190f35b6104b36113d1565b60408051918252519081900360200190f35b6102fb600480360360808110156104db57600080fd5b6001600160a01b0382351691602081013591810190606081016040820135600160201b81111561050a57600080fd5b82018360208201111561051c57600080fd5b803590602001918460018302840111600160201b8311171561053d57600080fd5b919390929091602081019035600160201b81111561055a57600080fd5b82018360208201111561056c57600080fd5b803590602001918460018302840111600160201b8311171561058d57600080fd5b509092509050611496565b6102fb600480360360608110156105ae57600080fd5b506001600160a01b038135169060208101359060400135611514565b610473600480360360608110156105e057600080fd5b506001600160a01b0381358116916020810135909116906040013561165f565b6106086117e2565b6040805160ff9092168252519081900360200190f35b6104b36004803603602081101561063457600080fd5b50356001600160a01b03166117e7565b6104b36004803603602081101561065a57600080fd5b50356001600160a01b0316611890565b6104b36118ac565b6102fb6004803603604081101561068857600080fd5b81359190810190604081016020820135600160201b8111156106a957600080fd5b8201836020820111156106bb57600080fd5b803590602001918460018302840111600160201b831117156106dc57600080fd5b5090925090506118b1565b6102fb600480360360808110156106fd57600080fd5b6001600160a01b0382351691602081013591810190606081016040820135600160201b81111561072c57600080fd5b82018360208201111561073e57600080fd5b803590602001918460018302840111600160201b8311171561075f57600080fd5b919390929091602081019035600160201b81111561077c57600080fd5b82018360208201111561078e57600080fd5b803590602001918460018302840111600160201b831117156107af57600080fd5b509092509050611901565b6102fb600480360360a08110156107d057600080fd5b6001600160a01b03823581169260208101359091169160408201359190810190608081016060820135600160201b81111561080a57600080fd5b82018360208201111561081c57600080fd5b803590602001918460018302840111600160201b8311171561083d57600080fd5b91908080601f0160208091040260200160405190810160405280939291908181526020018383808284376000920191909152509295949360208101935035915050600160201b81111561088f57600080fd5b8201836020820111156108a157600080fd5b803590602001918460018302840111600160201b831117156108c257600080fd5b91908080601f0160208091040260200160405190810160405280939291908181526020018383808284376000920191909152509295506119bf945050505050565b6104b36004803603602081101561091957600080fd5b50356001600160a01b0316611a29565b6104b3611afa565b6102fb611b0b565b6102fb6004803603604081101561094f57600080fd5b81359190810190604081016020820135600160201b81111561097057600080fd5b82018360208201111561098257600080fd5b803590602001918460018302840111600160201b831117156109a357600080fd5b509092509050611bb2565b6102fb600480360360208110156109c457600080fd5b50356001600160a01b0316611c02565b6103d2611d4e565b6102fb600480360360608110156109f257600080fd5b6001600160a01b0382351691602081013591810190606081016040820135600160201b811115610a2157600080fd5b820183602082011115610a3357600080fd5b803590602001918460018302840111600160201b83111715610a5457600080fd5b91908080601f016020809104026020016040519081016040528093929190818152602001838380828437600092019190915250929550611daf945050505050565b61047360048036036040811015610aab57600080fd5b506001600160a01b038135169060200135611ddc565b6102fb60048036036080811015610ad757600080fd5b6001600160a01b0382351691602081013591810190606081016040820135600160201b811115610b0657600080fd5b820183602082011115610b1857600080fd5b803590602001918460018302840111600160201b83111715610b3957600080fd5b919390929091602081019035600160201b811115610b5657600080fd5b820183602082011115610b6857600080fd5b803590602001918460018302840111600160201b83111715610b8957600080fd5b509092509050611eb5565b6102fb60048036036020811015610baa57600080fd5b50356001600160a01b0316611f73565b6102fb60048036036060811015610bd057600080fd5b810190602081018135600160201b811115610bea57600080fd5b820183602082011115610bfc57600080fd5b803590602001918460018302840111600160201b83111715610c1d57600080fd5b91908080601f0160208091040260200160405190810160405280939291908181526020018383808284376000920191909152509295949360208101935035915050600160201b811115610c6f57600080fd5b820183602082011115610c8157600080fd5b803590602001918460018302840111600160201b83111715610ca257600080fd5b91908080601f0160208091040260200160405190810160405280939291908181526020018383808284376000920191909152509295949360208101935035915050600160201b811115610cf457600080fd5b820183602082011115610d0657600080fd5b803590602001918460208302840111600160201b83111715610d2757600080fd5b9190808060200260200160405190810160405280939291908181526020018383602002808284376000920191909152509295506121c4945050505050565b6102fb60048036036080811015610d7b57600080fd5b6001600160a01b0382351691602081013591810190606081016040820135600160201b811115610daa57600080fd5b820183602082011115610dbc57600080fd5b803590602001918460018302840111600160201b83111715610ddd57600080fd5b919390929091602081019035600160201b811115610dfa57600080fd5b820183602082011115610e0c57600080fd5b803590602001918460018302840111600160201b83111715610e2d57600080fd5b50909250905061242a565b61047360048036036040811015610e4e57600080fd5b506001600160a01b03813581169160200135166124e8565b6104b360048036036040811015610e7c57600080fd5b506001600160a01b038135811691602001351661258a565b6102fb60048036036040811015610eaa57600080fd5b81359190810190604081016020820135600160201b811115610ecb57600080fd5b820183602082011115610edd57600080fd5b803590602001918460018302840111600160201b83111715610efe57600080fd5b5090925090506125b5565b6102fb60048036036020811015610f1f57600080fd5b50356001600160a01b0316612605565b6102fb60048036036080811015610f4557600080fd5b6001600160a01b0382351691602081013591810190606081016040820135600160201b811115610f7457600080fd5b820183602082011115610f8657600080fd5b803590602001918460018302840111600160201b83111715610fa757600080fd5b91908080601f0160208091040260200160405190810160405280939291908181526020018383808284376000920191909152509295949360208101935035915050600160201b811115610ff957600080fd5b82018360208201111561100b57600080fd5b803590602001918460018302840111600160201b8311171561102c57600080fd5b91908080601f016020809104026020016040519081016040528093929190818152602001838380828437600092019190915250929550612751945050505050565b6102fb6004803603604081101561108357600080fd5b81359190810190604081016020820135600160201b811115610ff957600080fd5b60a760009054906101000a90046001600160a01b03166001600160a01b031663cbdf382c6040518163ffffffff1660e01b815260040160206040518083038186803b1580156110f257600080fd5b505afa158015611106573d6000803e3d6000fd5b505050506040513d602081101561111c57600080fd5b50516001600160a01b031633141561117d576111378761278a565b600061114a60a68763ffffffff6128a916565b9050611177308983604051806020016040528060008152506040518060200160405280600081525061293d565b50611251565b3330148061120c575060a760009054906101000a90046001600160a01b03166001600160a01b031663fc0c546a6040518163ffffffff1660e01b815260040160206040518083038186803b1580156111d457600080fd5b505afa1580156111e8573d6000803e3d6000fd5b505050506040513d60208110156111fe57600080fd5b50516001600160a01b031633145b611251576040805162461bcd60e51b81526020600482015260116024820152702837b217bab735b737bbb716ba37b5b2b760791b604482015290519081900360640190fd5b5050505050505050565b6112ab33338585858080601f016020809104026020016040519081016040528093929190818152602001838380828437600092018290525060408051602081019091529081529250612b68915050565b505050565b6060603780548060200260200160405190810160405280929190818152602001828054801561130857602002820191906000526020600020905b81546001600160a01b031681526001909101906020018083116112ea575b505050505090505b90565b60358054604080516020601f60026000196101006001881615020190951694909404938401819004810282018101909252828152606093909290918301828280156113085780601f1061137457610100808354040283529160200191611308565b820191906000526020600020905b81548152906001019060200180831161138257509395945050505050565b6000806113ab612e16565b90506113b8818585612e1a565b5060019392505050565b60a7546001600160a01b031681565b600080600061146160a760009054906101000a90046001600160a01b03166001600160a01b031663304c96706040518163ffffffff1660e01b815260040160206040518083038186803b15801561142757600080fd5b505afa15801561143b573d6000803e3d6000fd5b505050506040513d602081101561145157600080fd5b505160a19063ffffffff612ec116565b909250905061148f61147b60a6848463ffffffff612f5f16565b611483613019565b9063ffffffff61301f16565b9250505090565b61150c33878787878080601f01602080910402602001604051908101604052809392919081815260200183838082843760009201919091525050604080516020601f8b01819004810282018101909252898152925089915088908190840183828082843760009201919091525061307992505050565b505050505050565b606e80546001019081905560a7546001600160a01b0316331461156e576040805162461bcd60e51b815260206004820152600d60248201526c141bd90bdbdb9b1e4b5c1bdbdb609a1b604482015290519081900360640190fd5b60006115786113d1565b905060006115918561148360a68563ffffffff61351816565b905060006115bb83836115ab88600163ffffffff61301f16565b60a692919063ffffffff61357916565b6040805185815260208101859052808201839052905191925086917f3c85af6bb3c5f67c404d53d1357995591840bcc7e5c21a96549351b80cd1b25e9181900360600190a2505050606e548114611659576040805162461bcd60e51b815260206004820152601f60248201527f5265656e7472616e637947756172643a207265656e7472616e742063616c6c00604482015290519081900360640190fd5b50505050565b60006001600160a01b0383166116a65760405162461bcd60e51b8152600401808060200182810382526024815260200180614f166024913960400191505060405180910390fd5b6001600160a01b0384166116eb5760405162461bcd60e51b8152600401808060200182810382526026815260200180614f8f6026913960400191505060405180910390fd5b60006116f5612e16565b90506117238186868660405180602001604052806000815250604051806020016040528060008152506136da565b61174f818686866040518060200160405280600081525060405180602001604052806000815250613922565b6117a985826117a486604051806060016040528060298152602001614f66602991396001600160a01b03808c166000908152603b60209081526040808320938b1683529290522054919063ffffffff613b3c16565b612e1a565b6117d78186868660405180602001604052806000815250604051806020016040528060008152506000613bd3565b506001949350505050565b601290565b600061188a60a760009054906101000a90046001600160a01b03166001600160a01b031663304c96706040518163ffffffff1660e01b815260040160206040518083038186803b15801561183a57600080fd5b505afa15801561184e573d6000803e3d6000fd5b505050506040513d602081101561186457600080fd5b50516001600160a01b038416600090815260a5602052604090209063ffffffff613e6916565b92915050565b600061188a61189e83611a29565b60a69063ffffffff61351816565b600190565b6112ab33338585858080601f016020809104026020016040519081016040528093929190818152602001838380828437600092018290525060408051602081019091529081529250613079915050565b61190b33876124e8565b611949576040805162461bcd60e51b815260206004820152600a6024820152690506f642f6e6f742d6f760b41b604482015290519081900360640190fd5b61150c33878787878080601f01602080910402602001604051908101604052809392919081815260200183838082843760009201919091525050604080516020601f8b018190048102820181019092528981529250899150889081908401838280828437600092019190915250613ef392505050565b6119d06119ca612e16565b866124e8565b611a0b5760405162461bcd60e51b815260040180806020018281038252602c815260200180614f3a602c913960400191505060405180910390fd5b611a22611a16612e16565b86868686866001614211565b5050505050565b6000806000611acf60a760009054906101000a90046001600160a01b03166001600160a01b031663304c96706040518163ffffffff1660e01b815260040160206040518083038186803b158015611a7f57600080fd5b505afa158015611a93573d6000803e3d6000fd5b505050506040513d6020811015611aa957600080fd5b50516001600160a01b038616600090815260a5602052604090209063ffffffff612ec116565b9092509050611af2611ae960a6848463ffffffff612f5f16565b611483866142dc565b949350505050565b6000611b0660a66142f7565b905090565b600054610100900460ff1680611b245750611b24614330565b80611b32575060005460ff16155b611b6d5760405162461bcd60e51b815260040180806020018281038252602e815260200180614ee8602e913960400191505060405180910390fd5b600054610100900460ff16158015611b98576000805460ff1961ff0019909116610100171660011790555b6001606e558015611baf576000805461ff00191690555b50565b6112ab33338585858080601f016020809104026020016040519081016040528093929190818152602001838380828437600092018290525060408051602081019091529081529250613ef3915050565b806001600160a01b0316611c14612e16565b6001600160a01b03161415611c5a5760405162461bcd60e51b8152600401808060200182810382526024815260200180614e566024913960400191505060405180910390fd5b6001600160a01b03811660009081526038602052604090205460ff1615611cbd57603a6000611c87612e16565b6001600160a01b03908116825260208083019390935260409182016000908120918516815292529020805460ff19169055611d04565b600160396000611ccb612e16565b6001600160a01b03908116825260208083019390935260409182016000908120918616815292529020805460ff19169115159190911790555b611d0c612e16565b6001600160a01b0316816001600160a01b03167ff4caeb2d6ca8932a215a353d0703c326ec2d81fc68170f320eb2ab49e9df61f960405160405180910390a350565b60368054604080516020601f60026000196101006001881615020190951694909404938401819004810282018101909252828152606093909290918301828280156113085780601f1061137457610100808354040283529160200191611308565b6112ab611dba612e16565b611dc2612e16565b858585604051806020016040528060008152506001614211565b60006001600160a01b038316611e235760405162461bcd60e51b8152600401808060200182810382526024815260200180614f166024913960400191505060405180910390fd5b6000611e2d612e16565b9050611e5b8182868660405180602001604052806000815250604051806020016040528060008152506136da565b611e87818286866040518060200160405280600081525060405180602001604052806000815250613922565b6113b88182868660405180602001604052806000815250604051806020016040528060008152506000613bd3565b611ebf33876124e8565b611efd576040805162461bcd60e51b815260206004820152600a6024820152690506f642f6e6f742d6f760b41b604482015290519081900360640190fd5b61150c33878787878080601f01602080910402602001604051908101604052809392919081815260200183838082843760009201919091525050604080516020601f8b018190048102820181019092528981529250899150889081908401838280828437600092019190915250612b6892505050565b600054610100900460ff1680611f8c5750611f8c614330565b80611f9a575060005460ff16155b611fd55760405162461bcd60e51b815260040180806020018281038252602e815260200180614ee8602e913960400191505060405180910390fd5b600054610100900460ff16158015612000576000805460ff1961ff0019909116610100171660011790555b6001600160a01b03821661204a576040805162461bcd60e51b815260206004820152600c60248201526b2837b217b837b7b616b232b360a11b604482015290519081900360640190fd5b61206560a669d3c21bcecceda100000063ffffffff61433616565b60a780546001600160a01b0319166001600160a01b038416179055604080516329965a1d60e01b815230600482018190527fb281fc8c12954d22544db45de3159a39272895b169a852b314f9cc762e44c53b602483015260448201529051731820a4b7618bde71dce8cdc73aab6c95905fad24916329965a1d91606480830192600092919082900301818387803b1580156120ff57600080fd5b505af1158015612113573d6000803e3d6000fd5b5050604080516329965a1d60e01b815230600482018190527f68f03b0b1a978ee238a70b362091d993343460bc1a2830ab3f708936d9f564a4602483015260448201529051731820a4b7618bde71dce8cdc73aab6c95905fad2493506329965a1d9250606480830192600092919082900301818387803b15801561219657600080fd5b505af11580156121aa573d6000803e3d6000fd5b5050505080156121c0576000805461ff00191690555b5050565b600054610100900460ff16806121dd57506121dd614330565b806121eb575060005460ff16155b6122265760405162461bcd60e51b815260040180806020018281038252602e815260200180614ee8602e913960400191505060405180910390fd5b600054610100900460ff16158015612251576000805460ff1961ff0019909116610100171660011790555b8351612264906035906020870190614c6e565b508251612278906036906020860190614c6e565b50815161228c906037906020850190614cec565b5060005b6037548110156122e957600160386000603784815481106122ad57fe5b6000918252602080832091909101546001600160a01b031683528201929092526040019020805460ff1916911515919091179055600101612290565b50604080516a22a9219b9b9baa37b5b2b760a91b8152815190819003600b0181206329965a1d60e01b82523060048301819052602483019190915260448201529051731820a4b7618bde71dce8cdc73aab6c95905fad24916329965a1d91606480830192600092919082900301818387803b15801561236757600080fd5b505af115801561237b573d6000803e3d6000fd5b5050604080516922a92199182a37b5b2b760b11b8152815190819003600a0181206329965a1d60e01b82523060048301819052602483019190915260448201529051731820a4b7618bde71dce8cdc73aab6c95905fad2493506329965a1d9250606480830192600092919082900301818387803b1580156123fb57600080fd5b505af115801561240f573d6000803e3d6000fd5b505050508015611659576000805461ff001916905550505050565b61243433876124e8565b612472576040805162461bcd60e51b815260206004820152600a6024820152690506f642f6e6f742d6f760b41b604482015290519081900360640190fd5b61150c33878787878080601f01602080910402602001604051908101604052809392919081815260200183838082843760009201919091525050604080516020601f8b0181900481028201810190925289815292508991508890819084018382808284376000920191909152506143db92505050565b6000816001600160a01b0316836001600160a01b0316148061255357506001600160a01b03831660009081526038602052604090205460ff16801561255357506001600160a01b038083166000908152603a602090815260408083209387168352929052205460ff16155b8061258357506001600160a01b0380831660009081526039602090815260408083209387168352929052205460ff165b9392505050565b6001600160a01b039182166000908152603b6020908152604080832093909416825291909152205490565b6112ab33338585858080601f0160208091040260200160405190810160405280939291908181526020018383808284376000920182905250604080516020810190915290815292506143db915050565b61260d612e16565b6001600160a01b0316816001600160a01b0316141561265d5760405162461bcd60e51b8152600401808060200182810382526021815260200180614e7a6021913960400191505060405180910390fd5b6001600160a01b03811660009081526038602052604090205460ff16156126c9576001603a600061268c612e16565b6001600160a01b03908116825260208083019390935260409182016000908120918616815292529020805460ff1916911515919091179055612707565b603960006126d5612e16565b6001600160a01b03908116825260208083019390935260409182016000908120918516815292529020805460ff191690555b61270f612e16565b6001600160a01b0316816001600160a01b03167f50546e66e5f44d728365dc3908c63bc5cfeeab470722c1677e3073a6ac294aa160405160405180910390a350565b6040805162461bcd60e51b81526020600482015260096024820152680506f642f6e6f2d6f760bc1b604482015290519081900360640190fd5b6127926145f6565b60a75460408051630304c96760e41b815290516000926001600160a01b03169163304c9670916004808301926020929190829003018186803b1580156127d757600080fd5b505afa1580156127eb573d6000803e3d6000fd5b505050506040513d602081101561280157600080fd5b50516001600160a01b038316600090815260a560205260408120919250908190612831908463ffffffff612ec116565b9092509050600061284a60a6848463ffffffff612f5f16565b90508015611a22576001600160a01b038516600090815260a56020526040902061287a908563ffffffff6146db16565b50611a223030878460405180602001604052806000815250604051806020016040528060008152506001614211565b600073__FixedPoint____________________________6373710cd86128ce85614764565b846040518363ffffffff1660e01b8152600401808381526020018281526020019250505060206040518083038186803b15801561290a57600080fd5b505af415801561291e573d6000803e3d6000fd5b505050506040513d602081101561293457600080fd5b50519392505050565b6001600160a01b038416612998576040805162461bcd60e51b815260206004820181905260248201527f4552433737373a206d696e7420746f20746865207a65726f2061646472657373604482015290519081900360640190fd5b6034546129ab908463ffffffff61301f16565b6034556001600160a01b0384166000908152603360205260409020546129d7908463ffffffff61301f16565b6001600160a01b038516600090815260336020526040812091909155612a04908690868686866001613bd3565b836001600160a01b0316856001600160a01b03167f2fe5be0146f74c5bce36c0b80911af6c7d86ff27e89d5cfa61fc681327954e5d858585604051808481526020018060200180602001838103835285818151815260200191508051906020019080838360005b83811015612a83578181015183820152602001612a6b565b50505050905090810190601f168015612ab05780820380516001836020036101000a031916815260200191505b50838103825284518152845160209182019186019080838360005b83811015612ae3578181015183820152602001612acb565b50505050905090810190601f168015612b105780820380516001836020036101000a031916815260200191505b509550505050505060405180910390a36040805184815290516001600160a01b038616916000917fddf252ad1be2c89b69c2b068fc378daa952ba7f163c4a11628f55a4df523b3ef9181900360200190a35050505050565b606e805460010190819055612b7c8561278a565b6000612b8f60a68663ffffffff61351816565b905060a760009054906101000a90046001600160a01b03166001600160a01b031663cbdf382c6040518163ffffffff1660e01b815260040160206040518083038186803b158015612bdf57600080fd5b505afa158015612bf3573d6000803e3d6000fd5b505050506040513d6020811015612c0957600080fd5b50516040805163a9059cbb60e01b81526001600160a01b038981166004830152602482018590529151919092169163a9059cbb9160448083019260209291908290030181600087803b158015612c5e57600080fd5b505af1158015612c72573d6000803e3d6000fd5b505050506040513d6020811015612c8857600080fd5b5050604080518681526020818101849052608092820183815287519383019390935286516001600160a01b03808b1694908c16937ffd1e954975ca570af8596fda61cfead25f8f5bf19126563b1ae9e954569b95fe938b9388938c938c939092606084019160a08501919087019080838360005b83811015612d14578181015183820152602001612cfc565b50505050905090810190601f168015612d415780820380516001836020036101000a031916815260200191505b50838103825284518152845160209182019186019080838360005b83811015612d74578181015183820152602001612d5c565b50505050905090810190601f168015612da15780820380516001836020036101000a031916815260200191505b50965050505050505060405180910390a3612dbf8787878787614799565b50606e54811461150c576040805162461bcd60e51b815260206004820152601f60248201527f5265656e7472616e637947756172643a207265656e7472616e742063616c6c00604482015290519081900360640190fd5b3390565b6001600160a01b038216612e5f5760405162461bcd60e51b8152600401808060200182810382526023815260200180614fd86023913960400191505060405180910390fd5b6001600160a01b038084166000818152603b6020908152604080832094871680845294825291829020859055815185815291517f8c5be1e5ebec7d5bd14f71427d1e84f3dd0314c0f7b2291e5b200ac8c7c3b9259281900390910190a3505050565b60008083838160030154811015612f1c576040805162461bcd60e51b815260206004820152601a6024820152795363686564756c656442616c616e63652f6261636b776172647360301b604482015290519081900360640190fd5b85600001549350856001015492508486600301541015612f56576002860154612f4c90859063ffffffff61301f16565b9350856003015492505b50509250929050565b600080612f6c85846149c6565b905073__FixedPoint____________________________6373710cd8866000018381548110612f9757fe5b9060005260206000209060020201600101866040518363ffffffff1660e01b8152600401808381526020018281526020019250505060206040518083038186803b158015612fe457600080fd5b505af4158015612ff8573d6000803e3d6000fd5b505050506040513d602081101561300e57600080fd5b505195945050505050565b60345490565b600082820183811015612583576040805162461bcd60e51b815260206004820152601b60248201527f536166654d6174683a206164646974696f6e206f766572666c6f770000000000604482015290519081900360640190fd5b606e80546001019081905561308d8561278a565b60a760009054906101000a90046001600160a01b03166001600160a01b031663fc0c546a6040518163ffffffff1660e01b815260040160206040518083038186803b1580156130db57600080fd5b505afa1580156130ef573d6000803e3d6000fd5b505050506040513d602081101561310557600080fd5b5051604080516323b872dd60e01b81526001600160a01b03898116600483015230602483015260448201889052915191909216916323b872dd9160648083019260209291908290030181600087803b15801561316057600080fd5b505af1158015613174573d6000803e3d6000fd5b505050506040513d602081101561318a57600080fd5b505060a75460408051637e062a3560e11b815290516001600160a01b039092169163fc0c546a91600480820192602092909190829003018186803b1580156131d157600080fd5b505afa1580156131e5573d6000803e3d6000fd5b505050506040513d60208110156131fb57600080fd5b505160a7546040805163095ea7b360e01b81526001600160a01b039283166004820152602481018890529051919092169163095ea7b39160448083019260209291908290030181600087803b15801561325357600080fd5b505af1158015613267573d6000803e3d6000fd5b505050506040513d602081101561327d57600080fd5b505060a754604080516308d1025160e21b81526004810187905290516001600160a01b039092169163234409449160248082019260009290919082900301818387803b1580156132cc57600080fd5b505af11580156132e0573d6000803e3d6000fd5b50505050600060a760009054906101000a90046001600160a01b03166001600160a01b031663304c96706040518163ffffffff1660e01b815260040160206040518083038186803b15801561333457600080fd5b505afa158015613348573d6000803e3d6000fd5b505050506040513d602081101561335e57600080fd5b5051905061337460a1868363ffffffff614a3016565b6001600160a01b038616600090815260a56020526040902061339d90868363ffffffff614a3016565b856001600160a01b0316876001600160a01b03167f116d2f47b438c3fc24b180b3b2136623f8821bfe4cb43f9a8c8068347868d08487848888604051808581526020018481526020018060200180602001838103835285818151815260200191508051906020019080838360005b8381101561342357818101518382015260200161340b565b50505050905090810190601f1680156134505780820380516001836020036101000a031916815260200191505b50838103825284518152845160209182019186019080838360005b8381101561348357818101518382015260200161346b565b50505050905090810190601f1680156134b05780820380516001836020036101000a031916815260200191505b50965050505050505060405180910390a350606e54811461150c576040805162461bcd60e51b815260206004820152601f60248201527f5265656e7472616e637947756172643a207265656e7472616e742063616c6c00604482015290519081900360640190fd5b600073__FixedPoint____________________________6364fb38b78361353e86614764565b6040518363ffffffff1660e01b8152600401808381526020018281526020019250505060206040518083038186803b15801561290a57600080fd5b600061358485614ae1565b845482908690600019810190811061359857fe5b90600052602060002090600202016000015411156135fd576040805162461bcd60e51b815260206004820152601d60248201527f45786368616e676552617465547261636b65722f746f6f2d6561726c79000000604482015290519081900360640190fd5b613605614d4d565b604051806020016040528073__FixedPoint____________________________63a94b733488886040518363ffffffff1660e01b8152600401808381526020018281526020019250505060206040518083038186803b15801561366757600080fd5b505af415801561367b573d6000803e3d6000fd5b505050506040513d602081101561369157600080fd5b50519052604080518082019091528481526020818101838152895460018181018c5560008c81529390932093516002909102909301928355515191015551915050949350505050565b6040805163555ddc6560e11b81526001600160a01b03871660048201527f29ddb589b1fb5fc7cf394961c1adf5f8c6454761adf795e67fe149f658abe89560248201529051600091731820a4b7618bde71dce8cdc73aab6c95905fad249163aabbb8ca91604480820192602092909190829003018186803b15801561375e57600080fd5b505afa158015613772573d6000803e3d6000fd5b505050506040513d602081101561378857600080fd5b505190506001600160a01b0381161561391957806001600160a01b03166375ab97828888888888886040518763ffffffff1660e01b815260040180876001600160a01b03166001600160a01b03168152602001866001600160a01b03166001600160a01b03168152602001856001600160a01b03166001600160a01b031681526020018481526020018060200180602001838103835285818151815260200191508051906020019080838360005b8381101561384e578181015183820152602001613836565b50505050905090810190601f16801561387b5780820380516001836020036101000a031916815260200191505b50838103825284518152845160209182019186019080838360005b838110156138ae578181015183820152602001613896565b50505050905090810190601f1680156138db5780820380516001836020036101000a031916815260200191505b5098505050505050505050600060405180830381600087803b15801561390057600080fd5b505af1158015613914573d6000803e3d6000fd5b505050505b50505050505050565b61396583604051806060016040528060278152602001614e0d602791396001600160a01b038816600090815260336020526040902054919063ffffffff613b3c16565b6001600160a01b03808716600090815260336020526040808220939093559086168152205461399a908463ffffffff61301f16565b60336000866001600160a01b03166001600160a01b0316815260200190815260200160002081905550836001600160a01b0316856001600160a01b0316876001600160a01b03167f06b541ddaa720db2b10a4d0cdac39b8d360425fc073085fac19bc82614677987868686604051808481526020018060200180602001838103835285818151815260200191508051906020019080838360005b83811015613a4c578181015183820152602001613a34565b50505050905090810190601f168015613a795780820380516001836020036101000a031916815260200191505b50838103825284518152845160209182019186019080838360005b83811015613aac578181015183820152602001613a94565b50505050905090810190601f168015613ad95780820380516001836020036101000a031916815260200191505b509550505050505060405180910390a4836001600160a01b0316856001600160a01b03167fddf252ad1be2c89b69c2b068fc378daa952ba7f163c4a11628f55a4df523b3ef856040518082815260200191505060405180910390a3505050505050565b60008184841115613bcb5760405162461bcd60e51b81526004018080602001828103825283818151815260200191508051906020019080838360005b83811015613b90578181015183820152602001613b78565b50505050905090810190601f168015613bbd5780820380516001836020036101000a031916815260200191505b509250505060405180910390fd5b505050900390565b6040805163555ddc6560e11b81526001600160a01b03871660048201527fb281fc8c12954d22544db45de3159a39272895b169a852b314f9cc762e44c53b60248201529051600091731820a4b7618bde71dce8cdc73aab6c95905fad249163aabbb8ca91604480820192602092909190829003018186803b158015613c5757600080fd5b505afa158015613c6b573d6000803e3d6000fd5b505050506040513d6020811015613c8157600080fd5b505190506001600160a01b03811615613e1557806001600160a01b03166223de298989898989896040518763ffffffff1660e01b815260040180876001600160a01b03166001600160a01b03168152602001866001600160a01b03166001600160a01b03168152602001856001600160a01b03166001600160a01b031681526020018481526020018060200180602001838103835285818151815260200191508051906020019080838360005b83811015613d46578181015183820152602001613d2e565b50505050905090810190601f168015613d735780820380516001836020036101000a031916815260200191505b50838103825284518152845160209182019186019080838360005b83811015613da6578181015183820152602001613d8e565b50505050905090810190601f168015613dd35780820380516001836020036101000a031916815260200191505b5098505050505050505050600060405180830381600087803b158015613df857600080fd5b505af1158015613e0c573d6000803e3d6000fd5b50505050611251565b811561125157613e2d866001600160a01b0316614b34565b156112515760405162461bcd60e51b815260040180806020018281038252604d815260200180614e9b604d913960600191505060405180910390fd5b600082828160030154811015613ec3576040805162461bcd60e51b815260206004820152601a6024820152795363686564756c656442616c616e63652f6261636b776172647360301b604482015290519081900360640190fd5b60008560030154851415613eea576002860154613ee790829063ffffffff61301f16565b90505b95945050505050565b60a75460408051630304c96760e41b815290516000926001600160a01b03169163304c9670916004808301926020929190829003018186803b158015613f3857600080fd5b505afa158015613f4c573d6000803e3d6000fd5b505050506040513d6020811015613f6257600080fd5b50516001600160a01b038616600090815260a560205260409020909150613f9090858363ffffffff614b6b16565b60a754604080516303a83ff160e21b81526004810187905290516001600160a01b0390921691630ea0ffc49160248082019260009290919082900301818387803b158015613fdd57600080fd5b505af1158015613ff1573d6000803e3d6000fd5b5050505060a760009054906101000a90046001600160a01b03166001600160a01b031663fc0c546a6040518163ffffffff1660e01b815260040160206040518083038186803b15801561404357600080fd5b505afa158015614057573d6000803e3d6000fd5b505050506040513d602081101561406d57600080fd5b50516040805163a9059cbb60e01b81526001600160a01b038881166004830152602482018890529151919092169163a9059cbb9160448083019260209291908290030181600087803b1580156140c257600080fd5b505af11580156140d6573d6000803e3d6000fd5b505050506040513d60208110156140ec57600080fd5b5050604080518581526060602082810182815287519284019290925286516001600160a01b03808b1695908c16947f91f63202ac41673c1d492d91ee9bf7a27334ccbcf5bcfbeb5755c67a8d12a838948b948b948b9484019160808501919087019080838360005b8381101561416c578181015183820152602001614154565b50505050905090810190601f1680156141995780820380516001836020036101000a031916815260200191505b50838103825284518152845160209182019186019080838360005b838110156141cc5781810151838201526020016141b4565b50505050905090810190601f1680156141f95780820380516001836020036101000a031916815260200191505b509550505050505060405180910390a3505050505050565b6001600160a01b0386166142565760405162461bcd60e51b8152600401808060200182810382526022815260200180614deb6022913960400191505060405180910390fd5b6001600160a01b0385166142b1576040805162461bcd60e51b815260206004820181905260248201527f4552433737373a2073656e6420746f20746865207a65726f2061646472657373604482015290519081900360640190fd5b6142bf8787878787876136da565b6142cd878787878787613922565b61391987878787878787613bd3565b6001600160a01b031660009081526033602052604090205490565b600061430282614ae1565b81548290600019810190811061431457fe5b9060005260206000209060020201600101600001549050919050565b303b1590565b6000811161438b576040805162461bcd60e51b815260206004820152601c60248201527f45786368616e676552617465547261636b65722f6e6f6e2d7a65726f00000000604482015290519081900360640190fd5b60006143978382614d60565b506040805180820182526000808252825160208181019094529384528282019384528454600181810187559582529290209051600290920201908155905151910155565b606e8054600101908190556143ef8561278a565b600061440260a68663ffffffff61351816565b60a7546040805163435edacd60e01b81526004810184905290519293506001600160a01b039091169163435edacd916024808201926020929091908290030181600087803b15801561445357600080fd5b505af1158015614467573d6000803e3d6000fd5b505050506040513d602081101561447d57600080fd5b505060a75460408051637e062a3560e11b815290516001600160a01b039092169163fc0c546a91600480820192602092909190829003018186803b1580156144c457600080fd5b505afa1580156144d8573d6000803e3d6000fd5b505050506040513d60208110156144ee57600080fd5b50516040805163a9059cbb60e01b81526001600160a01b038981166004830152602482018590529151919092169163a9059cbb9160448083019260209291908290030181600087803b15801561454357600080fd5b505af1158015614557573d6000803e3d6000fd5b505050506040513d602081101561456d57600080fd5b5050604080518681526020808201849052608092820183815287519383019390935286516001600160a01b038a811694908c16937f21dc098de022934ad94336e1c632e1e7ee32d05acf4b6232ec5d27747b9aed81938b9388938c938c939092606084019160a08501919087019080838360008315612d14578181015183820152602001612cfc565b60a75460408051630304c96760e41b815290516000926001600160a01b03169163304c9670916004808301926020929190829003018186803b15801561463b57600080fd5b505afa15801561464f573d6000803e3d6000fd5b505050506040513d602081101561466557600080fd5b5051905060008061467d60a18463ffffffff612ec116565b9092509050600061469660a6848463ffffffff612f5f16565b90508015611659576146af60a18563ffffffff6146db16565b50611659303083604051806020016040528060008152506040518060200160405280600081525061293d565b600082828160030154811015614735576040805162461bcd60e51b815260206004820152601a6024820152795363686564756c656442616c616e63652f6261636b776172647360301b604482015290519081900360640190fd5b83856003015410156147505760006003860181905560028601555b505060008084556001909301929092555090565b600061476f82614ae1565b81548290600019810190811061478157fe5b90600052602060002090600202016001019050919050565b6001600160a01b0384166147de5760405162461bcd60e51b8152600401808060200182810382526022815260200180614e346022913960400191505060405180910390fd5b6147ed858560008686866136da565b61483083604051806060016040528060238152602001614fb5602391396001600160a01b038716600090815260336020526040902054919063ffffffff613b3c16565b6001600160a01b03851660009081526033602052604090205560345461485c908463ffffffff614c2c16565b603481905550836001600160a01b0316856001600160a01b03167fa78a9be3a7b862d26933ad85fb11d80ef66b8f972d7cbba06621d583943a4098858585604051808481526020018060200180602001838103835285818151815260200191508051906020019080838360005b838110156148e15781810151838201526020016148c9565b50505050905090810190601f16801561490e5780820380516001836020036101000a031916815260200191505b50838103825284518152845160209182019186019080838360005b83811015614941578181015183820152602001614929565b50505050905090810190601f16801561496e5780820380516001836020036101000a031916815260200191505b509550505050505060405180910390a36040805184815290516000916001600160a01b038716917fddf252ad1be2c89b69c2b068fc378daa952ba7f163c4a11628f55a4df523b3ef9181900360200190a35050505050565b60006149d183614ae1565b82546000905b60018103821015614a245784546002838303048301908690829081106149f957fe5b906000526020600020906002020160000154851015614a1a57809150614a1e565b8092505b506149d7565b60001901949350505050565b8260030154811015614a86576040805162461bcd60e51b815260206004820152601a6024820152795363686564756c656442616c616e63652f6261636b776172647360301b604482015290519081900360640190fd5b8083600301541415614ab1576002830154614aa7908363ffffffff61301f16565b60028401556112ab565b60028301548354614ac79163ffffffff61301f16565b835560038301805460018501556002909301919091559055565b8054611baf576040805162461bcd60e51b815260206004820152601c60248201527f45786368616e676552617465547261636b65722f6e6f742d696e697400000000604482015290519081900360640190fd5b6000813f7fc5d2460186f7233c927e7db2dcc703c0e500b653ca82273b7bfad8045d85a4708115801590611af25750141592915050565b8083600301541415614bdf578260020154821115614bca576040805162461bcd60e51b815260206004820152601760248201527629b1b432b23ab632b22130b630b731b297b4b739bab33360491b604482015290519081900360640190fd5b6002830154614aa7908363ffffffff614c2c16565b81156112ab576040805162461bcd60e51b815260206004820152601760248201527629b1b432b23ab632b22130b630b731b297b4b739bab33360491b604482015290519081900360640190fd5b600061258383836040518060400160405280601e81526020017f536166654d6174683a207375627472616374696f6e206f766572666c6f770000815250613b3c565b828054600181600116156101000203166002900490600052602060002090601f016020900481019282601f10614caf57805160ff1916838001178555614cdc565b82800160010185558215614cdc579182015b82811115614cdc578251825591602001919060010190614cc1565b50614ce8929150614d8c565b5090565b828054828255906000526020600020908101928215614d41579160200282015b82811115614d4157825182546001600160a01b0319166001600160a01b03909116178255602090920191600190910190614d0c565b50614ce8929150614da6565b6040518060200160405280600081525090565b8154818355818111156112ab576002028160020283600052602060002091820191016112ab9190614dca565b61131091905b80821115614ce85760008155600101614d92565b61131091905b80821115614ce85780546001600160a01b0319168155600101614dac565b61131091905b80821115614ce85760008082556001820155600201614dd056fe4552433737373a2073656e642066726f6d20746865207a65726f20616464726573734552433737373a207472616e7366657220616d6f756e7420657863656564732062616c616e63654552433737373a206275726e2066726f6d20746865207a65726f20616464726573734552433737373a20617574686f72697a696e672073656c66206173206f70657261746f724552433737373a207265766f6b696e672073656c66206173206f70657261746f724552433737373a20746f6b656e20726563697069656e7420636f6e747261637420686173206e6f20696d706c656d656e74657220666f7220455243373737546f6b656e73526563697069656e74436f6e747261637420696e7374616e63652068617320616c7265616479206265656e20696e697469616c697a65644552433737373a207472616e7366657220746f20746865207a65726f20616464726573734552433737373a2063616c6c6572206973206e6f7420616e206f70657261746f7220666f7220686f6c6465724552433737373a207472616e7366657220616d6f756e74206578636565647320616c6c6f77616e63654552433737373a207472616e736665722066726f6d20746865207a65726f20616464726573734552433737373a206275726e20616d6f756e7420657863656564732062616c616e63654552433737373a20617070726f766520746f20746865207a65726f2061646472657373a265627a7a723158202eb7e62539124afcc3bc6b19c5d547a74480f05d42af5b2bd7c4e504fef6a85c64736f6c634300050c0032",
  "compiler": {
    "name": "solc",
    "version": "0.5.12+commit.7709ece9.Emscripten.clang",
    "optimizer": {
      "enabled": true,
      "runs": 200
    },
    "evmVersion": "petersburg"
  }
}