{
  "fileName": "PoolMock.sol",
  "contractName": "PoolMock",
  "source": "pragma solidity ^0.5.0;\n\nimport \"@pooltogether/pooltogether-contracts/contracts/MCDAwarePool.sol\";\n\ncontract PoolMock is MCDAwarePool {}\n",
  "sourcePath": "contracts/PoolMock.sol",
  "abi": [
    {
      "anonymous": false,
      "inputs": [
        {
          "indexed": true,
          "internalType": "address",
          "name": "admin",
          "type": "address"
        }
      ],
      "name": "AdminAdded",
      "type": "event"
    },
    {
      "anonymous": false,
      "inputs": [
        {
          "indexed": true,
          "internalType": "address",
          "name": "admin",
          "type": "address"
        }
      ],
      "name": "AdminRemoved",
      "type": "event"
    },
    {
      "anonymous": false,
      "inputs": [
        {
          "indexed": true,
          "internalType": "uint256",
          "name": "drawId",
          "type": "uint256"
        }
      ],
      "name": "Committed",
      "type": "event"
    },
    {
      "anonymous": false,
      "inputs": [
        {
          "indexed": true,
          "internalType": "address",
          "name": "sender",
          "type": "address"
        },
        {
          "indexed": false,
          "internalType": "uint256",
          "name": "amount",
          "type": "uint256"
        }
      ],
      "name": "CommittedDepositWithdrawn",
      "type": "event"
    },
    {
      "anonymous": false,
      "inputs": [
        {
          "indexed": true,
          "internalType": "address",
          "name": "sender",
          "type": "address"
        },
        {
          "indexed": false,
          "internalType": "uint256",
          "name": "amount",
          "type": "uint256"
        }
      ],
      "name": "Deposited",
      "type": "event"
    },
    {
      "anonymous": false,
      "inputs": [
        {
          "indexed": true,
          "internalType": "address",
          "name": "sender",
          "type": "address"
        },
        {
          "indexed": false,
          "internalType": "uint256",
          "name": "amount",
          "type": "uint256"
        }
      ],
      "name": "DepositedAndCommitted",
      "type": "event"
    },
    {
      "anonymous": false,
      "inputs": [
        {
          "indexed": true,
          "internalType": "address",
          "name": "sender",
          "type": "address"
        }
      ],
      "name": "DepositsPaused",
      "type": "event"
    },
    {
      "anonymous": false,
      "inputs": [
        {
          "indexed": true,
          "internalType": "address",
          "name": "sender",
          "type": "address"
        }
      ],
      "name": "DepositsUnpaused",
      "type": "event"
    },
    {
      "anonymous": false,
      "inputs": [
        {
          "indexed": true,
          "internalType": "address",
          "name": "sender",
          "type": "address"
        },
        {
          "indexed": false,
          "internalType": "uint256",
          "name": "amount",
          "type": "uint256"
        },
        {
          "indexed": false,
          "internalType": "uint256",
          "name": "drawId",
          "type": "uint256"
        }
      ],
      "name": "FeeCollected",
      "type": "event"
    },
    {
      "anonymous": false,
      "inputs": [
        {
          "indexed": true,
          "internalType": "address",
          "name": "feeBeneficiary",
          "type": "address"
        }
      ],
      "name": "NextFeeBeneficiaryChanged",
      "type": "event"
    },
    {
      "anonymous": false,
      "inputs": [
        {
          "indexed": false,
          "internalType": "uint256",
          "name": "feeFraction",
          "type": "uint256"
        }
      ],
      "name": "NextFeeFractionChanged",
      "type": "event"
    },
    {
      "anonymous": false,
      "inputs": [
        {
          "indexed": true,
          "internalType": "address",
          "name": "sender",
          "type": "address"
        },
        {
          "indexed": false,
          "internalType": "uint256",
          "name": "amount",
          "type": "uint256"
        }
      ],
      "name": "OpenDepositWithdrawn",
      "type": "event"
    },
    {
      "anonymous": false,
      "inputs": [
        {
          "indexed": true,
          "internalType": "uint256",
          "name": "drawId",
          "type": "uint256"
        },
        {
          "indexed": true,
          "internalType": "address",
          "name": "feeBeneficiary",
          "type": "address"
        },
        {
          "indexed": false,
          "internalType": "bytes32",
          "name": "secretHash",
          "type": "bytes32"
        },
        {
          "indexed": false,
          "internalType": "uint256",
          "name": "feeFraction",
          "type": "uint256"
        }
      ],
      "name": "Opened",
      "type": "event"
    },
    {
      "anonymous": false,
      "inputs": [
        {
          "indexed": true,
          "internalType": "uint256",
          "name": "drawId",
          "type": "uint256"
        },
        {
          "indexed": true,
          "internalType": "address",
          "name": "winner",
          "type": "address"
        },
        {
          "indexed": true,
          "internalType": "address",
          "name": "impl",
          "type": "address"
        }
      ],
      "name": "RewardListenerFailed",
      "type": "event"
    },
    {
      "anonymous": false,
      "inputs": [
        {
          "indexed": true,
          "internalType": "uint256",
          "name": "drawId",
          "type": "uint256"
        },
        {
          "indexed": true,
          "internalType": "address",
          "name": "winner",
          "type": "address"
        },
        {
          "indexed": false,
          "internalType": "bytes32",
          "name": "entropy",
          "type": "bytes32"
        },
        {
          "indexed": false,
          "internalType": "uint256",
          "name": "winnings",
          "type": "uint256"
        },
        {
          "indexed": false,
          "internalType": "uint256",
          "name": "fee",
          "type": "uint256"
        }
      ],
      "name": "Rewarded",
      "type": "event"
    },
    {
      "anonymous": false,
      "inputs": [
        {
          "indexed": true,
          "internalType": "uint256",
          "name": "drawId",
          "type": "uint256"
        }
      ],
      "name": "RolledOver",
      "type": "event"
    },
    {
      "anonymous": false,
      "inputs": [
        {
          "indexed": true,
          "internalType": "address",
          "name": "sender",
          "type": "address"
        },
        {
          "indexed": false,
          "internalType": "uint256",
          "name": "amount",
          "type": "uint256"
        }
      ],
      "name": "SponsorshipAndFeesWithdrawn",
      "type": "event"
    },
    {
      "anonymous": false,
      "inputs": [
        {
          "indexed": true,
          "internalType": "address",
          "name": "sender",
          "type": "address"
        },
        {
          "indexed": false,
          "internalType": "uint256",
          "name": "amount",
          "type": "uint256"
        }
      ],
      "name": "SponsorshipDeposited",
      "type": "event"
    },
    {
      "anonymous": false,
      "inputs": [
        {
          "indexed": true,
          "internalType": "address",
          "name": "sender",
          "type": "address"
        },
        {
          "indexed": false,
          "internalType": "uint256",
          "name": "amount",
          "type": "uint256"
        }
      ],
      "name": "Withdrawn",
      "type": "event"
    },
    {
      "constant": true,
      "inputs": [],
      "name": "accountedBalance",
      "outputs": [
        {
          "internalType": "uint256",
          "name": "",
          "type": "uint256"
        }
      ],
      "payable": false,
      "stateMutability": "view",
      "type": "function"
    },
    {
      "constant": false,
      "inputs": [
        {
          "internalType": "address",
          "name": "_admin",
          "type": "address"
        }
      ],
      "name": "addAdmin",
      "outputs": [],
      "payable": false,
      "stateMutability": "nonpayable",
      "type": "function"
    },
    {
      "constant": false,
      "inputs": [],
      "name": "balance",
      "outputs": [
        {
          "internalType": "uint256",
          "name": "",
          "type": "uint256"
        }
      ],
      "payable": false,
      "stateMutability": "nonpayable",
      "type": "function"
    },
    {
      "constant": true,
      "inputs": [
        {
          "internalType": "address",
          "name": "_addr",
          "type": "address"
        }
      ],
      "name": "balanceOf",
      "outputs": [
        {
          "internalType": "uint256",
          "name": "",
          "type": "uint256"
        }
      ],
      "payable": false,
      "stateMutability": "view",
      "type": "function"
    },
    {
      "constant": true,
      "inputs": [],
      "name": "cToken",
      "outputs": [
        {
          "internalType": "contract ICErc20",
          "name": "",
          "type": "address"
        }
      ],
      "payable": false,
      "stateMutability": "view",
      "type": "function"
    },
    {
      "constant": true,
      "inputs": [
        {
          "internalType": "bytes32",
          "name": "_entropy",
          "type": "bytes32"
        }
      ],
      "name": "calculateWinner",
      "outputs": [
        {
          "internalType": "address",
          "name": "",
          "type": "address"
        }
      ],
      "payable": false,
      "stateMutability": "view",
      "type": "function"
    },
    {
      "constant": true,
      "inputs": [],
      "name": "canLock",
      "outputs": [
        {
          "internalType": "bool",
          "name": "",
          "type": "bool"
        }
      ],
      "payable": false,
      "stateMutability": "view",
      "type": "function"
    },
    {
      "constant": true,
      "inputs": [
        {
          "internalType": "address",
          "name": "_addr",
          "type": "address"
        }
      ],
      "name": "committedBalanceOf",
      "outputs": [
        {
          "internalType": "uint256",
          "name": "",
          "type": "uint256"
        }
      ],
      "payable": false,
      "stateMutability": "view",
      "type": "function"
    },
    {
      "constant": true,
      "inputs": [],
      "name": "committedSupply",
      "outputs": [
        {
          "internalType": "uint256",
          "name": "",
          "type": "uint256"
        }
      ],
      "payable": false,
      "stateMutability": "view",
      "type": "function"
    },
    {
      "constant": true,
      "inputs": [],
      "name": "cooldownDuration",
      "outputs": [
        {
          "internalType": "uint256",
          "name": "",
          "type": "uint256"
        }
      ],
      "payable": false,
      "stateMutability": "view",
      "type": "function"
    },
    {
      "constant": true,
      "inputs": [],
      "name": "cooldownEndAt",
      "outputs": [
        {
          "internalType": "uint256",
          "name": "",
          "type": "uint256"
        }
      ],
      "payable": false,
      "stateMutability": "view",
      "type": "function"
    },
    {
      "constant": true,
      "inputs": [],
      "name": "currentCommittedDrawId",
      "outputs": [
        {
          "internalType": "uint256",
          "name": "",
          "type": "uint256"
        }
      ],
      "payable": false,
      "stateMutability": "view",
      "type": "function"
    },
    {
      "constant": true,
      "inputs": [],
      "name": "currentOpenDrawId",
      "outputs": [
        {
          "internalType": "uint256",
          "name": "",
          "type": "uint256"
        }
      ],
      "payable": false,
      "stateMutability": "view",
      "type": "function"
    },
    {
      "constant": false,
      "inputs": [],
      "name": "daiToken",
      "outputs": [
        {
          "internalType": "contract GemLike",
          "name": "",
          "type": "address"
        }
      ],
      "payable": false,
      "stateMutability": "nonpayable",
      "type": "function"
    },
    {
      "constant": false,
      "inputs": [
        {
          "internalType": "uint256",
          "name": "_amount",
          "type": "uint256"
        }
      ],
      "name": "depositPool",
      "outputs": [],
      "payable": false,
      "stateMutability": "nonpayable",
      "type": "function"
    },
    {
      "constant": false,
      "inputs": [
        {
          "internalType": "uint256",
          "name": "_amount",
          "type": "uint256"
        }
      ],
      "name": "depositSponsorship",
      "outputs": [],
      "payable": false,
      "stateMutability": "nonpayable",
      "type": "function"
    },
    {
      "constant": true,
      "inputs": [
        {
          "internalType": "uint256",
          "name": "_blocks",
          "type": "uint256"
        }
      ],
      "name": "estimatedInterestRate",
      "outputs": [
        {
          "internalType": "uint256",
          "name": "",
          "type": "uint256"
        }
      ],
      "payable": false,
      "stateMutability": "view",
      "type": "function"
    },
    {
      "constant": true,
      "inputs": [
        {
          "internalType": "uint256",
          "name": "_drawId",
          "type": "uint256"
        }
      ],
      "name": "getDraw",
      "outputs": [
        {
          "internalType": "uint256",
          "name": "feeFraction",
          "type": "uint256"
        },
        {
          "internalType": "address",
          "name": "feeBeneficiary",
          "type": "address"
        },
        {
          "internalType": "uint256",
          "name": "openedBlock",
          "type": "uint256"
        },
        {
          "internalType": "bytes32",
          "name": "secretHash",
          "type": "bytes32"
        },
        {
          "internalType": "bytes32",
          "name": "entropy",
          "type": "bytes32"
        },
        {
          "internalType": "address",
          "name": "winner",
          "type": "address"
        },
        {
          "internalType": "uint256",
          "name": "netWinnings",
          "type": "uint256"
        },
        {
          "internalType": "uint256",
          "name": "fee",
          "type": "uint256"
        }
      ],
      "payable": false,
      "stateMutability": "view",
      "type": "function"
    },
    {
      "constant": false,
      "inputs": [
        {
          "internalType": "address",
          "name": "_owner",
          "type": "address"
        },
        {
          "internalType": "address",
          "name": "_cToken",
          "type": "address"
        },
        {
          "internalType": "uint256",
          "name": "_feeFraction",
          "type": "uint256"
        },
        {
          "internalType": "address",
          "name": "_feeBeneficiary",
          "type": "address"
        },
        {
          "internalType": "uint256",
          "name": "lockDuration",
          "type": "uint256"
        },
        {
          "internalType": "uint256",
          "name": "cooldownDuration",
          "type": "uint256"
        }
      ],
      "name": "init",
      "outputs": [],
      "payable": false,
      "stateMutability": "nonpayable",
      "type": "function"
    },
    {
      "constant": false,
      "inputs": [
        {
          "internalType": "uint256",
          "name": "lockDuration",
          "type": "uint256"
        },
        {
          "internalType": "uint256",
          "name": "cooldownDuration",
          "type": "uint256"
        }
      ],
      "name": "initMCDAwarePool",
      "outputs": [],
      "payable": false,
      "stateMutability": "nonpayable",
      "type": "function"
    },
    {
      "constant": false,
      "inputs": [
        {
          "internalType": "contract ScdMcdMigration",
          "name": "_scdMcdMigration",
          "type": "address"
        },
        {
          "internalType": "contract MCDAwarePool",
          "name": "_saiPool",
          "type": "address"
        }
      ],
      "name": "initMigration",
      "outputs": [],
      "payable": false,
      "stateMutability": "nonpayable",
      "type": "function"
    },
    {
      "constant": false,
      "inputs": [],
      "name": "initialize",
      "outputs": [],
      "payable": false,
      "stateMutability": "nonpayable",
      "type": "function"
    },
    {
      "constant": true,
      "inputs": [
        {
          "internalType": "address",
          "name": "_admin",
          "type": "address"
        }
      ],
      "name": "isAdmin",
      "outputs": [
        {
          "internalType": "bool",
          "name": "",
          "type": "bool"
        }
      ],
      "payable": false,
      "stateMutability": "view",
      "type": "function"
    },
    {
      "constant": true,
      "inputs": [],
      "name": "isLocked",
      "outputs": [
        {
          "internalType": "bool",
          "name": "",
          "type": "bool"
        }
      ],
      "payable": false,
      "stateMutability": "view",
      "type": "function"
    },
    {
      "constant": true,
      "inputs": [],
      "name": "lockDuration",
      "outputs": [
        {
          "internalType": "uint256",
          "name": "",
          "type": "uint256"
        }
      ],
      "payable": false,
      "stateMutability": "view",
      "type": "function"
    },
    {
      "constant": true,
      "inputs": [],
      "name": "lockEndAt",
      "outputs": [
        {
          "internalType": "uint256",
          "name": "",
          "type": "uint256"
        }
      ],
      "payable": false,
      "stateMutability": "view",
      "type": "function"
    },
    {
      "constant": false,
      "inputs": [],
      "name": "lockTokens",
      "outputs": [],
      "payable": false,
      "stateMutability": "nonpayable",
      "type": "function"
    },
    {
      "constant": false,
      "inputs": [
        {
          "internalType": "address",
          "name": "_from",
          "type": "address"
        },
        {
          "internalType": "address",
          "name": "_to",
          "type": "address"
        },
        {
          "internalType": "uint256",
          "name": "_amount",
          "type": "uint256"
        }
      ],
      "name": "moveCommitted",
      "outputs": [
        {
          "internalType": "bool",
          "name": "",
          "type": "bool"
        }
      ],
      "payable": false,
      "stateMutability": "nonpayable",
      "type": "function"
    },
    {
      "constant": true,
      "inputs": [],
      "name": "nextFeeBeneficiary",
      "outputs": [
        {
          "internalType": "address",
          "name": "",
          "type": "address"
        }
      ],
      "payable": false,
      "stateMutability": "view",
      "type": "function"
    },
    {
      "constant": true,
      "inputs": [],
      "name": "nextFeeFraction",
      "outputs": [
        {
          "internalType": "uint256",
          "name": "",
          "type": "uint256"
        }
      ],
      "payable": false,
      "stateMutability": "view",
      "type": "function"
    },
    {
      "constant": true,
      "inputs": [
        {
          "internalType": "address",
          "name": "_addr",
          "type": "address"
        }
      ],
      "name": "openBalanceOf",
      "outputs": [
        {
          "internalType": "uint256",
          "name": "",
          "type": "uint256"
        }
      ],
      "payable": false,
      "stateMutability": "view",
      "type": "function"
    },
    {
      "constant": false,
      "inputs": [
        {
          "internalType": "bytes32",
          "name": "nextSecretHash",
          "type": "bytes32"
        }
      ],
      "name": "openNextDraw",
      "outputs": [],
      "payable": false,
      "stateMutability": "nonpayable",
      "type": "function"
    },
    {
      "constant": true,
      "inputs": [],
      "name": "openSupply",
      "outputs": [
        {
          "internalType": "uint256",
          "name": "",
          "type": "uint256"
        }
      ],
      "payable": false,
      "stateMutability": "view",
      "type": "function"
    },
    {
      "constant": false,
      "inputs": [],
      "name": "pauseDeposits",
      "outputs": [],
      "payable": false,
      "stateMutability": "nonpayable",
      "type": "function"
    },
    {
      "constant": true,
      "inputs": [],
      "name": "paused",
      "outputs": [
        {
          "internalType": "bool",
          "name": "",
          "type": "bool"
        }
      ],
      "payable": false,
      "stateMutability": "view",
      "type": "function"
    },
    {
      "constant": true,
      "inputs": [],
      "name": "poolToken",
      "outputs": [
        {
          "internalType": "contract PoolToken",
          "name": "",
          "type": "address"
        }
      ],
      "payable": false,
      "stateMutability": "view",
      "type": "function"
    },
    {
      "constant": false,
      "inputs": [
        {
          "internalType": "address",
          "name": "_admin",
          "type": "address"
        }
      ],
      "name": "removeAdmin",
      "outputs": [],
      "payable": false,
      "stateMutability": "nonpayable",
      "type": "function"
    },
    {
      "constant": false,
      "inputs": [
        {
          "internalType": "bytes32",
          "name": "_secret",
          "type": "bytes32"
        },
        {
          "internalType": "bytes32",
          "name": "_salt",
          "type": "bytes32"
        }
      ],
      "name": "reward",
      "outputs": [],
      "payable": false,
      "stateMutability": "nonpayable",
      "type": "function"
    },
    {
      "constant": false,
      "inputs": [
        {
          "internalType": "bytes32",
          "name": "nextSecretHash",
          "type": "bytes32"
        },
        {
          "internalType": "bytes32",
          "name": "lastSecret",
          "type": "bytes32"
        },
        {
          "internalType": "bytes32",
          "name": "_salt",
          "type": "bytes32"
        }
      ],
      "name": "rewardAndOpenNextDraw",
      "outputs": [],
      "payable": false,
      "stateMutability": "nonpayable",
      "type": "function"
    },
    {
      "constant": false,
      "inputs": [],
      "name": "rollover",
      "outputs": [],
      "payable": false,
      "stateMutability": "nonpayable",
      "type": "function"
    },
    {
      "constant": false,
      "inputs": [
        {
          "internalType": "bytes32",
          "name": "nextSecretHash",
          "type": "bytes32"
        }
      ],
      "name": "rolloverAndOpenNextDraw",
      "outputs": [],
      "payable": false,
      "stateMutability": "nonpayable",
      "type": "function"
    },
    {
      "constant": true,
      "inputs": [],
      "name": "saiPool",
      "outputs": [
        {
          "internalType": "contract MCDAwarePool",
          "name": "",
          "type": "address"
        }
      ],
      "payable": false,
      "stateMutability": "view",
      "type": "function"
    },
    {
      "constant": false,
      "inputs": [],
      "name": "saiToken",
      "outputs": [
        {
          "internalType": "contract GemLike",
          "name": "",
          "type": "address"
        }
      ],
      "payable": false,
      "stateMutability": "nonpayable",
      "type": "function"
    },
    {
      "constant": true,
      "inputs": [],
      "name": "scdMcdMigration",
      "outputs": [
        {
          "internalType": "contract ScdMcdMigration",
          "name": "",
          "type": "address"
        }
      ],
      "payable": false,
      "stateMutability": "view",
      "type": "function"
    },
    {
      "constant": false,
      "inputs": [
        {
          "internalType": "address",
          "name": "_feeBeneficiary",
          "type": "address"
        }
      ],
      "name": "setNextFeeBeneficiary",
      "outputs": [],
      "payable": false,
      "stateMutability": "nonpayable",
      "type": "function"
    },
    {
      "constant": false,
      "inputs": [
        {
          "internalType": "uint256",
          "name": "_feeFraction",
          "type": "uint256"
        }
      ],
      "name": "setNextFeeFraction",
      "outputs": [],
      "payable": false,
      "stateMutability": "nonpayable",
      "type": "function"
    },
    {
      "constant": false,
      "inputs": [
        {
          "internalType": "contract PoolToken",
          "name": "_poolToken",
          "type": "address"
        }
      ],
      "name": "setPoolToken",
      "outputs": [],
      "payable": false,
      "stateMutability": "nonpayable",
      "type": "function"
    },
    {
      "constant": true,
      "inputs": [
        {
          "internalType": "address",
          "name": "_sender",
          "type": "address"
        }
      ],
      "name": "sponsorshipAndFeeBalanceOf",
      "outputs": [
        {
          "internalType": "uint256",
          "name": "",
          "type": "uint256"
        }
      ],
      "payable": false,
      "stateMutability": "view",
      "type": "function"
    },
    {
      "constant": true,
      "inputs": [],
      "name": "supplyRatePerBlock",
      "outputs": [
        {
          "internalType": "uint256",
          "name": "",
          "type": "uint256"
        }
      ],
      "payable": false,
      "stateMutability": "view",
      "type": "function"
    },
    {
      "constant": true,
      "inputs": [],
      "name": "token",
      "outputs": [
        {
          "internalType": "contract IERC20",
          "name": "",
          "type": "address"
        }
      ],
      "payable": false,
      "stateMutability": "view",
      "type": "function"
    },
    {
      "constant": false,
      "inputs": [
        {
          "internalType": "address",
          "name": "",
          "type": "address"
        },
        {
          "internalType": "address",
          "name": "from",
          "type": "address"
        },
        {
          "internalType": "address",
          "name": "",
          "type": "address"
        },
        {
          "internalType": "uint256",
          "name": "amount",
          "type": "uint256"
        },
        {
          "internalType": "bytes",
          "name": "",
          "type": "bytes"
        },
        {
          "internalType": "bytes",
          "name": "",
          "type": "bytes"
        }
      ],
      "name": "tokensReceived",
      "outputs": [],
      "payable": false,
      "stateMutability": "nonpayable",
      "type": "function"
    },
    {
      "constant": true,
      "inputs": [
        {
          "internalType": "address",
          "name": "_addr",
          "type": "address"
        }
      ],
      "name": "totalBalanceOf",
      "outputs": [
        {
          "internalType": "uint256",
          "name": "",
          "type": "uint256"
        }
      ],
      "payable": false,
      "stateMutability": "view",
      "type": "function"
    },
    {
      "constant": false,
      "inputs": [],
      "name": "transferBalanceToSponsorship",
      "outputs": [],
      "payable": false,
      "stateMutability": "nonpayable",
      "type": "function"
    },
    {
      "constant": false,
      "inputs": [],
      "name": "unlockTokens",
      "outputs": [],
      "payable": false,
      "stateMutability": "nonpayable",
      "type": "function"
    },
    {
      "constant": false,
      "inputs": [],
      "name": "unpauseDeposits",
      "outputs": [],
      "payable": false,
      "stateMutability": "nonpayable",
      "type": "function"
    },
    {
      "constant": false,
      "inputs": [],
      "name": "withdraw",
      "outputs": [],
      "payable": false,
      "stateMutability": "nonpayable",
      "type": "function"
    },
    {
      "constant": false,
      "inputs": [
        {
          "internalType": "uint256",
          "name": "_amount",
          "type": "uint256"
        }
      ],
      "name": "withdrawCommittedDeposit",
      "outputs": [
        {
          "internalType": "bool",
          "name": "",
          "type": "bool"
        }
      ],
      "payable": false,
      "stateMutability": "nonpayable",
      "type": "function"
    },
    {
      "constant": false,
      "inputs": [
        {
          "internalType": "address",
          "name": "_from",
          "type": "address"
        },
        {
          "internalType": "uint256",
          "name": "_amount",
          "type": "uint256"
        }
      ],
      "name": "withdrawCommittedDepositFrom",
      "outputs": [
        {
          "internalType": "bool",
          "name": "",
          "type": "bool"
        }
      ],
      "payable": false,
      "stateMutability": "nonpayable",
      "type": "function"
    },
    {
      "constant": false,
      "inputs": [
        {
          "internalType": "uint256",
          "name": "_amount",
          "type": "uint256"
        }
      ],
      "name": "withdrawOpenDeposit",
      "outputs": [],
      "payable": false,
      "stateMutability": "nonpayable",
      "type": "function"
    },
    {
      "constant": false,
      "inputs": [
        {
          "internalType": "uint256",
          "name": "_amount",
          "type": "uint256"
        }
      ],
      "name": "withdrawSponsorshipAndFee",
      "outputs": [],
      "payable": false,
      "stateMutability": "nonpayable",
      "type": "function"
    }
  ],
  "bytecode": "0x608060405234801561001057600080fd5b50614bb2806100206000396000f3fe608060405234801561001057600080fd5b50600436106103a35760003560e01c806377bbb757116101e9578063ac2defea1161010f578063cbdf382c116100ad578063f27413ca1161007c578063f27413ca146109c3578063f968f493146109cb578063fc0c546a146109d3578063fe8e1901146109db576103a3565b8063cbdf382c14610988578063cfb5105214610990578063d9b6ccbf146109b3578063e8f099f4146109bb576103a3565b8063b69ef8a8116100e9578063b69ef8a8146108ec578063be22f546146108f4578063be6307c8146108fc578063c1ebb4ac1461096b576103a3565b8063ac2defea146108bf578063ae9d70b0146108dc578063b056b49a146108e4576103a3565b806395cad80d11610187578063a3aac0e211610156578063a3aac0e214610824578063a423cd2914610841578063a4e2d6341461086d578063a691210014610875576103a3565b806395cad80d146107d65780639ad8bd78146107de5780639e63a8c5146107e6578063a30184de1461081c576103a3565b80638129fc1c116101c35780638129fc1c14610780578063815d85d214610788578063944b1479146107b15780639512cb22146107ce576103a3565b806377bbb7571461075b57806379f08771146107355780637f77fc4d14610778576103a3565b80633c4be957116102ce578063501934851161026c57806369e527da1161023b57806369e527da146106e35780636cbb721f14610707578063704802751461070f57806370a0823114610735576103a3565b80635019348514610687578063569afbc8146106ad5780635c975abb146106d357806363d8882a146106db576103a3565b8063426d58e5116102a8578063426d58e51461061f578063435edacd1461063c57806347800068146106595780634b0ee02a14610661576103a3565b80633c4be957146105d45780633ccfd60b146105f15780633d3d6a1a146105f9576103a3565b80631785f53c1161034657806333ce01fd1161031557806333ce01fd146105705780633526931514610596578063391cc9551461059e5780633c10e560146105cc576103a3565b80631785f53c146104eb578063234409441461051157806324d7806c1461052e578063304c967014610568576103a3565b80630937eb54116103825780630937eb54146104b65780630a56293d146104be5780630ea0ffc4146104c657806314f74b8c146104e3576103a3565b806223de29146103a85780630219198014610494578063045544431461049c575b600080fd5b610492600480360360c08110156103be57600080fd5b6001600160a01b03823581169260208101358216926040820135909216916060820135919081019060a08101608082013564010000000081111561040157600080fd5b82018360208201111561041357600080fd5b8035906020019184600183028401116401000000008311171561043557600080fd5b91939092909160208101903564010000000081111561045357600080fd5b82018360208201111561046557600080fd5b8035906020019184600183028401116401000000008311171561048757600080fd5b5090925090506109fe565b005b610492610c8d565b6104a4610d5e565b60408051918252519081900360200190f35b6104a4610d65565b610492610d6b565b610492600480360360208110156104dc57600080fd5b5035610e2c565b6104a4610ee6565b6104926004803603602081101561050157600080fd5b50356001600160a01b0316610eec565b6104926004803603602081101561052757600080fd5b5035611026565b6105546004803603602081101561054457600080fd5b50356001600160a01b03166111f0565b604080519115158252519081900360200190f35b6104a461120b565b6104926004803603602081101561058657600080fd5b50356001600160a01b0316611211565b6104a4611395565b610492600480360360408110156105b457600080fd5b506001600160a01b038135811691602001351661139b565b6104a46113f4565b610492600480360360208110156105ea57600080fd5b5035611405565b61049261149f565b6104926004803603602081101561060f57600080fd5b50356001600160a01b031661178f565b6104926004803603602081101561063557600080fd5b50356117e7565b6105546004803603602081101561065257600080fd5b503561190f565b6104a4611a66565b6104a46004803603602081101561067757600080fd5b50356001600160a01b0316611aeb565b6104a46004803603602081101561069d57600080fd5b50356001600160a01b0316611b06565b6104a4600480360360208110156106c357600080fd5b50356001600160a01b0316611b9d565b610554611c56565b610492611c5f565b6106eb611d30565b604080516001600160a01b039092168252519081900360200190f35b610554611d3f565b6104926004803603602081101561072557600080fd5b50356001600160a01b0316611d9b565b6104a46004803603602081101561074b57600080fd5b50356001600160a01b0316611df3565b6104a46004803603602081101561077157600080fd5b5035611e58565b6104a4611e72565b610492611e97565b6104926004803603606081101561079e57600080fd5b5080359060208101359060400135611f3d565b610492600480360360208110156107c757600080fd5b5035611fa4565b6104a4611ffc565b610492612008565b6106eb6120e4565b610554600480360360608110156107fc57600080fd5b506001600160a01b038135811691602081013590911690604001356120f3565b6106eb61249d565b6104926004803603602081101561083a57600080fd5b5035612566565b6105546004803603604081101561085757600080fd5b506001600160a01b0381351690602001356125c6565b6105546126f0565b610492600480360360c081101561088b57600080fd5b506001600160a01b038135811691602081013582169160408201359160608101359091169060808101359060a0013561274b565b6106eb600480360360208110156108d557600080fd5b5035612813565b6104a461286f565b6104926128c8565b6104a4612a42565b6106eb612a8e565b6109196004803603602081101561091257600080fd5b5035612b43565b604080519889526001600160a01b0397881660208a0152888101969096526060880194909452608087019290925290931660a085015260c084019290925260e083019190915251908190036101000190f35b6104926004803603602081101561098157600080fd5b5035612b93565b6106eb612c5b565b610492600480360360408110156109a657600080fd5b5080359060200135612c6a565b6106eb613224565b6104a4613233565b6106eb613287565b610492613296565b6106eb61333d565b610492600480360360408110156109f157600080fd5b5080359060200135613382565b60735460ff1615610a46576040805162461bcd60e51b815260206004820152600d60248201526c141bdbdb0bd90b5c185d5cd959609a1b604482015290519081900360640190fd5b610a4e61339b565b6001600160a01b0316336001600160a01b031614610aa3576040805162461bcd60e51b815260206004820152600d60248201526c506f6f6c2f7361692d6f6e6c7960981b604482015290519081900360640190fd5b610aab612a8e565b6001600160a01b0316610abc61333d565b6001600160a01b031614610b06576040805162461bcd60e51b815260206004820152600c60248201526b506f6f6c2f6e6f742d64616960a01b604482015290519081900360640190fd5b610b0e61339b565b6001600160a01b031663e77c646d866040518263ffffffff1660e01b8152600401808281526020018060200182810382526000815260200160200192505050600060405180830381600087803b158015610b6757600080fd5b505af1158015610b7b573d6000803e3d6000fd5b50505050610b8761249d565b6079546040805163095ea7b360e01b81526001600160a01b039283166004820152602481018990529051929091169163095ea7b39160448082019260009290919082900301818387803b158015610bdd57600080fd5b505af1158015610bf1573d6000803e3d6000fd5b50506079546040805163fbabdebd60e01b8152600481018a905290516001600160a01b03909216935063fbabdebd925060248082019260009290919082900301818387803b158015610c4257600080fd5b505af1158015610c56573d6000803e3d6000fd5b505050506000610c64611e72565b1115610c7957610c748786613430565b610c83565b610c8387866135c0565b5050505050505050565b60735460ff1615610cd5576040805162461bcd60e51b815260206004820152600d60248201526c141bdbdb0bd90b5c185d5cd959609a1b604482015290519081900360640190fd5b610ce660723363ffffffff61368d16565b610d24576040805162461bcd60e51b815260206004820152600a6024820152692837b7b617b0b236b4b760b11b604482015290519081900360640190fd5b6073805460ff1916600117905560405133907feb225a736fbfee3f85ccb72bdf84ff0396ab358b7970e2cc351ab3e3fd92358d90600090a2565b6076545b90565b60695481565b610d7c60723363ffffffff61368d16565b610dba576040805162461bcd60e51b815260206004820152600a6024820152692837b7b617b0b236b4b760b11b604482015290519081900360640190fd5b60408051633e825e6d60e01b815260746004820152436024820152905173__Blocklock_____________________________91633e825e6d916044808301926000929190829003018186803b158015610e1257600080fd5b505af4158015610e26573d6000803e3d6000fd5b50505050565b604080516383e8aad560e01b8152606c600482015233602482015260448101839052905173__DrawManager___________________________916383e8aad5916064808301926000929190829003018186803b158015610e8b57600080fd5b505af4158015610e9f573d6000803e3d6000fd5b50505050610ead33826136f4565b60408051828152905133917f377533556d4ebd6be8b81e3573fd7e7bf70feb8737df314e8e7953cbb395f004919081900360200190a250565b60685481565b610efd60723363ffffffff61368d16565b610f3b576040805162461bcd60e51b815260206004820152600a6024820152692837b7b617b0b236b4b760b11b604482015290519081900360640190fd5b610f4c60728263ffffffff61368d16565b610f8d576040805162461bcd60e51b815260206004820152600d60248201526c2837b7b617b73796b0b236b4b760991b604482015290519081900360640190fd5b6001600160a01b038116331415610fde576040805162461bcd60e51b815260206004820152601060248201526f2837b7b617b932b6b7bb3296b9b2b63360811b604482015290519081900360640190fd5b610fef60728263ffffffff61391f16565b6040516001600160a01b038216907fa3b62bc36326052d97ea62d63c3d60308ed4c3ea8ac079dd8499f1e9c4f80c0f90600090a250565b61102e61120b565b61106e576040805162461bcd60e51b815260206004820152600c60248201526b2837b7b617b73796b7b832b760a11b604482015290519081900360640190fd5b60735460ff16156110b6576040805162461bcd60e51b815260206004820152600d60248201526c141bdbdb0bd90b5c185d5cd959609a1b604482015290519081900360640190fd5b60338054600101908190556110c961333d565b604080516323b872dd60e01b81523360048201523060248201526044810185905290516001600160a01b0392909216916323b872dd916064808201926020929091908290030181600087803b15801561112157600080fd5b505af1158015611135573d6000803e3d6000fd5b505050506040513d602081101561114b57600080fd5b505161118c576040805162461bcd60e51b815260206004820152600b60248201526a141bdbdb0bdd0b59985a5b60aa1b604482015290519081900360640190fd5b61119633836135c0565b60335481146111ec576040805162461bcd60e51b815260206004820152601f60248201527f5265656e7472616e637947756172643a207265656e7472616e742063616c6c00604482015290519081900360640190fd5b5050565b600061120360728363ffffffff61368d16565b90505b919050565b60705490565b61122260723363ffffffff61368d16565b611260576040805162461bcd60e51b815260206004820152600a6024820152692837b7b617b0b236b4b760b11b604482015290519081900360640190fd5b6078546001600160a01b0316156112b3576040805162461bcd60e51b8152602060048201526012602482015271141bdbdb0bdd1bdad95b8b5dd85ccb5cd95d60721b604482015290519081900360640190fd5b306001600160a01b0316816001600160a01b03166316f0115b6040518163ffffffff1660e01b815260040160206040518083038186803b1580156112f657600080fd5b505afa15801561130a573d6000803e3d6000fd5b505050506040513d602081101561132057600080fd5b50516001600160a01b031614611373576040805162461bcd60e51b81526020600482015260136024820152720a0deded85ee8ded6cadc5adad2e6dac2e8c6d606b1b604482015290519081900360640190fd5b607880546001600160a01b0319166001600160a01b0392909216919091179055565b60775490565b6113ac60723363ffffffff61368d16565b6113ea576040805162461bcd60e51b815260206004820152600a6024820152692837b7b617b0b236b4b760b11b604482015290519081900360640190fd5b6111ec8282613986565b60006114006074613a48565b905090565b600061141033611b9d565b90508082111561145b576040805162461bcd60e51b8152602060048201526011602482015270506f6f6c2f657863656564732d7366656560781b604482015290519081900360640190fd5b61146533836136f4565b60408051838152905133917f6a4d2bc0b4e5453e814890ffd34fde45f1820118a5e3e08c8273e6befd8cc050919081900360200190a25050565b60338054600101908190556040805162dec4c960e41b815260746004820152436024820152905173__Blocklock_____________________________91630dec4c90916044808301926020929190829003018186803b15801561150157600080fd5b505af4158015611515573d6000803e3d6000fd5b505050506040513d602081101561152b57600080fd5b50511561156d576040805162461bcd60e51b815260206004820152600b60248201526a141bdbdb0bdb1bd8dad95960aa1b604482015290519081900360640190fd5b604080516311f43c3360e31b8152606c6004820152336024820152905160009173__DrawManager___________________________91638fa1e19891604480820192602092909190829003018186803b1580156115c957600080fd5b505af41580156115dd573d6000803e3d6000fd5b505050506040513d60208110156115f357600080fd5b5051336000818152606a6020526040808220548151631326e7a760e21b8152606c6004820152602481019490945290519394509273__DrawManager___________________________92634c9b9e9c926044808301939192829003018186803b15801561165f57600080fd5b505af4158015611673573d6000803e3d6000fd5b5050505061168133826136f4565b6078546001600160a01b0316156116fe57607854604080516314274ad960e01b81523360048201526024810185905290516001600160a01b03909216916314274ad99160448082019260009290919082900301818387803b1580156116e557600080fd5b505af11580156116f9573d6000803e3d6000fd5b505050505b60408051828152905133917f7084f5476618d8e60b11ef0d7d3f06914655adb8793e28ff7f018d4c76d505d5919081900360200190a25050603354811461178c576040805162461bcd60e51b815260206004820152601f60248201527f5265656e7472616e637947756172643a207265656e7472616e742063616c6c00604482015290519081900360640190fd5b50565b6117a060723363ffffffff61368d16565b6117de576040805162461bcd60e51b815260206004820152600a6024820152692837b7b617b0b236b4b760b11b604482015290519081900360640190fd5b61178c81613a8e565b60735460ff161561182f576040805162461bcd60e51b815260206004820152600d60248201526c141bdbdb0bd90b5c185d5cd959609a1b604482015290519081900360640190fd5b603380546001019081905561184261333d565b604080516323b872dd60e01b81523360048201523060248201526044810185905290516001600160a01b0392909216916323b872dd916064808201926020929091908290030181600087803b15801561189a57600080fd5b505af11580156118ae573d6000803e3d6000fd5b505050506040513d60208110156118c457600080fd5b5051611905576040805162461bcd60e51b815260206004820152600b60248201526a141bdbdb0bdd0b59985a5b60aa1b604482015290519081900360640190fd5b6111963383613b23565b6040805162dec4c960e41b815260746004820152436024820152905160009173__Blocklock_____________________________91630dec4c9091604480820192602092909190829003018186803b15801561196a57600080fd5b505af415801561197e573d6000803e3d6000fd5b505050506040513d602081101561199457600080fd5b5051156119d6576040805162461bcd60e51b815260206004820152600b60248201526a141bdbdb0bdb1bd8dad95960aa1b604482015290519081900360640190fd5b6119e03383613b70565b506078546001600160a01b031615611a5e57607854604080516314274ad960e01b81523360048201526024810185905290516001600160a01b03909216916314274ad99160448082019260009290919082900301818387803b158015611a4557600080fd5b505af1158015611a59573d6000803e3d6000fd5b505050505b506001919050565b6000606c73__DrawManager___________________________63ed21d6ea90916040518263ffffffff1660e01b81526004018082815260200191505060206040518083038186803b158015611aba57600080fd5b505af4158015611ace573d6000803e3d6000fd5b505050506040513d6020811015611ae457600080fd5b5051905090565b6001600160a01b03166000908152606a602052604090205490565b6040805163713b41f560e11b8152606c60048201526001600160a01b0383166024820152905160009173__DrawManager___________________________9163e27683ea91604480820192602092909190829003018186803b158015611b6b57600080fd5b505af4158015611b7f573d6000803e3d6000fd5b505050506040513d6020811015611b9557600080fd5b505192915050565b604080516305a094bf60e51b8152606c60048201526001600160a01b038316602482015290516000916112039173__DrawManager___________________________9163b41297e0916044808301926020929190829003018186803b158015611c0557600080fd5b505af4158015611c19573d6000803e3d6000fd5b505050506040513d6020811015611c2f57600080fd5b50516001600160a01b0384166000908152606a60205260409020549063ffffffff613c4516565b60735460ff1681565b60735460ff16611caa576040805162461bcd60e51b8152602060048201526011602482015270141bdbdb0bd90b5b9bdd0b5c185d5cd959607a1b604482015290519081900360640190fd5b611cbb60723363ffffffff61368d16565b611cf9576040805162461bcd60e51b815260206004820152600a6024820152692837b7b617b0b236b4b760b11b604482015290519081900360640190fd5b6073805460ff1916905560405133907fd92e31f504caf26579aa9a5860a669bf0ccf07c267baa65bc79bf3ee57cfa27c90600090a2565b6066546001600160a01b031681565b60408051631307db5360e11b815260746004820152436024820152905160009173__Blocklock_____________________________9163260fb6a691604480820192602092909190829003018186803b158015611aba57600080fd5b611dac60723363ffffffff61368d16565b611dea576040805162461bcd60e51b815260206004820152600a6024820152692837b7b617b0b236b4b760b11b604482015290519081900360640190fd5b61178c81613c87565b604080516311f43c3360e31b8152606c60048201526001600160a01b0383166024820152905160009173__DrawManager___________________________91638fa1e19891604480820192602092909190829003018186803b158015611b6b57600080fd5b600061120382611e6661286f565b9063ffffffff613ccf16565b60006001606c600401541115611e8f575060705460001901610d62565b506000610d62565b600054610100900460ff1680611eb05750611eb0613d28565b80611ebe575060005460ff16155b611ef95760405162461bcd60e51b815260040180806020018281038252602e815260200180614b50602e913960400191505060405180910390fd5b600054610100900460ff16158015611f24576000805460ff1961ff0019909116610100171660011790555b6001603355801561178c576000805461ff001916905550565b611f4e60723363ffffffff61368d16565b611f8c576040805162461bcd60e51b815260206004820152600a6024820152692837b7b617b0b236b4b760b11b604482015290519081900360640190fd5b611f968282612c6a565b611f9f83612b93565b505050565b611fb560723363ffffffff61368d16565b611ff3576040805162461bcd60e51b815260206004820152600a6024820152692837b7b617b0b236b4b760b11b604482015290519081900360640190fd5b61178c81613d2e565b60006114006074613db4565b60735460ff1615612050576040805162461bcd60e51b815260206004820152600d60248201526c141bdbdb0bd90b5c185d5cd959609a1b604482015290519081900360640190fd5b6120e23061205c61333d565b6001600160a01b03166370a08231306040518263ffffffff1660e01b815260040180826001600160a01b03166001600160a01b0316815260200191505060206040518083038186803b1580156120b157600080fd5b505afa1580156120c5573d6000803e3d6000fd5b505050506040513d60208110156120db57600080fd5b5051613b23565b565b6067546001600160a01b031681565b6078546000906001600160a01b03163314612147576040805162461bcd60e51b815260206004820152600f60248201526e2837b7b617b7b7363c96ba37b5b2b760891b604482015290519081900360640190fd5b604080516311f43c3360e31b8152606c60048201526001600160a01b038616602482015290518591849160009173__DrawManager___________________________91638fa1e19891604480820192602092909190829003018186803b1580156121b057600080fd5b505af41580156121c4573d6000803e3d6000fd5b505050506040513d60208110156121da57600080fd5b5051905080821115612226576040805162461bcd60e51b815260206004820152601060248201526f6e6f7420656e6f7567682066756e647360801b604482015290519081900360640190fd5b6040805162dec4c960e41b815260746004820152436024820152905173__Blocklock_____________________________91630dec4c90916044808301926020929190829003018186803b15801561227d57600080fd5b505af4158015612291573d6000803e3d6000fd5b505050506040513d60208110156122a757600080fd5b5051156122e9576040805162461bcd60e51b815260206004820152600b60248201526a141bdbdb0bdb1bd8dad95960aa1b604482015290519081900360640190fd5b604080518082018252601981527f6d6f766520636f756c64206e6f742073756220616d6f756e74000000000000006020808301919091526001600160a01b038a166000908152606a909152919091205461234a91879063ffffffff613dd316565b6001600160a01b038089166000908152606a6020526040808220939093559088168152205461237f908663ffffffff613e6a16565b6001600160a01b038088166000908152606a60205260408082209390935582516362559ecd60e11b8152606c6004820152918a16602483015260448201889052915173__DrawManager___________________________9263c4ab3d9a9260648082019391829003018186803b1580156123f857600080fd5b505af415801561240c573d6000803e3d6000fd5b5050604080516349ec2abb60e11b8152606c60048201526001600160a01b038a16602482015260448101899052905173__DrawManager___________________________93506393d8557692506064808301926000929190829003018186803b15801561247857600080fd5b505af415801561248c573d6000803e3d6000fd5b5060019a9950505050505050505050565b60795460408051630b14408f60e01b815290516000926001600160a01b031691630b14408f916004808301926020929190829003018186803b1580156124e257600080fd5b505afa1580156124f6573d6000803e3d6000fd5b505050506040513d602081101561250c57600080fd5b505160408051637bd2bea760e01b815290516001600160a01b0390921691637bd2bea7916004808201926020929091908290030181600087803b15801561255257600080fd5b505af1158015611ace573d6000803e3d6000fd5b61257760723363ffffffff61368d16565b6125b5576040805162461bcd60e51b815260206004820152600a6024820152692837b7b617b0b236b4b760b11b604482015290519081900360640190fd5b6125bd6128c8565b61178c81612b93565b6078546000906001600160a01b0316331461261a576040805162461bcd60e51b815260206004820152600f60248201526e2837b7b617b7b7363c96ba37b5b2b760891b604482015290519081900360640190fd5b6040805162dec4c960e41b815260746004820152436024820152905173__Blocklock_____________________________91630dec4c90916044808301926020929190829003018186803b15801561267157600080fd5b505af4158015612685573d6000803e3d6000fd5b505050506040513d602081101561269b57600080fd5b5051156126dd576040805162461bcd60e51b815260206004820152600b60248201526a141bdbdb0bdb1bd8dad95960aa1b604482015290519081900360640190fd5b6126e78383613b70565b90505b92915050565b6040805162dec4c960e41b815260746004820152436024820152905160009173__Blocklock_____________________________91630dec4c9091604480820192602092909190829003018186803b158015611aba57600080fd5b600054610100900460ff16806127645750612764613d28565b80612772575060005460ff16155b6127ad5760405162461bcd60e51b815260040180806020018281038252602e815260200180614b50602e913960400191505060405180910390fd5b600054610100900460ff161580156127d8576000805460ff1961ff0019909116610100171660011790555b6127e6878787878787613ec4565b6127ee614022565b6127f883836140b5565b801561280a576000805461ff00191690555b50505050505050565b6000606c73__DrawManager___________________________633484b6bb9091846040518363ffffffff1660e01b8152600401808381526020018281526020019250505060206040518083038186803b158015611b6b57600080fd5b60665460408051630ae9d70b60e41b815290516000926001600160a01b03169163ae9d70b0916004808301926020929190829003018186803b1580156128b457600080fd5b505afa158015611ace573d6000803e3d6000fd5b6128d960723363ffffffff61368d16565b612917576040805162461bcd60e51b815260206004820152600a6024820152692837b7b617b0b236b4b760b11b604482015290519081900360640190fd5b6000612921611e72565b11612964576040805162461bcd60e51b815260206004820152600e60248201526d141bdbdb0bd8dbdb5b5a5d1d195960921b604482015290519081900360640190fd5b61296c61419b565b156129ad576040805162461bcd60e51b815260206004820152600c60248201526b506f6f6c2f616c726561647960a01b604482015290519081900360640190fd5b60006129b7611e72565b6000818152606b60205260408082206001600482015590519293509183917f53d7daff7a7443f21eac131333ba8e4123eccaca1ca37c67665dca97f990f6f091a26040805160018152600060208201819052818301819052915184917f39d270b67baa0bff7a394d3427e52a85d706cae15e649754ec7b54f3c9deb3f0919081900360600190a35050565b60665460408051633af9e66960e01b815230600482015290516000926001600160a01b031691633af9e66991602480830192602092919082900301818787803b15801561255257600080fd5b60795460408051633045916f60e21b815290516000926001600160a01b03169163c11645bc916004808301926020929190829003018186803b158015612ad357600080fd5b505afa158015612ae7573d6000803e3d6000fd5b505050506040513d6020811015612afd57600080fd5b50516040805163f4b9fa7560e01b815290516001600160a01b039092169163f4b9fa75916004808201926020929091908290030181600087803b15801561255257600080fd5b6000908152606b60205260409020805460018201546002830154600384015460048501546005860154600687015460079097015495976001600160a01b0395861697949693959294929091169290565b612ba460723363ffffffff61368d16565b612be2576040805162461bcd60e51b815260206004820152600a6024820152692837b7b617b0b236b4b760b11b604482015290519081900360640190fd5b6000612bec611e72565b1115612c3d57612bfa61419b565b612c3d576040805162461bcd60e51b815260206004820152600f60248201526e141bdbdb0bdb9bdd0b5c995dd85c99608a1b604482015290519081900360640190fd5b612c4561120b565b15612c5257612c526141c6565b61178c81614279565b6078546001600160a01b031681565b612c7b60723363ffffffff61368d16565b612cb9576040805162461bcd60e51b815260206004820152600a6024820152692837b7b617b0b236b4b760b11b604482015290519081900360640190fd5b6040805162dec4c960e41b815260746004820152436024820152905173__Blocklock_____________________________91630dec4c90916044808301926020929190829003018186803b158015612d1057600080fd5b505af4158015612d24573d6000803e3d6000fd5b505050506040513d6020811015612d3a57600080fd5b5051612d7d576040805162461bcd60e51b815260206004820152600d60248201526c141bdbdb0bdd5b9b1bd8dad959609a1b604482015290519081900360640190fd5b6000612d87611e72565b11612dca576040805162461bcd60e51b815260206004820152600e60248201526d141bdbdb0bd8dbdb5b5a5d1d195960921b604482015290519081900360640190fd5b612dd261419b565b15612e13576040805162461bcd60e51b815260206004820152600c60248201526b506f6f6c2f616c726561647960a01b604482015290519081900360640190fd5b60338054600101908190556040805163cc89d03b60e01b815260746004820152436024820152905173__Blocklock_____________________________9163cc89d03b916044808301926000929190829003018186803b158015612e7657600080fd5b505af4158015612e8a573d6000803e3d6000fd5b505050506000612e98611e72565b90506000606b600083815260200190815260200160002090508484604051602001808381526020018281526020019250505060405160208183030381529060405280519060200120816003015414612f29576040805162461bcd60e51b815260206004820152600f60248201526e141bdbdb0bd898590b5cd958dc995d608a1b604482015290519081900360640190fd5b60408051602080820188905282518083038201815291830190925280519101206000612f5482612813565b90506000612f60612a42565b90506000606954821115612f8e57612f8b612f8660695484613c4590919063ffffffff16565b6143f1565b90505b6000612f9e86600001548361447c565b60018701546001600160a01b03166000908152606a6020526040902054909150612fce908263ffffffff613e6a16565b60018701546001600160a01b03166000908152606a6020526040812091909155612ffe838363ffffffff613c4516565b6005880180546001600160a01b0319166001600160a01b0388169081179091556006890182905560078901849055600489018890559091501580159061304357508015155b156131165760698490556001600160a01b0385166000908152606a6020526040902054613076908263ffffffff613e6a16565b6001600160a01b0386166000818152606a60205260408082209390935582516371a28dbb60e11b8152606c6004820152602481019290925260448201849052915173__DrawManager___________________________9263e3451b769260648082019391829003018186803b1580156130ee57600080fd5b505af4158015613102573d6000803e3d6000fd5b5050505061311185828a61468c565b61312d565b606954613129908363ffffffff613e6a16565b6069555b604080518781526020810183905280820184905290516001600160a01b038716918a917f39d270b67baa0bff7a394d3427e52a85d706cae15e649754ec7b54f3c9deb3f09181900360600190a3600187015460408051848152602081018b905281516001600160a01b03909316927f108516ddcf5ba43cea6bb2cd5ff6d59ac196c1c86ccb9178332b9dd72d1ca561929181900390910190a250505050505050506033548114611f9f576040805162461bcd60e51b815260206004820152601f60248201527f5265656e7472616e637947756172643a207265656e7472616e742063616c6c00604482015290519081900360640190fd5b6079546001600160a01b031681565b6000606c73__DrawManager___________________________63663d9a7a90916040518263ffffffff1660e01b81526004018082815260200191505060206040518083038186803b158015611aba57600080fd5b607a546001600160a01b031681565b6132a760723363ffffffff61368d16565b6132e5576040805162461bcd60e51b815260206004820152600a6024820152692837b7b617b0b236b4b760b11b604482015290519081900360640190fd5b6040805163cc89d03b60e01b815260746004820152436024820152905173__Blocklock_____________________________9163cc89d03b916044808301926000929190829003018186803b158015610e1257600080fd5b60665460408051636f307dc360e01b815290516000926001600160a01b031691636f307dc3916004808301926020929190829003018186803b1580156128b457600080fd5b61338a614022565b6076546111ec576111ec82826140b5565b607a546000906001600160a01b031615611e8f57607a60009054906101000a90046001600160a01b03166001600160a01b031663cbdf382c6040518163ffffffff1660e01b815260040160206040518083038186803b1580156133fd57600080fd5b505afa158015613411573d6000803e3d6000fd5b505050506040513d602081101561342757600080fd5b50519050610d62565b6040805162dec4c960e41b815260746004820152436024820152905173__Blocklock_____________________________91630dec4c90916044808301926020929190829003018186803b15801561348757600080fd5b505af415801561349b573d6000803e3d6000fd5b505050506040513d60208110156134b157600080fd5b5051156134f3576040805162461bcd60e51b815260206004820152600b60248201526a141bdbdb0bdb1bd8dad95960aa1b604482015290519081900360640190fd5b604080516349ec2abb60e11b8152606c60048201526001600160a01b038416602482015260448101839052905173__DrawManager___________________________916393d85576916064808301926000929190829003018186803b15801561355b57600080fd5b505af415801561356f573d6000803e3d6000fd5b5050505061357d828261488d565b6040805182815290516001600160a01b038416917fc3a2b1de03156df25decfda8ed3e5aaa02ad33dc5fdf3f13aa9e7f6a7a8ae100919081900360200190a25050565b604080516371a28dbb60e11b8152606c60048201526001600160a01b038416602482015260448101839052905173__DrawManager___________________________9163e3451b76916064808301926000929190829003018186803b15801561362857600080fd5b505af415801561363c573d6000803e3d6000fd5b5050505061364a828261488d565b6040805182815290516001600160a01b038416917f2da466a7b24304f47e87fa2e1e5a81b9831ce54fec19055ce277ca2f39ba42c4919081900360200190a25050565b60006001600160a01b0382166136d45760405162461bcd60e51b8152600401808060200182810382526022815260200180614b2e6022913960400191505060405180910390fd5b506001600160a01b03166000908152602091909152604090205460ff1690565b6001600160a01b0382166000908152606a602052604090205480821115613752576040805162461bcd60e51b815260206004820152600d60248201526c506f6f6c2f6e6f2d66756e647360981b604482015290519081900360640190fd5b613762818363ffffffff613c4516565b6001600160a01b0384166000908152606a602052604090205560695461378e908363ffffffff613c4516565b6069556066546040805163852a12e360e01b81526004810185905290516001600160a01b039092169163852a12e3916024808201926020929091908290030181600087803b1580156137df57600080fd5b505af11580156137f3573d6000803e3d6000fd5b505050506040513d602081101561380957600080fd5b50511561384b576040805162461bcd60e51b815260206004820152600b60248201526a506f6f6c2f72656465656d60a81b604482015290519081900360640190fd5b61385361333d565b6001600160a01b031663a9059cbb84846040518363ffffffff1660e01b815260040180836001600160a01b03166001600160a01b0316815260200182815260200192505050602060405180830381600087803b1580156138b257600080fd5b505af11580156138c6573d6000803e3d6000fd5b505050506040513d60208110156138dc57600080fd5b5051611f9f576040805162461bcd60e51b815260206004820152600d60248201526c2837b7b617ba3930b739b332b960991b604482015290519081900360640190fd5b613929828261368d565b6139645760405162461bcd60e51b8152600401808060200182810382526021815260200180614aec6021913960400191505060405180910390fd5b6001600160a01b0316600090815260209190915260409020805460ff19169055565b6079546001600160a01b0316156139d0576040805162461bcd60e51b8152602060048201526009602482015268141bdbdb0bda5b9a5d60ba1b604482015290519081900360640190fd5b6001600160a01b038216613a1a576040805162461bcd60e51b815260206004820152600c60248201526b2837b7b617b6b4b396b232b360a11b604482015290519081900360640190fd5b607980546001600160a01b039384166001600160a01b031991821617909155607a8054929093169116179055565b600281015481546000918291613a639163ffffffff613e6a16565b90508260000154836001015410158015613a805750808360010154105b156112035750506001015490565b6001600160a01b038116613ad9576040805162461bcd60e51b815260206004820152600d60248201526c506f6f6c2f6e6f742d7a65726f60981b604482015290519081900360640190fd5b606780546001600160a01b0319166001600160a01b0383169081179091556040517f4adde74fa6a2bac1c22b89b0488eb67527c033fc6110f443d1424a91a0d41d4590600090a250565b613b2d828261488d565b6040805182815290516001600160a01b038416917f6dd4ea9218ce2f17ec77769fa65225b906e99dd3f597b7e087df3bdd8f7899dd919081900360200190a25050565b604080516362559ecd60e11b8152606c60048201526001600160a01b038416602482015260448101839052905160009173__DrawManager___________________________9163c4ab3d9a916064808201928692909190829003018186803b158015613bdb57600080fd5b505af4158015613bef573d6000803e3d6000fd5b50505050613bfd83836136f4565b6040805183815290516001600160a01b038516917f5bd2fe46fdbb7534e8b97cffa63f641b75d3485cba0cfb856f0703409cf65e70919081900360200190a250600192915050565b60006126e783836040518060400160405280601e81526020017f536166654d6174683a207375627472616374696f6e206f766572666c6f770000815250613dd3565b613c9860728263ffffffff614a6a16565b6040516001600160a01b038216907f44d6d25963f097ad14f29f06854a01f575648a1ef82f30e562ccd3889717e33990600090a250565b600082613cde575060006126ea565b82820282848281613ceb57fe5b04146126e75760405162461bcd60e51b8152600401808060200182810382526021815260200180614b0d6021913960400191505060405180910390fd5b303b1590565b670de0b6b3a7640000811115613d79576040805162461bcd60e51b815260206004820152600b60248201526a506f6f6c2f6c6573732d3160a81b604482015290519081900360640190fd5b60688190556040805182815290517f19cbde830537adec39ff348fcf33c89911750be4bc7433a01b3836d71ddb78819181900360200190a150565b60006112038260030154613dc784613a48565b9063ffffffff613e6a16565b60008184841115613e625760405162461bcd60e51b81526004018080602001828103825283818151815260200191508051906020019080838360005b83811015613e27578181015183820152602001613e0f565b50505050905090810190601f168015613e545780820380516001836020036101000a031916815260200191505b509250505060405180910390fd5b505050900390565b6000828201838110156126e7576040805162461bcd60e51b815260206004820152601b60248201527f536166654d6174683a206164646974696f6e206f766572666c6f770000000000604482015290519081900360640190fd5b600054610100900460ff1680613edd5750613edd613d28565b80613eeb575060005460ff16155b613f265760405162461bcd60e51b815260040180806020018281038252602e815260200180614b50602e913960400191505060405180910390fd5b600054610100900460ff16158015613f51576000805460ff1961ff0019909116610100171660011790555b6001600160a01b038716613f9e576040805162461bcd60e51b815260206004820152600f60248201526e506f6f6c2f6f776e65722d7a65726f60881b604482015290519081900360640190fd5b6001600160a01b038616613fec576040805162461bcd60e51b815260206004820152601060248201526f506f6f6c2f63746f6b656e2d7a65726f60801b604482015290519081900360640190fd5b606680546001600160a01b0319166001600160a01b03881617905561401087613c87565b61401985613d2e565b6127ee84613a8e565b604080516329965a1d60e01b815230600482018190527fb281fc8c12954d22544db45de3159a39272895b169a852b314f9cc762e44c53b602483015260448201529051731820a4b7618bde71dce8cdc73aab6c95905fad24916329965a1d91606480830192600092919082900301818387803b1580156140a157600080fd5b505af1158015610e26573d6000803e3d6000fd5b604080516343be6ded60e01b81526074600482015260248101849052905173__Blocklock_____________________________916343be6ded916044808301926000929190829003018186803b15801561410e57600080fd5b505af4158015614122573d6000803e3d6000fd5b505060408051636611206360e01b81526074600482015260248101859052905173__Blocklock_____________________________9350636611206392506044808301926000929190829003018186803b15801561417f57600080fd5b505af4158015614193573d6000803e3d6000fd5b505050505050565b600080606b60006141aa611e72565b8152602081019190915260400160002060040154151591505090565b60006141d061120b565b60405190915081907f023ad9f3cfd45bbf91919354cab651602c11b3d4267df2f095331f1e31c0c42990600090a26078546001600160a01b03161561178c576078546001600160a01b031663a3594709614228611a66565b6040518263ffffffff1660e01b815260040180828152602001915050600060405180830381600087803b15801561425e57600080fd5b505af1158015614272573d6000803e3d6000fd5b5050505050565b60408051630c520e5160e31b8152606c6004820152905173__DrawManager___________________________916362907288916024808301926020929190829003018186803b1580156142cb57600080fd5b505af41580156142df573d6000803e3d6000fd5b505050506040513d60208110156142f557600080fd5b50506040805161010081018252606880548252606780546001600160a01b039081166020858101918252438688019081526060870189815260006080890181815260a08a0182815260c08b0183815260e08c01848152607080548652606b8952948e90209c518d55975160018d018054918b166001600160a01b0319928316179055955160028d0155935160038c0155905160048b01555160058a01805491881691909416179092555160068801559151600790960195909555915491549254855187815294850152845191169391927f3ba93e35d4f024f23249948504642bc624ab65bc80542daab33f8583f1b8d72f92908290030190a350565b60008073__FixidityLib___________________________63f800d6726040518163ffffffff1660e01b815260040160206040518083038186803b15801561443857600080fd5b505af415801561444c573d6000803e3d6000fd5b505050506040513d602081101561446257600080fd5b5051905080831115614475579050611206565b5090919050565b60008073__FixidityLib___________________________63bd5cbd62846040518263ffffffff1660e01b81526004018082815260200191505060206040518083038186803b1580156144ce57600080fd5b505af41580156144e2573d6000803e3d6000fd5b505050506040513d60208110156144f857600080fd5b50516040805163d6c1528b60e01b81526004810187905260126024820152905191925060009173__FixidityLib___________________________91633c4308a8918591849163d6c1528b91604480820192602092909190829003018186803b15801561456457600080fd5b505af4158015614578573d6000803e3d6000fd5b505050506040513d602081101561458e57600080fd5b5051604080516001600160e01b031960e086901b16815260048101939093526024830191909152516044808301926020929190829003018186803b1580156145d557600080fd5b505af41580156145e9573d6000803e3d6000fd5b505050506040513d60208110156145ff57600080fd5b505160408051630e99899360e01b815260048101839052905191925073__FixidityLib___________________________91630e99899391602480820192602092909190829003018186803b15801561465757600080fd5b505af415801561466b573d6000803e3d6000fd5b505050506040513d602081101561468157600080fd5b505195945050505050565b6040805163555ddc6560e11b81526001600160a01b03851660048201527f68f03b0b1a978ee238a70b362091d993343460bc1a2830ab3f708936d9f564a460248201529051600091731820a4b7618bde71dce8cdc73aab6c95905fad249163aabbb8ca91604480820192602092909190829003018186803b15801561471057600080fd5b505afa158015614724573d6000803e3d6000fd5b505050506040513d602081101561473a57600080fd5b505190506001600160a01b03811615610e2657604080516001600160a01b03868116602483015260448201869052606480830186905283518084039091018152608490920183526020820180516001600160e01b0316630354092d60e31b178152925182516000949286169362030d40939092918291908083835b602083106147d45780518252601f1990920191602091820191016147b5565b6001836020036101000a03801982511681845116808217855250505050505090500191505060006040518083038160008787f1925050503d8060008114614837576040519150601f19603f3d011682016040523d82523d6000602084013e61483c565b606091505b505090508061427257816001600160a01b0316856001600160a01b0316847fea0a60a98b5cdcd8aa181fe33e194645a2f58d715af888f2ad1df758203e14ad60405160405180910390a45050505050565b6001600160a01b0382166000908152606a60205260409020546148b6908263ffffffff613e6a16565b6001600160a01b0383166000908152606a60205260409020556069546148e2908263ffffffff613e6a16565b6069556148ed61333d565b6066546040805163095ea7b360e01b81526001600160a01b039283166004820152602481018590529051929091169163095ea7b3916044808201926020929091908290030181600087803b15801561494457600080fd5b505af1158015614958573d6000803e3d6000fd5b505050506040513d602081101561496e57600080fd5b50516149b0576040805162461bcd60e51b815260206004820152600c60248201526b506f6f6c2f617070726f766560a01b604482015290519081900360640190fd5b6066546040805163140e25ad60e31b81526004810184905290516001600160a01b039092169163a0712d68916024808201926020929091908290030181600087803b1580156149fe57600080fd5b505af1158015614a12573d6000803e3d6000fd5b505050506040513d6020811015614a2857600080fd5b5051156111ec576040805162461bcd60e51b815260206004820152600b60248201526a506f6f6c2f737570706c7960a81b604482015290519081900360640190fd5b614a74828261368d565b15614ac6576040805162461bcd60e51b815260206004820152601f60248201527f526f6c65733a206163636f756e7420616c72656164792068617320726f6c6500604482015290519081900360640190fd5b6001600160a01b0316600090815260209190915260409020805460ff1916600117905556fe526f6c65733a206163636f756e7420646f6573206e6f74206861766520726f6c65536166654d6174683a206d756c7469706c69636174696f6e206f766572666c6f77526f6c65733a206163636f756e7420697320746865207a65726f2061646472657373436f6e747261637420696e7374616e63652068617320616c7265616479206265656e20696e697469616c697a6564a265627a7a7231582008c205bb83adf768ff0a88c07f0a4f7d3d3f58c0f4e75cdb835f36330c5e66df64736f6c634300050c0032",
  "compiler": {
    "name": "solc",
    "version": "0.5.12+commit.7709ece9.Emscripten.clang",
    "optimizer": {
      "enabled": true,
      "runs": 200
    },
    "evmVersion": "petersburg"
  }
}