{
  "fileName": "BasePool.sol",
  "contractName": "BasePool",
  "source": "/**\nCopyright 2019 PoolTogether LLC\n\nThis file is part of PoolTogether.\n\nPoolTogether is free software: you can redistribute it and/or modify\nit under the terms of the GNU General Public License as published by\nthe Free Software Foundation under version 3 of the License.\n\nPoolTogether is distributed in the hope that it will be useful,\nbut WITHOUT ANY WARRANTY; without even the implied warranty of\nMERCHANTABILITY or FITNESS FOR A PARTICULAR PURPOSE.  See the\nGNU General Public License for more details.\n\nYou should have received a copy of the GNU General Public License\nalong with PoolTogether.  If not, see <https://www.gnu.org/licenses/>.\n*/\n\npragma solidity 0.5.12;\n\nimport \"@openzeppelin/contracts-ethereum-package/contracts/introspection/IERC1820Registry.sol\";\nimport \"@openzeppelin/contracts-ethereum-package/contracts/token/ERC20/IERC20.sol\";\nimport \"@openzeppelin/contracts-ethereum-package/contracts/math/SafeMath.sol\";\nimport \"@openzeppelin/contracts-ethereum-package/contracts/utils/ReentrancyGuard.sol\";\nimport \"@openzeppelin/contracts-ethereum-package/contracts/access/Roles.sol\";\nimport \"./compound/ICErc20.sol\";\nimport \"./DrawManager.sol\";\nimport \"fixidity/contracts/FixidityLib.sol\";\nimport \"@openzeppelin/upgrades/contracts/Initializable.sol\";\nimport \"./Blocklock.sol\";\nimport \"./PoolToken.sol\";\n\n/**\n * @title The Pool contract\n * @author Brendan Asselstine\n * @notice This contract allows users to pool deposits into Compound and win the accrued interest in periodic draws.\n * Funds are immediately deposited and withdrawn from the Compound cToken contract.\n * Draws go through three stages: open, committed and rewarded in that order.\n * Only one draw is ever in the open stage.  Users deposits are always added to the open draw.  Funds in the open Draw are that user's open balance.\n * When a Draw is committed, the funds in it are moved to a user's committed total and the total committed balance of all users is updated.\n * When a Draw is rewarded, the gross winnings are the accrued interest since the last reward (if any).  A winner is selected with their chances being\n * proportional to their committed balance vs the total committed balance of all users.\n *\n *\n * With the above in mind, there is always an open draw and possibly a committed draw.  The progression is:\n *\n * Step 1: Draw 1 Open\n * Step 2: Draw 2 Open | Draw 1 Committed\n * Step 3: Draw 3 Open | Draw 2 Committed | Draw 1 Rewarded\n * Step 4: Draw 4 Open | Draw 3 Committed | Draw 2 Rewarded\n * Step 5: Draw 5 Open | Draw 4 Committed | Draw 3 Rewarded\n * Step X: ...\n */\ncontract BasePool is Initializable, ReentrancyGuard {\n  using DrawManager for DrawManager.State;\n  using SafeMath for uint256;\n  using Roles for Roles.Role;\n  using Blocklock for Blocklock.State;\n\n  bytes32 internal constant ROLLED_OVER_ENTROPY_MAGIC_NUMBER = bytes32(uint256(1));\n\n  IERC1820Registry constant internal ERC1820_REGISTRY = IERC1820Registry(0x1820a4B7618BdE71Dce8cdc73aAB6C95905faD24);\n\n  // We inline the result of the following hashes because Solidity doesn't resolve them at compile time.\n  // See https://github.com/ethereum/solidity/issues/4024.\n\n  // keccak256(\"PoolTogetherRewardListener\")\n  bytes32 constant internal REWARD_LISTENER_INTERFACE_HASH =\n      0x68f03b0b1a978ee238a70b362091d993343460bc1a2830ab3f708936d9f564a4;\n\n  /**\n   * Emitted when a user deposits into the Pool.\n   * @param sender The purchaser of the tickets\n   * @param amount The size of the deposit\n   */\n  event Deposited(address indexed sender, uint256 amount);\n\n  /**\n   * Emitted when a user deposits into the Pool and the deposit is immediately committed\n   * @param sender The purchaser of the tickets\n   * @param amount The size of the deposit\n   */\n  event DepositedAndCommitted(address indexed sender, uint256 amount);\n\n  /**\n   * Emitted when Sponsors have deposited into the Pool\n   * @param sender The purchaser of the tickets\n   * @param amount The size of the deposit\n   */\n  event SponsorshipDeposited(address indexed sender, uint256 amount);\n\n  /**\n   * Emitted when an admin has been added to the Pool.\n   * @param admin The admin that was added\n   */\n  event AdminAdded(address indexed admin);\n\n  /**\n   * Emitted when an admin has been removed from the Pool.\n   * @param admin The admin that was removed\n   */\n  event AdminRemoved(address indexed admin);\n\n  /**\n   * Emitted when a user withdraws from the pool.\n   * @param sender The user that is withdrawing from the pool\n   * @param amount The amount that the user withdrew\n   */\n  event Withdrawn(address indexed sender, uint256 amount);\n\n  /**\n   * Emitted when a user withdraws their sponsorship and fees from the pool.\n   * @param sender The user that is withdrawing\n   * @param amount The amount they are withdrawing\n   */\n  event SponsorshipAndFeesWithdrawn(address indexed sender, uint256 amount);\n\n  /**\n   * Emitted when a user withdraws from their open deposit.\n   * @param sender The user that is withdrawing\n   * @param amount The amount they are withdrawing\n   */\n  event OpenDepositWithdrawn(address indexed sender, uint256 amount);\n\n  /**\n   * Emitted when a user withdraws from their committed deposit.\n   * @param sender The user that is withdrawing\n   * @param amount The amount they are withdrawing\n   */\n  event CommittedDepositWithdrawn(address indexed sender, uint256 amount);\n\n  /**\n   * Emitted when an address collects a fee\n   * @param sender The address collecting the fee\n   * @param amount The fee amount\n   * @param drawId The draw from which the fee was awarded\n   */\n  event FeeCollected(address indexed sender, uint256 amount, uint256 drawId);\n\n  /**\n   * Emitted when a new draw is opened for deposit.\n   * @param drawId The draw id\n   * @param feeBeneficiary The fee beneficiary for this draw\n   * @param secretHash The committed secret hash\n   * @param feeFraction The fee fraction of the winnings to be given to the beneficiary\n   */\n  event Opened(\n    uint256 indexed drawId,\n    address indexed feeBeneficiary,\n    bytes32 secretHash,\n    uint256 feeFraction\n  );\n\n  /**\n   * Emitted when a draw is committed.\n   * @param drawId The draw id\n   */\n  event Committed(\n    uint256 indexed drawId\n  );\n\n  /**\n   * Emitted when a draw is rewarded.\n   * @param drawId The draw id\n   * @param winner The address of the winner\n   * @param entropy The entropy used to select the winner\n   * @param winnings The net winnings given to the winner\n   * @param fee The fee being given to the draw beneficiary\n   */\n  event Rewarded(\n    uint256 indexed drawId,\n    address indexed winner,\n    bytes32 entropy,\n    uint256 winnings,\n    uint256 fee\n  );\n\n  /**\n   * Emitted when a RewardListener call fails\n   * @param drawId The draw id\n   * @param winner The address that one the draw\n   * @param impl The implementation address of the RewardListener\n   */\n  event RewardListenerFailed(\n    uint256 indexed drawId,\n    address indexed winner,\n    address indexed impl\n  );\n\n  /**\n   * Emitted when the fee fraction is changed.  Takes effect on the next draw.\n   * @param feeFraction The next fee fraction encoded as a fixed point 18 decimal\n   */\n  event NextFeeFractionChanged(uint256 feeFraction);\n\n  /**\n   * Emitted when the next fee beneficiary changes.  Takes effect on the next draw.\n   * @param feeBeneficiary The next fee beneficiary\n   */\n  event NextFeeBeneficiaryChanged(address indexed feeBeneficiary);\n\n  /**\n   * Emitted when an admin pauses the contract\n   */\n  event DepositsPaused(address indexed sender);\n\n  /**\n   * Emitted when an admin unpauses the contract\n   */\n  event DepositsUnpaused(address indexed sender);\n\n  /**\n   * Emitted when the draw is rolled over in the event that the secret is forgotten.\n   */\n  event RolledOver(uint256 indexed drawId);\n\n  struct Draw {\n    uint256 feeFraction; //fixed point 18\n    address feeBeneficiary;\n    uint256 openedBlock;\n    bytes32 secretHash;\n    bytes32 entropy;\n    address winner;\n    uint256 netWinnings;\n    uint256 fee;\n  }\n\n  /**\n   * The Compound cToken that this Pool is bound to.\n   */\n  ICErc20 public cToken;\n\n  /**\n   * The fee beneficiary to use for subsequent Draws.\n   */\n  address public nextFeeBeneficiary;\n\n  /**\n   * The fee fraction to use for subsequent Draws.\n   */\n  uint256 public nextFeeFraction;\n\n  /**\n   * The total of all balances\n   */\n  uint256 public accountedBalance;\n\n  /**\n   * The total deposits and winnings for each user.\n   */\n  mapping (address => uint256) internal balances;\n\n  /**\n   * A mapping of draw ids to Draw structures\n   */\n  mapping(uint256 => Draw) internal draws;\n\n  /**\n   * A structure that is used to manage the user's odds of winning.\n   */\n  DrawManager.State internal drawState;\n\n  /**\n   * A structure containing the administrators\n   */\n  Roles.Role internal admins;\n\n  /**\n   * Whether the contract is paused\n   */\n  bool public paused;\n\n  Blocklock.State internal blocklock;\n\n  PoolToken public poolToken;\n\n  /**\n   * @notice Initializes a new Pool contract.\n   * @param _owner The owner of the Pool.  They are able to change settings and are set as the owner of new lotteries.\n   * @param _cToken The Compound Finance MoneyMarket contract to supply and withdraw tokens.\n   * @param _feeFraction The fraction of the gross winnings that should be transferred to the owner as the fee.  Is a fixed point 18 number.\n   * @param _feeBeneficiary The address that will receive the fee fraction\n   */\n  function init (\n    address _owner,\n    address _cToken,\n    uint256 _feeFraction,\n    address _feeBeneficiary,\n    uint256 _lockDuration,\n    uint256 _cooldownDuration\n  ) public initializer {\n    require(_owner != address(0), \"Pool/owner-zero\");\n    require(_cToken != address(0), \"Pool/ctoken-zero\");\n    cToken = ICErc20(_cToken);\n    _addAdmin(_owner);\n    _setNextFeeFraction(_feeFraction);\n    _setNextFeeBeneficiary(_feeBeneficiary);\n    initBlocklock(_lockDuration, _cooldownDuration);\n  }\n\n  function setPoolToken(PoolToken _poolToken) external onlyAdmin {\n    require(address(poolToken) == address(0), \"Pool/token-was-set\");\n    require(_poolToken.pool() == address(this), \"Pool/token-mismatch\");\n    poolToken = _poolToken;\n  }\n\n  function initBlocklock(uint256 _lockDuration, uint256 _cooldownDuration) internal {\n    blocklock.setLockDuration(_lockDuration);\n    blocklock.setCooldownDuration(_cooldownDuration);\n  }\n\n  /**\n   * @notice Opens a new Draw.\n   * @param _secretHash The secret hash to commit to the Draw.\n   */\n  function open(bytes32 _secretHash) internal {\n    drawState.openNextDraw();\n    draws[drawState.openDrawIndex] = Draw(\n      nextFeeFraction,\n      nextFeeBeneficiary,\n      block.number,\n      _secretHash,\n      bytes32(0),\n      address(0),\n      uint256(0),\n      uint256(0)\n    );\n    emit Opened(\n      drawState.openDrawIndex,\n      nextFeeBeneficiary,\n      _secretHash,\n      nextFeeFraction\n    );\n  }\n\n  /**\n   * @notice Emits the Committed event for the current open draw.\n   */\n  function emitCommitted() internal {\n    uint256 drawId = currentOpenDrawId();\n    emit Committed(drawId);\n    if (address(poolToken) != address(0)) {\n      poolToken.poolMint(openSupply());\n    }\n  }\n\n  /**\n   * @notice Commits the current open draw, if any, and opens the next draw using the passed hash.  Really this function is only called twice:\n   * the first after Pool contract creation and the second immediately after.\n   * Can only be called by an admin.\n   * May fire the Committed event, and always fires the Open event.\n   * @param nextSecretHash The secret hash to use to open a new Draw\n   */\n  function openNextDraw(bytes32 nextSecretHash) public onlyAdmin {\n    if (currentCommittedDrawId() > 0) {\n      require(currentCommittedDrawHasBeenRewarded(), \"Pool/not-reward\");\n    }\n    if (currentOpenDrawId() != 0) {\n      emitCommitted();\n    }\n    open(nextSecretHash);\n  }\n\n  /**\n   * @notice Ignores the current draw, and opens the next draw.\n   * @dev This function will be removed once the winner selection has been decentralized.\n   * @param nextSecretHash The hash to commit for the next draw\n   */\n  function rolloverAndOpenNextDraw(bytes32 nextSecretHash) public onlyAdmin {\n    rollover();\n    openNextDraw(nextSecretHash);\n  }\n\n  /**\n   * @notice Rewards the current committed draw using the passed secret, commits the current open draw, and opens the next draw using the passed secret hash.\n   * Can only be called by an admin.\n   * Fires the Rewarded event, the Committed event, and the Open event.\n   * @param nextSecretHash The secret hash to use to open a new Draw\n   * @param lastSecret The secret to reveal to reward the current committed Draw.\n   * @param _salt The salt that was used to conceal the secret\n   */\n  function rewardAndOpenNextDraw(bytes32 nextSecretHash, bytes32 lastSecret, bytes32 _salt) public onlyAdmin {\n    reward(lastSecret, _salt);\n    openNextDraw(nextSecretHash);\n  }\n\n  /**\n   * @notice Rewards the winner for the current committed Draw using the passed secret.\n   * The gross winnings are calculated by subtracting the accounted balance from the current underlying cToken balance.\n   * A winner is calculated using the revealed secret.\n   * If there is a winner (i.e. any eligible users) then winner's balance is updated with their net winnings.\n   * The draw beneficiary's balance is updated with the fee.\n   * The accounted balance is updated to include the fee and, if there was a winner, the net winnings.\n   * Fires the Rewarded event.\n   * @param _secret The secret to reveal for the current committed Draw\n   * @param _salt The salt that was used to conceal the secret\n   */\n  function reward(bytes32 _secret, bytes32 _salt) public onlyAdmin onlyLocked requireCommittedNoReward nonReentrant {\n    blocklock.unlock(block.number);\n    // require that there is a committed draw\n    // require that the committed draw has not been rewarded\n    uint256 drawId = currentCommittedDrawId();\n\n    Draw storage draw = draws[drawId];\n\n    require(draw.secretHash == keccak256(abi.encodePacked(_secret, _salt)), \"Pool/bad-secret\");\n\n    // derive entropy from the revealed secret\n    bytes32 entropy = keccak256(abi.encodePacked(_secret));\n\n    // Select the winner using the hash as entropy\n    address winningAddress = calculateWinner(entropy);\n\n    // Calculate the gross winnings\n    uint256 underlyingBalance = balance();\n\n    uint256 grossWinnings;\n\n    // It's possible when the APR is zero that the underlying balance will be slightly lower than the accountedBalance\n    // due to rounding errors in the Compound contract.\n    if (underlyingBalance > accountedBalance) {\n      grossWinnings = capWinnings(underlyingBalance.sub(accountedBalance));\n    }\n\n    // Calculate the beneficiary fee\n    uint256 fee = calculateFee(draw.feeFraction, grossWinnings);\n\n    // Update balance of the beneficiary\n    balances[draw.feeBeneficiary] = balances[draw.feeBeneficiary].add(fee);\n\n    // Calculate the net winnings\n    uint256 netWinnings = grossWinnings.sub(fee);\n\n    draw.winner = winningAddress;\n    draw.netWinnings = netWinnings;\n    draw.fee = fee;\n    draw.entropy = entropy;\n\n    // If there is a winner who is to receive non-zero winnings\n    if (winningAddress != address(0) && netWinnings != 0) {\n      // Updated the accounted total\n      accountedBalance = underlyingBalance;\n\n      // Update balance of the winner\n      balances[winningAddress] = balances[winningAddress].add(netWinnings);\n\n      // Enter their winnings into the open draw\n      drawState.deposit(winningAddress, netWinnings);\n\n      callRewarded(winningAddress, netWinnings, drawId);\n    } else {\n      // Only account for the fee\n      accountedBalance = accountedBalance.add(fee);\n    }\n\n    emit Rewarded(\n      drawId,\n      winningAddress,\n      entropy,\n      netWinnings,\n      fee\n    );\n    emit FeeCollected(draw.feeBeneficiary, fee, drawId);\n  }\n\n  function callRewarded(address winner, uint256 netWinnings, uint256 drawId) internal {\n    address impl = ERC1820_REGISTRY.getInterfaceImplementer(winner, REWARD_LISTENER_INTERFACE_HASH);\n    if (impl != address(0)) {\n      (bool success,) = impl.call.gas(200000)(abi.encodeWithSignature(\"rewarded(address,uint256,uint256)\", winner, netWinnings, drawId));\n      if (!success) {\n        emit RewardListenerFailed(drawId, winner, impl);\n      }\n    }\n  }\n\n  /**\n   * @notice A function that skips the reward for the committed draw id.\n   * @dev This function will be removed once the entropy is decentralized.\n   */\n  function rollover() public onlyAdmin requireCommittedNoReward {\n    uint256 drawId = currentCommittedDrawId();\n\n    Draw storage draw = draws[drawId];\n    draw.entropy = ROLLED_OVER_ENTROPY_MAGIC_NUMBER;\n\n    emit RolledOver(\n      drawId\n    );\n\n    emit Rewarded(\n      drawId,\n      address(0),\n      ROLLED_OVER_ENTROPY_MAGIC_NUMBER,\n      0,\n      0\n    );\n  }\n\n  /**\n   * @notice Ensures that the winnings don't overflow.  Note that we can make this integer max, because the fee\n   * is always less than zero (meaning the FixidityLib.multiply will always make the number smaller)\n   */\n  function capWinnings(uint256 _grossWinnings) internal pure returns (uint256) {\n    uint256 max = uint256(FixidityLib.maxNewFixed());\n    if (_grossWinnings > max) {\n      return max;\n    }\n    return _grossWinnings;\n  }\n\n  /**\n   * @notice Calculate the beneficiary fee using the passed fee fraction and gross winnings.\n   * @param _feeFraction The fee fraction, between 0 and 1, represented as a 18 point fixed number.\n   * @param _grossWinnings The gross winnings to take a fraction of.\n   */\n  function calculateFee(uint256 _feeFraction, uint256 _grossWinnings) internal pure returns (uint256) {\n    int256 grossWinningsFixed = FixidityLib.newFixed(int256(_grossWinnings));\n    // _feeFraction *must* be less than 1 ether, so it will never overflow\n    int256 feeFixed = FixidityLib.multiply(grossWinningsFixed, FixidityLib.newFixed(int256(_feeFraction), uint8(18)));\n    return uint256(FixidityLib.fromFixed(feeFixed));\n  }\n\n  /**\n   * @notice Allows a user to deposit a sponsorship amount.  The deposit is transferred into the cToken.\n   * Sponsorships allow a user to contribute to the pool without becoming eligible to win.  They can withdraw their sponsorship at any time.\n   * The deposit will immediately be added to Compound and the interest will contribute to the next draw.\n   * @param _amount The amount of the token underlying the cToken to deposit.\n   */\n  function depositSponsorship(uint256 _amount) public unlessDepositsPaused nonReentrant {\n    // Transfer the tokens into this contract\n    require(token().transferFrom(msg.sender, address(this), _amount), \"Pool/t-fail\");\n\n    // Deposit the sponsorship amount\n    _depositSponsorshipFrom(msg.sender, _amount);\n  }\n\n  /**\n   * @notice Deposits the token balance for this contract as a sponsorship.\n   * If people erroneously transfer tokens to this contract, this function will allow us to recoup those tokens as sponsorship.\n   */\n  function transferBalanceToSponsorship() public unlessDepositsPaused {\n    // Deposit the sponsorship amount\n    _depositSponsorshipFrom(address(this), token().balanceOf(address(this)));\n  }\n\n  /**\n   * @notice Deposits into the pool under the current open Draw.  The deposit is transferred into the cToken.\n   * Once the open draw is committed, the deposit will be added to the user's total committed balance and increase their chances of winning\n   * proportional to the total committed balance of all users.\n   * @param _amount The amount of the token underlying the cToken to deposit.\n   */\n  function depositPool(uint256 _amount) public requireOpenDraw unlessDepositsPaused nonReentrant {\n    // Transfer the tokens into this contract\n    require(token().transferFrom(msg.sender, address(this), _amount), \"Pool/t-fail\");\n\n    // Deposit the funds\n    _depositPoolFrom(msg.sender, _amount);\n  }\n\n  /**\n   * @notice Deposits sponsorship for a user\n   * @param _spender The user who is sponsoring\n   * @param _amount The amount they are sponsoring\n   */\n  function _depositSponsorshipFrom(address _spender, uint256 _amount) internal {\n    // Deposit the funds\n    _depositFrom(_spender, _amount);\n\n    emit SponsorshipDeposited(_spender, _amount);\n  }\n\n  /**\n   * @notice Deposits into the pool for a user.  The deposit will be open until the next draw is committed.\n   * @param _spender The user who is depositing\n   * @param _amount The amount the user is depositing\n   */\n  function _depositPoolFrom(address _spender, uint256 _amount) internal {\n    // Update the user's eligibility\n    drawState.deposit(_spender, _amount);\n\n    _depositFrom(_spender, _amount);\n\n    emit Deposited(_spender, _amount);\n  }\n\n  /**\n   * @notice Deposits into the pool for a user.  The deposit is made part of the currently committed draw\n   * @param _spender The user who is depositing\n   * @param _amount The amount to deposit\n   */\n  function _depositPoolFromCommitted(address _spender, uint256 _amount) internal notLocked {\n    // Update the user's eligibility\n    drawState.depositCommitted(_spender, _amount);\n\n    _depositFrom(_spender, _amount);\n\n    emit DepositedAndCommitted(_spender, _amount);\n  }\n\n  /**\n   * @notice Deposits into the pool for a user.  Updates their balance and transfers their tokens into this contract.\n   * @param _spender The user who is depositing\n   * @param _amount The amount they are depositing\n   */\n  function _depositFrom(address _spender, uint256 _amount) internal {\n    // Update the user's balance\n    balances[_spender] = balances[_spender].add(_amount);\n\n    // Update the total of this contract\n    accountedBalance = accountedBalance.add(_amount);\n\n    // Deposit into Compound\n    require(token().approve(address(cToken), _amount), \"Pool/approve\");\n    require(cToken.mint(_amount) == 0, \"Pool/supply\");\n  }\n\n  /**\n   * @notice Withdraw the sender's entire balance back to them.\n   */\n  function withdraw() public nonReentrant notLocked {\n    uint256 committedBalance = drawState.committedBalanceOf(msg.sender);\n\n    uint256 balance = balances[msg.sender];\n    // Update their chances of winning\n    drawState.withdraw(msg.sender);\n    _withdraw(msg.sender, balance);\n\n    if (address(poolToken) != address(0)) {\n      poolToken.poolRedeem(msg.sender, committedBalance);\n    }\n\n    emit Withdrawn(msg.sender, balance);\n  }\n\n  /**\n   * Withdraws only from the sender's sponsorship and fee balances\n   * @param _amount The amount to withdraw\n   */\n  function withdrawSponsorshipAndFee(uint256 _amount) public {\n    uint256 sponsorshipAndFees = sponsorshipAndFeeBalanceOf(msg.sender);\n    require(_amount <= sponsorshipAndFees, \"Pool/exceeds-sfee\");\n    _withdraw(msg.sender, _amount);\n\n    emit SponsorshipAndFeesWithdrawn(msg.sender, _amount);\n  }\n\n  /**\n   * Returns the total balance of the user's sponsorship and fees\n   * @param _sender The user whose balance should be returned\n   */\n  function sponsorshipAndFeeBalanceOf(address _sender) public view returns (uint256) {\n    return balances[_sender].sub(drawState.balanceOf(_sender));\n  }\n\n  /**\n   * Withdraws from the user's open deposits\n   * @param _amount The amount to withdraw\n   */\n  function withdrawOpenDeposit(uint256 _amount) public {\n    drawState.withdrawOpen(msg.sender, _amount);\n    _withdraw(msg.sender, _amount);\n\n    emit OpenDepositWithdrawn(msg.sender, _amount);\n  }\n\n  /**\n   * Withdraws from the user's committed deposits\n   * @param _amount The amount to withdraw\n   */\n  function withdrawCommittedDeposit(uint256 _amount) external notLocked returns (bool)  {\n    _withdrawCommittedDepositAndEmit(msg.sender, _amount);\n    if (address(poolToken) != address(0)) {\n      poolToken.poolRedeem(msg.sender, _amount);\n    }\n    return true;\n  }\n\n  /**\n   * Allows the associated PoolToken to withdraw for a user; useful when redeeming through the token.\n   * @param _from The user to withdraw from\n   * @param _amount The amount to withdraw\n   */\n  function withdrawCommittedDepositFrom(\n    address _from,\n    uint256 _amount\n  ) external onlyToken notLocked returns (bool)  {\n    return _withdrawCommittedDepositAndEmit(_from, _amount);\n  }\n\n  /**\n   * A function that withdraws committed deposits for a user and emits the corresponding events.\n   * @param _from User to withdraw for\n   * @param _amount The amount to withdraw\n   */\n  function _withdrawCommittedDepositAndEmit(address _from, uint256 _amount) internal returns (bool) {\n    drawState.withdrawCommitted(_from, _amount);\n    _withdraw(_from, _amount);\n\n    emit CommittedDepositWithdrawn(_from, _amount);\n\n    return true;\n  }\n\n  /**\n   * @notice Allows the associated PoolToken to move committed tokens from one user to another.\n   * @param _from The account to move tokens from\n   * @param _to The account that is receiving the tokens\n   * @param _amount The amount of tokens to transfer\n   */\n  function moveCommitted(\n    address _from,\n    address _to,\n    uint256 _amount\n  ) external onlyToken onlyCommittedBalanceGteq(_from, _amount) notLocked returns (bool) {\n    balances[_from] = balances[_from].sub(_amount, \"move could not sub amount\");\n    balances[_to] = balances[_to].add(_amount);\n    drawState.withdrawCommitted(_from, _amount);\n    drawState.depositCommitted(_to, _amount);\n\n    return true;\n  }\n\n  /**\n   * @notice Transfers tokens from the cToken contract to the sender.  Updates the accounted balance.\n   */\n  function _withdraw(address _sender, uint256 _amount) internal {\n    uint256 balance = balances[_sender];\n\n    require(_amount <= balance, \"Pool/no-funds\");\n\n    // Update the user's balance\n    balances[_sender] = balance.sub(_amount);\n\n    // Update the total of this contract\n    accountedBalance = accountedBalance.sub(_amount);\n\n    // Withdraw from Compound and transfer\n    require(cToken.redeemUnderlying(_amount) == 0, \"Pool/redeem\");\n    require(token().transfer(_sender, _amount), \"Pool/transfer\");\n  }\n\n  /**\n   * @notice Returns the id of the current open Draw.\n   * @return The current open Draw id\n   */\n  function currentOpenDrawId() public view returns (uint256) {\n    return drawState.openDrawIndex;\n  }\n\n  /**\n   * @notice Returns the id of the current committed Draw.\n   * @return The current committed Draw id\n   */\n  function currentCommittedDrawId() public view returns (uint256) {\n    if (drawState.openDrawIndex > 1) {\n      return drawState.openDrawIndex - 1;\n    } else {\n      return 0;\n    }\n  }\n\n  /**\n   * @notice Returns whether the current committed draw has been rewarded\n   * @return True if the current committed draw has been rewarded, false otherwise\n   */\n  function currentCommittedDrawHasBeenRewarded() internal view returns (bool) {\n    Draw storage draw = draws[currentCommittedDrawId()];\n    return draw.entropy != bytes32(0);\n  }\n\n  /**\n   * @notice Gets information for a given draw.\n   * @param _drawId The id of the Draw to retrieve info for.\n   * @return Fields including:\n   *  feeFraction: the fee fraction\n   *  feeBeneficiary: the beneficiary of the fee\n   *  openedBlock: The block at which the draw was opened\n   *  secretHash: The hash of the secret committed to this draw.\n   *  entropy: the entropy used to select the winner\n   *  winner: the address of the winner\n   *  netWinnings: the total winnings less the fee\n   *  fee: the fee taken by the beneficiary\n   */\n  function getDraw(uint256 _drawId) public view returns (\n    uint256 feeFraction,\n    address feeBeneficiary,\n    uint256 openedBlock,\n    bytes32 secretHash,\n    bytes32 entropy,\n    address winner,\n    uint256 netWinnings,\n    uint256 fee\n  ) {\n    Draw storage draw = draws[_drawId];\n    feeFraction = draw.feeFraction;\n    feeBeneficiary = draw.feeBeneficiary;\n    openedBlock = draw.openedBlock;\n    secretHash = draw.secretHash;\n    entropy = draw.entropy;\n    winner = draw.winner;\n    netWinnings = draw.netWinnings;\n    fee = draw.fee;\n  }\n\n  /**\n   * @notice Returns the total of the address's balance in committed Draws.  That is, the total that contributes to their chances of winning.\n   * @param _addr The address of the user\n   * @return The total committed balance for the user\n   */\n  function committedBalanceOf(address _addr) external view returns (uint256) {\n    return drawState.committedBalanceOf(_addr);\n  }\n\n  /**\n   * @notice Returns the total of the address's balance in the open Draw.  That is, the total that will *eventually* contribute to their chances of winning.\n   * @param _addr The address of the user\n   * @return The total open balance for the user\n   */\n  function openBalanceOf(address _addr) external view returns (uint256) {\n    return drawState.openBalanceOf(_addr);\n  }\n\n  /**\n   * @notice Returns a user's total balance.  This includes their sponsorships, fees, open deposits, and committed deposits.\n   * @param _addr The address of the user to check.\n   * @return The user's current balance.\n   */\n  function totalBalanceOf(address _addr) external view returns (uint256) {\n    return balances[_addr];\n  }\n\n  /**\n   * @notice Returns a user's committed balance.  This is the balance of their Pool tokens.\n   * @param _addr The address of the user to check.\n   * @return The user's current balance.\n   */\n  function balanceOf(address _addr) external view returns (uint256) {\n    return drawState.committedBalanceOf(_addr);\n  }\n\n  /**\n   * @notice Calculates a winner using the passed entropy for the current committed balances.\n   * @param _entropy The entropy to use to select the winner\n   * @return The winning address\n   */\n  function calculateWinner(bytes32 _entropy) public view returns (address) {\n    return drawState.drawWithEntropy(_entropy);\n  }\n\n  /**\n   * @notice Returns the total committed balance.  Used to compute an address's chances of winning.\n   * @return The total committed balance.\n   */\n  function committedSupply() public view returns (uint256) {\n    return drawState.committedSupply();\n  }\n\n  /**\n   * @notice Returns the total open balance.  This balance is the number of tickets purchased for the open draw.\n   * @return The total open balance\n   */\n  function openSupply() public view returns (uint256) {\n    return drawState.openSupply();\n  }\n\n  /**\n   * @notice Calculates the total estimated interest earned for the given number of blocks\n   * @param _blocks The number of block that interest accrued for\n   * @return The total estimated interest as a 18 point fixed decimal.\n   */\n  function estimatedInterestRate(uint256 _blocks) public view returns (uint256) {\n    return supplyRatePerBlock().mul(_blocks);\n  }\n\n  /**\n   * @notice Convenience function to return the supplyRatePerBlock value from the money market contract.\n   * @return The cToken supply rate per block\n   */\n  function supplyRatePerBlock() public view returns (uint256) {\n    return cToken.supplyRatePerBlock();\n  }\n\n  /**\n   * @notice Sets the beneficiary fee fraction for subsequent Draws.\n   * Fires the NextFeeFractionChanged event.\n   * Can only be called by an admin.\n   * @param _feeFraction The fee fraction to use.\n   * Must be between 0 and 1 and formatted as a fixed point number with 18 decimals (as in Ether).\n   */\n  function setNextFeeFraction(uint256 _feeFraction) public onlyAdmin {\n    _setNextFeeFraction(_feeFraction);\n  }\n\n  function _setNextFeeFraction(uint256 _feeFraction) internal {\n    require(_feeFraction <= 1 ether, \"Pool/less-1\");\n    nextFeeFraction = _feeFraction;\n\n    emit NextFeeFractionChanged(_feeFraction);\n  }\n\n  /**\n   * @notice Sets the fee beneficiary for subsequent Draws.\n   * Can only be called by admins.\n   * @param _feeBeneficiary The beneficiary for the fee fraction.  Cannot be the 0 address.\n   */\n  function setNextFeeBeneficiary(address _feeBeneficiary) public onlyAdmin {\n    _setNextFeeBeneficiary(_feeBeneficiary);\n  }\n\n  /**\n   * @notice Sets the fee beneficiary for subsequent Draws.\n   * @param _feeBeneficiary The beneficiary for the fee fraction.  Cannot be the 0 address.\n   */\n  function _setNextFeeBeneficiary(address _feeBeneficiary) internal {\n    require(_feeBeneficiary != address(0), \"Pool/not-zero\");\n    nextFeeBeneficiary = _feeBeneficiary;\n\n    emit NextFeeBeneficiaryChanged(_feeBeneficiary);\n  }\n\n  /**\n   * @notice Adds an administrator.\n   * Can only be called by administrators.\n   * Fires the AdminAdded event.\n   * @param _admin The address of the admin to add\n   */\n  function addAdmin(address _admin) public onlyAdmin {\n    _addAdmin(_admin);\n  }\n\n  /**\n   * @notice Checks whether a given address is an administrator.\n   * @param _admin The address to check\n   * @return True if the address is an admin, false otherwise.\n   */\n  function isAdmin(address _admin) public view returns (bool) {\n    return admins.has(_admin);\n  }\n\n  /**\n   * @notice Checks whether a given address is an administrator.\n   * @param _admin The address to check\n   * @return True if the address is an admin, false otherwise.\n   */\n  function _addAdmin(address _admin) internal {\n    admins.add(_admin);\n\n    emit AdminAdded(_admin);\n  }\n\n  /**\n   * @notice Removes an administrator\n   * Can only be called by an admin.\n   * Admins cannot remove themselves.  This ensures there is always one admin.\n   * @param _admin The address of the admin to remove\n   */\n  function removeAdmin(address _admin) public onlyAdmin {\n    require(admins.has(_admin), \"Pool/no-admin\");\n    require(_admin != msg.sender, \"Pool/remove-self\");\n    admins.remove(_admin);\n\n    emit AdminRemoved(_admin);\n  }\n\n  /**\n   * Requires that there is a committed draw that has not been rewarded.\n   */\n  modifier requireCommittedNoReward() {\n    require(currentCommittedDrawId() > 0, \"Pool/committed\");\n    require(!currentCommittedDrawHasBeenRewarded(), \"Pool/already\");\n    _;\n  }\n\n  /**\n   * @notice Returns the token underlying the cToken.\n   * @return An ERC20 token address\n   */\n  function token() public view returns (IERC20) {\n    return IERC20(cToken.underlying());\n  }\n\n  /**\n   * @notice Returns the underlying balance of this contract in the cToken.\n   * @return The cToken underlying balance for this contract.\n   */\n  function balance() public returns (uint256) {\n    return cToken.balanceOfUnderlying(address(this));\n  }\n\n  /**\n   * @notice Locks the movement of tokens (essentially the committed deposits and winnings)\n   * @dev The lock only lasts for a duration of blocks.  The lock cannot be relocked until the cooldown duration completes.\n   */\n  function lockTokens() public onlyAdmin {\n    blocklock.lock(block.number);\n  }\n\n  /**\n   * @notice Unlocks the movement of tokens (essentially the committed deposits)\n   */\n  function unlockTokens() public onlyAdmin {\n    blocklock.unlock(block.number);\n  }\n\n  /**\n   * Pauses all deposits into the contract.  This was added so that we can slowly deprecate Pools.  Users can continue\n   * to collect rewards and withdraw, but eventually the Pool will grow smaller.\n   *\n   * emits DepositsPaused\n   */\n  function pauseDeposits() public unlessDepositsPaused onlyAdmin {\n    paused = true;\n\n    emit DepositsPaused(msg.sender);\n  }\n\n  /**\n   * @notice Unpauses all deposits into the contract\n   *\n   * emits DepositsUnpaused\n   */\n  function unpauseDeposits() public whenDepositsPaused onlyAdmin {\n    paused = false;\n\n    emit DepositsUnpaused(msg.sender);\n  }\n\n  /**\n   * @notice Check if the contract is locked.\n   * @return True if the contract is locked, false otherwise\n   */\n  function isLocked() public view returns (bool) {\n    return blocklock.isLocked(block.number);\n  }\n\n  /**\n   * @notice Returns the block number at which the lock expires\n   * @return The block number at which the lock expires\n   */\n  function lockEndAt() public view returns (uint256) {\n    return blocklock.lockEndAt();\n  }\n\n  /**\n   * @notice Check cooldown end block\n   * @return The block number at which the cooldown ends and the contract can be re-locked\n   */\n  function cooldownEndAt() public view returns (uint256) {\n    return blocklock.cooldownEndAt();\n  }\n\n  /**\n   * @notice Returns whether the contract can be locked\n   * @return True if the contract can be locked, false otherwise\n   */\n  function canLock() public view returns (bool) {\n    return blocklock.canLock(block.number);\n  }\n\n  /**\n   * @notice Duration of the lock\n   * @return Returns the duration of the lock in blocks.\n   */\n  function lockDuration() public view returns (uint256) {\n    return blocklock.lockDuration;\n  }\n\n  /**\n   * @notice Returns the cooldown duration.  The cooldown period starts after the Pool has been unlocked.\n   * The Pool cannot be locked during the cooldown period.\n   * @return The cooldown duration in blocks\n   */\n  function cooldownDuration() public view returns (uint256) {\n    return blocklock.cooldownDuration;\n  }\n\n  /**\n   * @notice requires the pool not to be locked\n   */\n  modifier notLocked() {\n    require(!blocklock.isLocked(block.number), \"Pool/locked\");\n    _;\n  }\n\n  /**\n   * @notice requires the pool to be locked\n   */\n  modifier onlyLocked() {\n    require(blocklock.isLocked(block.number), \"Pool/unlocked\");\n    _;\n  }\n\n  /**\n   * @notice requires the caller to be an admin\n   */\n  modifier onlyAdmin() {\n    require(admins.has(msg.sender), \"Pool/admin\");\n    _;\n  }\n\n  /**\n   * @notice Requires an open draw to exist\n   */\n  modifier requireOpenDraw() {\n    require(currentOpenDrawId() != 0, \"Pool/no-open\");\n    _;\n  }\n\n  /**\n   * @notice Requires deposits to be paused\n   */\n  modifier whenDepositsPaused() {\n    require(paused, \"Pool/d-not-paused\");\n    _;\n  }\n\n  /**\n   * @notice Requires deposits not to be paused\n   */\n  modifier unlessDepositsPaused() {\n    require(!paused, \"Pool/d-paused\");\n    _;\n  }\n\n  /**\n   * @notice Requires the caller to be the pool token\n   */\n  modifier onlyToken() {\n    require(msg.sender == address(poolToken), \"Pool/only-token\");\n    _;\n  }\n\n  /**\n   * @notice requires the passed user's committed balance to be greater than or equal to the passed amount\n   * @param _from The user whose committed balance should be checked\n   * @param _amount The minimum amount they must have\n   */\n  modifier onlyCommittedBalanceGteq(address _from, uint256 _amount) {\n    uint256 committedBalance = drawState.committedBalanceOf(_from);\n    require(_amount <= committedBalance, \"not enough funds\");\n    _;\n  }\n}\n",
  "sourcePath": "@pooltogether/pooltogether-contracts/contracts/BasePool.sol",
  "abi": [
    {
      "anonymous": false,
      "inputs": [
        {
          "indexed": true,
          "internalType": "address",
          "name": "admin",
          "type": "address"
        }
      ],
      "name": "AdminAdded",
      "type": "event"
    },
    {
      "anonymous": false,
      "inputs": [
        {
          "indexed": true,
          "internalType": "address",
          "name": "admin",
          "type": "address"
        }
      ],
      "name": "AdminRemoved",
      "type": "event"
    },
    {
      "anonymous": false,
      "inputs": [
        {
          "indexed": true,
          "internalType": "uint256",
          "name": "drawId",
          "type": "uint256"
        }
      ],
      "name": "Committed",
      "type": "event"
    },
    {
      "anonymous": false,
      "inputs": [
        {
          "indexed": true,
          "internalType": "address",
          "name": "sender",
          "type": "address"
        },
        {
          "indexed": false,
          "internalType": "uint256",
          "name": "amount",
          "type": "uint256"
        }
      ],
      "name": "CommittedDepositWithdrawn",
      "type": "event"
    },
    {
      "anonymous": false,
      "inputs": [
        {
          "indexed": true,
          "internalType": "address",
          "name": "sender",
          "type": "address"
        },
        {
          "indexed": false,
          "internalType": "uint256",
          "name": "amount",
          "type": "uint256"
        }
      ],
      "name": "Deposited",
      "type": "event"
    },
    {
      "anonymous": false,
      "inputs": [
        {
          "indexed": true,
          "internalType": "address",
          "name": "sender",
          "type": "address"
        },
        {
          "indexed": false,
          "internalType": "uint256",
          "name": "amount",
          "type": "uint256"
        }
      ],
      "name": "DepositedAndCommitted",
      "type": "event"
    },
    {
      "anonymous": false,
      "inputs": [
        {
          "indexed": true,
          "internalType": "address",
          "name": "sender",
          "type": "address"
        }
      ],
      "name": "DepositsPaused",
      "type": "event"
    },
    {
      "anonymous": false,
      "inputs": [
        {
          "indexed": true,
          "internalType": "address",
          "name": "sender",
          "type": "address"
        }
      ],
      "name": "DepositsUnpaused",
      "type": "event"
    },
    {
      "anonymous": false,
      "inputs": [
        {
          "indexed": true,
          "internalType": "address",
          "name": "sender",
          "type": "address"
        },
        {
          "indexed": false,
          "internalType": "uint256",
          "name": "amount",
          "type": "uint256"
        },
        {
          "indexed": false,
          "internalType": "uint256",
          "name": "drawId",
          "type": "uint256"
        }
      ],
      "name": "FeeCollected",
      "type": "event"
    },
    {
      "anonymous": false,
      "inputs": [
        {
          "indexed": true,
          "internalType": "address",
          "name": "feeBeneficiary",
          "type": "address"
        }
      ],
      "name": "NextFeeBeneficiaryChanged",
      "type": "event"
    },
    {
      "anonymous": false,
      "inputs": [
        {
          "indexed": false,
          "internalType": "uint256",
          "name": "feeFraction",
          "type": "uint256"
        }
      ],
      "name": "NextFeeFractionChanged",
      "type": "event"
    },
    {
      "anonymous": false,
      "inputs": [
        {
          "indexed": true,
          "internalType": "address",
          "name": "sender",
          "type": "address"
        },
        {
          "indexed": false,
          "internalType": "uint256",
          "name": "amount",
          "type": "uint256"
        }
      ],
      "name": "OpenDepositWithdrawn",
      "type": "event"
    },
    {
      "anonymous": false,
      "inputs": [
        {
          "indexed": true,
          "internalType": "uint256",
          "name": "drawId",
          "type": "uint256"
        },
        {
          "indexed": true,
          "internalType": "address",
          "name": "feeBeneficiary",
          "type": "address"
        },
        {
          "indexed": false,
          "internalType": "bytes32",
          "name": "secretHash",
          "type": "bytes32"
        },
        {
          "indexed": false,
          "internalType": "uint256",
          "name": "feeFraction",
          "type": "uint256"
        }
      ],
      "name": "Opened",
      "type": "event"
    },
    {
      "anonymous": false,
      "inputs": [
        {
          "indexed": true,
          "internalType": "uint256",
          "name": "drawId",
          "type": "uint256"
        },
        {
          "indexed": true,
          "internalType": "address",
          "name": "winner",
          "type": "address"
        },
        {
          "indexed": true,
          "internalType": "address",
          "name": "impl",
          "type": "address"
        }
      ],
      "name": "RewardListenerFailed",
      "type": "event"
    },
    {
      "anonymous": false,
      "inputs": [
        {
          "indexed": true,
          "internalType": "uint256",
          "name": "drawId",
          "type": "uint256"
        },
        {
          "indexed": true,
          "internalType": "address",
          "name": "winner",
          "type": "address"
        },
        {
          "indexed": false,
          "internalType": "bytes32",
          "name": "entropy",
          "type": "bytes32"
        },
        {
          "indexed": false,
          "internalType": "uint256",
          "name": "winnings",
          "type": "uint256"
        },
        {
          "indexed": false,
          "internalType": "uint256",
          "name": "fee",
          "type": "uint256"
        }
      ],
      "name": "Rewarded",
      "type": "event"
    },
    {
      "anonymous": false,
      "inputs": [
        {
          "indexed": true,
          "internalType": "uint256",
          "name": "drawId",
          "type": "uint256"
        }
      ],
      "name": "RolledOver",
      "type": "event"
    },
    {
      "anonymous": false,
      "inputs": [
        {
          "indexed": true,
          "internalType": "address",
          "name": "sender",
          "type": "address"
        },
        {
          "indexed": false,
          "internalType": "uint256",
          "name": "amount",
          "type": "uint256"
        }
      ],
      "name": "SponsorshipAndFeesWithdrawn",
      "type": "event"
    },
    {
      "anonymous": false,
      "inputs": [
        {
          "indexed": true,
          "internalType": "address",
          "name": "sender",
          "type": "address"
        },
        {
          "indexed": false,
          "internalType": "uint256",
          "name": "amount",
          "type": "uint256"
        }
      ],
      "name": "SponsorshipDeposited",
      "type": "event"
    },
    {
      "anonymous": false,
      "inputs": [
        {
          "indexed": true,
          "internalType": "address",
          "name": "sender",
          "type": "address"
        },
        {
          "indexed": false,
          "internalType": "uint256",
          "name": "amount",
          "type": "uint256"
        }
      ],
      "name": "Withdrawn",
      "type": "event"
    },
    {
      "constant": true,
      "inputs": [],
      "name": "accountedBalance",
      "outputs": [
        {
          "internalType": "uint256",
          "name": "",
          "type": "uint256"
        }
      ],
      "payable": false,
      "stateMutability": "view",
      "type": "function"
    },
    {
      "constant": false,
      "inputs": [
        {
          "internalType": "address",
          "name": "_admin",
          "type": "address"
        }
      ],
      "name": "addAdmin",
      "outputs": [],
      "payable": false,
      "stateMutability": "nonpayable",
      "type": "function"
    },
    {
      "constant": false,
      "inputs": [],
      "name": "balance",
      "outputs": [
        {
          "internalType": "uint256",
          "name": "",
          "type": "uint256"
        }
      ],
      "payable": false,
      "stateMutability": "nonpayable",
      "type": "function"
    },
    {
      "constant": true,
      "inputs": [
        {
          "internalType": "address",
          "name": "_addr",
          "type": "address"
        }
      ],
      "name": "balanceOf",
      "outputs": [
        {
          "internalType": "uint256",
          "name": "",
          "type": "uint256"
        }
      ],
      "payable": false,
      "stateMutability": "view",
      "type": "function"
    },
    {
      "constant": true,
      "inputs": [],
      "name": "cToken",
      "outputs": [
        {
          "internalType": "contract ICErc20",
          "name": "",
          "type": "address"
        }
      ],
      "payable": false,
      "stateMutability": "view",
      "type": "function"
    },
    {
      "constant": true,
      "inputs": [
        {
          "internalType": "bytes32",
          "name": "_entropy",
          "type": "bytes32"
        }
      ],
      "name": "calculateWinner",
      "outputs": [
        {
          "internalType": "address",
          "name": "",
          "type": "address"
        }
      ],
      "payable": false,
      "stateMutability": "view",
      "type": "function"
    },
    {
      "constant": true,
      "inputs": [],
      "name": "canLock",
      "outputs": [
        {
          "internalType": "bool",
          "name": "",
          "type": "bool"
        }
      ],
      "payable": false,
      "stateMutability": "view",
      "type": "function"
    },
    {
      "constant": true,
      "inputs": [
        {
          "internalType": "address",
          "name": "_addr",
          "type": "address"
        }
      ],
      "name": "committedBalanceOf",
      "outputs": [
        {
          "internalType": "uint256",
          "name": "",
          "type": "uint256"
        }
      ],
      "payable": false,
      "stateMutability": "view",
      "type": "function"
    },
    {
      "constant": true,
      "inputs": [],
      "name": "committedSupply",
      "outputs": [
        {
          "internalType": "uint256",
          "name": "",
          "type": "uint256"
        }
      ],
      "payable": false,
      "stateMutability": "view",
      "type": "function"
    },
    {
      "constant": true,
      "inputs": [],
      "name": "cooldownDuration",
      "outputs": [
        {
          "internalType": "uint256",
          "name": "",
          "type": "uint256"
        }
      ],
      "payable": false,
      "stateMutability": "view",
      "type": "function"
    },
    {
      "constant": true,
      "inputs": [],
      "name": "cooldownEndAt",
      "outputs": [
        {
          "internalType": "uint256",
          "name": "",
          "type": "uint256"
        }
      ],
      "payable": false,
      "stateMutability": "view",
      "type": "function"
    },
    {
      "constant": true,
      "inputs": [],
      "name": "currentCommittedDrawId",
      "outputs": [
        {
          "internalType": "uint256",
          "name": "",
          "type": "uint256"
        }
      ],
      "payable": false,
      "stateMutability": "view",
      "type": "function"
    },
    {
      "constant": true,
      "inputs": [],
      "name": "currentOpenDrawId",
      "outputs": [
        {
          "internalType": "uint256",
          "name": "",
          "type": "uint256"
        }
      ],
      "payable": false,
      "stateMutability": "view",
      "type": "function"
    },
    {
      "constant": false,
      "inputs": [
        {
          "internalType": "uint256",
          "name": "_amount",
          "type": "uint256"
        }
      ],
      "name": "depositPool",
      "outputs": [],
      "payable": false,
      "stateMutability": "nonpayable",
      "type": "function"
    },
    {
      "constant": false,
      "inputs": [
        {
          "internalType": "uint256",
          "name": "_amount",
          "type": "uint256"
        }
      ],
      "name": "depositSponsorship",
      "outputs": [],
      "payable": false,
      "stateMutability": "nonpayable",
      "type": "function"
    },
    {
      "constant": true,
      "inputs": [
        {
          "internalType": "uint256",
          "name": "_blocks",
          "type": "uint256"
        }
      ],
      "name": "estimatedInterestRate",
      "outputs": [
        {
          "internalType": "uint256",
          "name": "",
          "type": "uint256"
        }
      ],
      "payable": false,
      "stateMutability": "view",
      "type": "function"
    },
    {
      "constant": true,
      "inputs": [
        {
          "internalType": "uint256",
          "name": "_drawId",
          "type": "uint256"
        }
      ],
      "name": "getDraw",
      "outputs": [
        {
          "internalType": "uint256",
          "name": "feeFraction",
          "type": "uint256"
        },
        {
          "internalType": "address",
          "name": "feeBeneficiary",
          "type": "address"
        },
        {
          "internalType": "uint256",
          "name": "openedBlock",
          "type": "uint256"
        },
        {
          "internalType": "bytes32",
          "name": "secretHash",
          "type": "bytes32"
        },
        {
          "internalType": "bytes32",
          "name": "entropy",
          "type": "bytes32"
        },
        {
          "internalType": "address",
          "name": "winner",
          "type": "address"
        },
        {
          "internalType": "uint256",
          "name": "netWinnings",
          "type": "uint256"
        },
        {
          "internalType": "uint256",
          "name": "fee",
          "type": "uint256"
        }
      ],
      "payable": false,
      "stateMutability": "view",
      "type": "function"
    },
    {
      "constant": false,
      "inputs": [
        {
          "internalType": "address",
          "name": "_owner",
          "type": "address"
        },
        {
          "internalType": "address",
          "name": "_cToken",
          "type": "address"
        },
        {
          "internalType": "uint256",
          "name": "_feeFraction",
          "type": "uint256"
        },
        {
          "internalType": "address",
          "name": "_feeBeneficiary",
          "type": "address"
        },
        {
          "internalType": "uint256",
          "name": "_lockDuration",
          "type": "uint256"
        },
        {
          "internalType": "uint256",
          "name": "_cooldownDuration",
          "type": "uint256"
        }
      ],
      "name": "init",
      "outputs": [],
      "payable": false,
      "stateMutability": "nonpayable",
      "type": "function"
    },
    {
      "constant": false,
      "inputs": [],
      "name": "initialize",
      "outputs": [],
      "payable": false,
      "stateMutability": "nonpayable",
      "type": "function"
    },
    {
      "constant": true,
      "inputs": [
        {
          "internalType": "address",
          "name": "_admin",
          "type": "address"
        }
      ],
      "name": "isAdmin",
      "outputs": [
        {
          "internalType": "bool",
          "name": "",
          "type": "bool"
        }
      ],
      "payable": false,
      "stateMutability": "view",
      "type": "function"
    },
    {
      "constant": true,
      "inputs": [],
      "name": "isLocked",
      "outputs": [
        {
          "internalType": "bool",
          "name": "",
          "type": "bool"
        }
      ],
      "payable": false,
      "stateMutability": "view",
      "type": "function"
    },
    {
      "constant": true,
      "inputs": [],
      "name": "lockDuration",
      "outputs": [
        {
          "internalType": "uint256",
          "name": "",
          "type": "uint256"
        }
      ],
      "payable": false,
      "stateMutability": "view",
      "type": "function"
    },
    {
      "constant": true,
      "inputs": [],
      "name": "lockEndAt",
      "outputs": [
        {
          "internalType": "uint256",
          "name": "",
          "type": "uint256"
        }
      ],
      "payable": false,
      "stateMutability": "view",
      "type": "function"
    },
    {
      "constant": false,
      "inputs": [],
      "name": "lockTokens",
      "outputs": [],
      "payable": false,
      "stateMutability": "nonpayable",
      "type": "function"
    },
    {
      "constant": false,
      "inputs": [
        {
          "internalType": "address",
          "name": "_from",
          "type": "address"
        },
        {
          "internalType": "address",
          "name": "_to",
          "type": "address"
        },
        {
          "internalType": "uint256",
          "name": "_amount",
          "type": "uint256"
        }
      ],
      "name": "moveCommitted",
      "outputs": [
        {
          "internalType": "bool",
          "name": "",
          "type": "bool"
        }
      ],
      "payable": false,
      "stateMutability": "nonpayable",
      "type": "function"
    },
    {
      "constant": true,
      "inputs": [],
      "name": "nextFeeBeneficiary",
      "outputs": [
        {
          "internalType": "address",
          "name": "",
          "type": "address"
        }
      ],
      "payable": false,
      "stateMutability": "view",
      "type": "function"
    },
    {
      "constant": true,
      "inputs": [],
      "name": "nextFeeFraction",
      "outputs": [
        {
          "internalType": "uint256",
          "name": "",
          "type": "uint256"
        }
      ],
      "payable": false,
      "stateMutability": "view",
      "type": "function"
    },
    {
      "constant": true,
      "inputs": [
        {
          "internalType": "address",
          "name": "_addr",
          "type": "address"
        }
      ],
      "name": "openBalanceOf",
      "outputs": [
        {
          "internalType": "uint256",
          "name": "",
          "type": "uint256"
        }
      ],
      "payable": false,
      "stateMutability": "view",
      "type": "function"
    },
    {
      "constant": false,
      "inputs": [
        {
          "internalType": "bytes32",
          "name": "nextSecretHash",
          "type": "bytes32"
        }
      ],
      "name": "openNextDraw",
      "outputs": [],
      "payable": false,
      "stateMutability": "nonpayable",
      "type": "function"
    },
    {
      "constant": true,
      "inputs": [],
      "name": "openSupply",
      "outputs": [
        {
          "internalType": "uint256",
          "name": "",
          "type": "uint256"
        }
      ],
      "payable": false,
      "stateMutability": "view",
      "type": "function"
    },
    {
      "constant": false,
      "inputs": [],
      "name": "pauseDeposits",
      "outputs": [],
      "payable": false,
      "stateMutability": "nonpayable",
      "type": "function"
    },
    {
      "constant": true,
      "inputs": [],
      "name": "paused",
      "outputs": [
        {
          "internalType": "bool",
          "name": "",
          "type": "bool"
        }
      ],
      "payable": false,
      "stateMutability": "view",
      "type": "function"
    },
    {
      "constant": true,
      "inputs": [],
      "name": "poolToken",
      "outputs": [
        {
          "internalType": "contract PoolToken",
          "name": "",
          "type": "address"
        }
      ],
      "payable": false,
      "stateMutability": "view",
      "type": "function"
    },
    {
      "constant": false,
      "inputs": [
        {
          "internalType": "address",
          "name": "_admin",
          "type": "address"
        }
      ],
      "name": "removeAdmin",
      "outputs": [],
      "payable": false,
      "stateMutability": "nonpayable",
      "type": "function"
    },
    {
      "constant": false,
      "inputs": [
        {
          "internalType": "bytes32",
          "name": "_secret",
          "type": "bytes32"
        },
        {
          "internalType": "bytes32",
          "name": "_salt",
          "type": "bytes32"
        }
      ],
      "name": "reward",
      "outputs": [],
      "payable": false,
      "stateMutability": "nonpayable",
      "type": "function"
    },
    {
      "constant": false,
      "inputs": [
        {
          "internalType": "bytes32",
          "name": "nextSecretHash",
          "type": "bytes32"
        },
        {
          "internalType": "bytes32",
          "name": "lastSecret",
          "type": "bytes32"
        },
        {
          "internalType": "bytes32",
          "name": "_salt",
          "type": "bytes32"
        }
      ],
      "name": "rewardAndOpenNextDraw",
      "outputs": [],
      "payable": false,
      "stateMutability": "nonpayable",
      "type": "function"
    },
    {
      "constant": false,
      "inputs": [],
      "name": "rollover",
      "outputs": [],
      "payable": false,
      "stateMutability": "nonpayable",
      "type": "function"
    },
    {
      "constant": false,
      "inputs": [
        {
          "internalType": "bytes32",
          "name": "nextSecretHash",
          "type": "bytes32"
        }
      ],
      "name": "rolloverAndOpenNextDraw",
      "outputs": [],
      "payable": false,
      "stateMutability": "nonpayable",
      "type": "function"
    },
    {
      "constant": false,
      "inputs": [
        {
          "internalType": "address",
          "name": "_feeBeneficiary",
          "type": "address"
        }
      ],
      "name": "setNextFeeBeneficiary",
      "outputs": [],
      "payable": false,
      "stateMutability": "nonpayable",
      "type": "function"
    },
    {
      "constant": false,
      "inputs": [
        {
          "internalType": "uint256",
          "name": "_feeFraction",
          "type": "uint256"
        }
      ],
      "name": "setNextFeeFraction",
      "outputs": [],
      "payable": false,
      "stateMutability": "nonpayable",
      "type": "function"
    },
    {
      "constant": false,
      "inputs": [
        {
          "internalType": "contract PoolToken",
          "name": "_poolToken",
          "type": "address"
        }
      ],
      "name": "setPoolToken",
      "outputs": [],
      "payable": false,
      "stateMutability": "nonpayable",
      "type": "function"
    },
    {
      "constant": true,
      "inputs": [
        {
          "internalType": "address",
          "name": "_sender",
          "type": "address"
        }
      ],
      "name": "sponsorshipAndFeeBalanceOf",
      "outputs": [
        {
          "internalType": "uint256",
          "name": "",
          "type": "uint256"
        }
      ],
      "payable": false,
      "stateMutability": "view",
      "type": "function"
    },
    {
      "constant": true,
      "inputs": [],
      "name": "supplyRatePerBlock",
      "outputs": [
        {
          "internalType": "uint256",
          "name": "",
          "type": "uint256"
        }
      ],
      "payable": false,
      "stateMutability": "view",
      "type": "function"
    },
    {
      "constant": true,
      "inputs": [],
      "name": "token",
      "outputs": [
        {
          "internalType": "contract IERC20",
          "name": "",
          "type": "address"
        }
      ],
      "payable": false,
      "stateMutability": "view",
      "type": "function"
    },
    {
      "constant": true,
      "inputs": [
        {
          "internalType": "address",
          "name": "_addr",
          "type": "address"
        }
      ],
      "name": "totalBalanceOf",
      "outputs": [
        {
          "internalType": "uint256",
          "name": "",
          "type": "uint256"
        }
      ],
      "payable": false,
      "stateMutability": "view",
      "type": "function"
    },
    {
      "constant": false,
      "inputs": [],
      "name": "transferBalanceToSponsorship",
      "outputs": [],
      "payable": false,
      "stateMutability": "nonpayable",
      "type": "function"
    },
    {
      "constant": false,
      "inputs": [],
      "name": "unlockTokens",
      "outputs": [],
      "payable": false,
      "stateMutability": "nonpayable",
      "type": "function"
    },
    {
      "constant": false,
      "inputs": [],
      "name": "unpauseDeposits",
      "outputs": [],
      "payable": false,
      "stateMutability": "nonpayable",
      "type": "function"
    },
    {
      "constant": false,
      "inputs": [],
      "name": "withdraw",
      "outputs": [],
      "payable": false,
      "stateMutability": "nonpayable",
      "type": "function"
    },
    {
      "constant": false,
      "inputs": [
        {
          "internalType": "uint256",
          "name": "_amount",
          "type": "uint256"
        }
      ],
      "name": "withdrawCommittedDeposit",
      "outputs": [
        {
          "internalType": "bool",
          "name": "",
          "type": "bool"
        }
      ],
      "payable": false,
      "stateMutability": "nonpayable",
      "type": "function"
    },
    {
      "constant": false,
      "inputs": [
        {
          "internalType": "address",
          "name": "_from",
          "type": "address"
        },
        {
          "internalType": "uint256",
          "name": "_amount",
          "type": "uint256"
        }
      ],
      "name": "withdrawCommittedDepositFrom",
      "outputs": [
        {
          "internalType": "bool",
          "name": "",
          "type": "bool"
        }
      ],
      "payable": false,
      "stateMutability": "nonpayable",
      "type": "function"
    },
    {
      "constant": false,
      "inputs": [
        {
          "internalType": "uint256",
          "name": "_amount",
          "type": "uint256"
        }
      ],
      "name": "withdrawOpenDeposit",
      "outputs": [],
      "payable": false,
      "stateMutability": "nonpayable",
      "type": "function"
    },
    {
      "constant": false,
      "inputs": [
        {
          "internalType": "uint256",
          "name": "_amount",
          "type": "uint256"
        }
      ],
      "name": "withdrawSponsorshipAndFee",
      "outputs": [],
      "payable": false,
      "stateMutability": "nonpayable",
      "type": "function"
    }
  ],
  "bytecode": "0x608060405234801561001057600080fd5b50614135806100206000396000f3fe608060405234801561001057600080fd5b50600436106103275760003560e01c806370480275116101b8578063a423cd2911610104578063be6307c8116100a2578063cfb510521161007c578063cfb51052146107ec578063e8f099f41461080f578063f968f49314610817578063fc0c546a1461081f57610327565b8063be6307c814610758578063c1ebb4ac146107c7578063cbdf382c146107e457610327565b8063ac2defea116100de578063ac2defea14610723578063ae9d70b014610740578063b056b49a14610748578063b69ef8a81461075057610327565b8063a423cd29146106a5578063a4e2d634146106d1578063a6912100146106d957610327565b8063815d85d21161017157806395cad80d1161014b57806395cad80d146106425780639ad8bd781461064a5780639e63a8c514610652578063a3aac0e21461068857610327565b8063815d85d2146105f4578063944b14791461061d5780639512cb221461063a57610327565b8063704802751461057b57806370a08231146105a157806377bbb757146105c757806379f08771146105a15780637f77fc4d146105e45780638129fc1c146105ec57610327565b80633c4be957116102775780634b0ee02a116102305780635c975abb1161020a5780635c975abb1461053f57806363d8882a1461054757806369e527da1461054f5780636cbb721f1461057357610327565b80634b0ee02a146104cd57806350193485146104f3578063569afbc81461051957610327565b80633c4be957146104405780633ccfd60b1461045d5780633d3d6a1a14610465578063426d58e51461048b578063435edacd146104a857806347800068146104c557610327565b80631785f53c116102e4578063304c9670116102be578063304c96701461040257806333ce01fd1461040a57806335269315146104305780633c10e5601461043857610327565b80631785f53c1461038557806323440944146103ab57806324d7806c146103c857610327565b8063021919801461032c57806304554443146103365780630937eb54146103505780630a56293d146103585780630ea0ffc41461036057806314f74b8c1461037d575b600080fd5b610334610827565b005b61033e6108f8565b60408051918252519081900360200190f35b61033e6108ff565b610334610905565b6103346004803603602081101561037657600080fd5b50356109c6565b61033e610a80565b6103346004803603602081101561039b57600080fd5b50356001600160a01b0316610a86565b610334600480360360208110156103c157600080fd5b5035610bc0565b6103ee600480360360208110156103de57600080fd5b50356001600160a01b0316610d8a565b604080519115158252519081900360200190f35b61033e610da5565b6103346004803603602081101561042057600080fd5b50356001600160a01b0316610dab565b61033e610f2f565b61033e610f35565b6103346004803603602081101561045657600080fd5b5035610f46565b610334610fe0565b6103346004803603602081101561047b57600080fd5b50356001600160a01b03166112d0565b610334600480360360208110156104a157600080fd5b5035611328565b6103ee600480360360208110156104be57600080fd5b5035611450565b61033e6115a7565b61033e600480360360208110156104e357600080fd5b50356001600160a01b031661162c565b61033e6004803603602081101561050957600080fd5b50356001600160a01b0316611647565b61033e6004803603602081101561052f57600080fd5b50356001600160a01b03166116de565b6103ee611797565b6103346117a0565b610557611871565b604080516001600160a01b039092168252519081900360200190f35b6103ee611880565b6103346004803603602081101561059157600080fd5b50356001600160a01b03166118dc565b61033e600480360360208110156105b757600080fd5b50356001600160a01b0316611934565b61033e600480360360208110156105dd57600080fd5b5035611999565b61033e6119b3565b6103346119d8565b6103346004803603606081101561060a57600080fd5b5080359060208101359060400135611a7e565b6103346004803603602081101561063357600080fd5b5035611ae5565b61033e611b3d565b610334611b49565b610557611c25565b6103ee6004803603606081101561066857600080fd5b506001600160a01b03813581169160208101359091169060400135611c34565b6103346004803603602081101561069e57600080fd5b5035611fde565b6103ee600480360360408110156106bb57600080fd5b506001600160a01b03813516906020013561203e565b6103ee612168565b610334600480360360c08110156106ef57600080fd5b506001600160a01b038135811691602081013582169160408201359160608101359091169060808101359060a001356121c3565b6105576004803603602081101561073957600080fd5b5035612346565b61033e6123a2565b6103346123fb565b61033e612575565b6107756004803603602081101561076e57600080fd5b50356125d5565b604080519889526001600160a01b0397881660208a0152888101969096526060880194909452608087019290925290931660a085015260c084019290925260e083019190915251908190036101000190f35b610334600480360360208110156107dd57600080fd5b5035612625565b6105576126ed565b6103346004803603604081101561080257600080fd5b50803590602001356126fc565b61033e612cb6565b610334612d0a565b610557612db1565b60735460ff161561086f576040805162461bcd60e51b815260206004820152600d60248201526c141bdbdb0bd90b5c185d5cd959609a1b604482015290519081900360640190fd5b61088060723363ffffffff612df616565b6108be576040805162461bcd60e51b815260206004820152600a6024820152692837b7b617b0b236b4b760b11b604482015290519081900360640190fd5b6073805460ff1916600117905560405133907feb225a736fbfee3f85ccb72bdf84ff0396ab358b7970e2cc351ab3e3fd92358d90600090a2565b6076545b90565b60695481565b61091660723363ffffffff612df616565b610954576040805162461bcd60e51b815260206004820152600a6024820152692837b7b617b0b236b4b760b11b604482015290519081900360640190fd5b60408051633e825e6d60e01b815260746004820152436024820152905173__Blocklock_____________________________91633e825e6d916044808301926000929190829003018186803b1580156109ac57600080fd5b505af41580156109c0573d6000803e3d6000fd5b50505050565b604080516383e8aad560e01b8152606c600482015233602482015260448101839052905173__DrawManager___________________________916383e8aad5916064808301926000929190829003018186803b158015610a2557600080fd5b505af4158015610a39573d6000803e3d6000fd5b50505050610a473382612e5d565b60408051828152905133917f377533556d4ebd6be8b81e3573fd7e7bf70feb8737df314e8e7953cbb395f004919081900360200190a250565b60685481565b610a9760723363ffffffff612df616565b610ad5576040805162461bcd60e51b815260206004820152600a6024820152692837b7b617b0b236b4b760b11b604482015290519081900360640190fd5b610ae660728263ffffffff612df616565b610b27576040805162461bcd60e51b815260206004820152600d60248201526c2837b7b617b73796b0b236b4b760991b604482015290519081900360640190fd5b6001600160a01b038116331415610b78576040805162461bcd60e51b815260206004820152601060248201526f2837b7b617b932b6b7bb3296b9b2b63360811b604482015290519081900360640190fd5b610b8960728263ffffffff61308816565b6040516001600160a01b038216907fa3b62bc36326052d97ea62d63c3d60308ed4c3ea8ac079dd8499f1e9c4f80c0f90600090a250565b610bc8610da5565b610c08576040805162461bcd60e51b815260206004820152600c60248201526b2837b7b617b73796b7b832b760a11b604482015290519081900360640190fd5b60735460ff1615610c50576040805162461bcd60e51b815260206004820152600d60248201526c141bdbdb0bd90b5c185d5cd959609a1b604482015290519081900360640190fd5b6033805460010190819055610c63612db1565b604080516323b872dd60e01b81523360048201523060248201526044810185905290516001600160a01b0392909216916323b872dd916064808201926020929091908290030181600087803b158015610cbb57600080fd5b505af1158015610ccf573d6000803e3d6000fd5b505050506040513d6020811015610ce557600080fd5b5051610d26576040805162461bcd60e51b815260206004820152600b60248201526a141bdbdb0bdd0b59985a5b60aa1b604482015290519081900360640190fd5b610d3033836130ef565b6033548114610d86576040805162461bcd60e51b815260206004820152601f60248201527f5265656e7472616e637947756172643a207265656e7472616e742063616c6c00604482015290519081900360640190fd5b5050565b6000610d9d60728363ffffffff612df616565b90505b919050565b60705490565b610dbc60723363ffffffff612df616565b610dfa576040805162461bcd60e51b815260206004820152600a6024820152692837b7b617b0b236b4b760b11b604482015290519081900360640190fd5b6078546001600160a01b031615610e4d576040805162461bcd60e51b8152602060048201526012602482015271141bdbdb0bdd1bdad95b8b5dd85ccb5cd95d60721b604482015290519081900360640190fd5b306001600160a01b0316816001600160a01b03166316f0115b6040518163ffffffff1660e01b815260040160206040518083038186803b158015610e9057600080fd5b505afa158015610ea4573d6000803e3d6000fd5b505050506040513d6020811015610eba57600080fd5b50516001600160a01b031614610f0d576040805162461bcd60e51b81526020600482015260136024820152720a0deded85ee8ded6cadc5adad2e6dac2e8c6d606b1b604482015290519081900360640190fd5b607880546001600160a01b0319166001600160a01b0392909216919091179055565b60775490565b6000610f4160746131bc565b905090565b6000610f51336116de565b905080821115610f9c576040805162461bcd60e51b8152602060048201526011602482015270506f6f6c2f657863656564732d7366656560781b604482015290519081900360640190fd5b610fa63383612e5d565b60408051838152905133917f6a4d2bc0b4e5453e814890ffd34fde45f1820118a5e3e08c8273e6befd8cc050919081900360200190a25050565b60338054600101908190556040805162dec4c960e41b815260746004820152436024820152905173__Blocklock_____________________________91630dec4c90916044808301926020929190829003018186803b15801561104257600080fd5b505af4158015611056573d6000803e3d6000fd5b505050506040513d602081101561106c57600080fd5b5051156110ae576040805162461bcd60e51b815260206004820152600b60248201526a141bdbdb0bdb1bd8dad95960aa1b604482015290519081900360640190fd5b604080516311f43c3360e31b8152606c6004820152336024820152905160009173__DrawManager___________________________91638fa1e19891604480820192602092909190829003018186803b15801561110a57600080fd5b505af415801561111e573d6000803e3d6000fd5b505050506040513d602081101561113457600080fd5b5051336000818152606a6020526040808220548151631326e7a760e21b8152606c6004820152602481019490945290519394509273__DrawManager___________________________92634c9b9e9c926044808301939192829003018186803b1580156111a057600080fd5b505af41580156111b4573d6000803e3d6000fd5b505050506111c23382612e5d565b6078546001600160a01b03161561123f57607854604080516314274ad960e01b81523360048201526024810185905290516001600160a01b03909216916314274ad99160448082019260009290919082900301818387803b15801561122657600080fd5b505af115801561123a573d6000803e3d6000fd5b505050505b60408051828152905133917f7084f5476618d8e60b11ef0d7d3f06914655adb8793e28ff7f018d4c76d505d5919081900360200190a2505060335481146112cd576040805162461bcd60e51b815260206004820152601f60248201527f5265656e7472616e637947756172643a207265656e7472616e742063616c6c00604482015290519081900360640190fd5b50565b6112e160723363ffffffff612df616565b61131f576040805162461bcd60e51b815260206004820152600a6024820152692837b7b617b0b236b4b760b11b604482015290519081900360640190fd5b6112cd81613202565b60735460ff1615611370576040805162461bcd60e51b815260206004820152600d60248201526c141bdbdb0bd90b5c185d5cd959609a1b604482015290519081900360640190fd5b6033805460010190819055611383612db1565b604080516323b872dd60e01b81523360048201523060248201526044810185905290516001600160a01b0392909216916323b872dd916064808201926020929091908290030181600087803b1580156113db57600080fd5b505af11580156113ef573d6000803e3d6000fd5b505050506040513d602081101561140557600080fd5b5051611446576040805162461bcd60e51b815260206004820152600b60248201526a141bdbdb0bdd0b59985a5b60aa1b604482015290519081900360640190fd5b610d303383613297565b6040805162dec4c960e41b815260746004820152436024820152905160009173__Blocklock_____________________________91630dec4c9091604480820192602092909190829003018186803b1580156114ab57600080fd5b505af41580156114bf573d6000803e3d6000fd5b505050506040513d60208110156114d557600080fd5b505115611517576040805162461bcd60e51b815260206004820152600b60248201526a141bdbdb0bdb1bd8dad95960aa1b604482015290519081900360640190fd5b61152133836132e4565b506078546001600160a01b03161561159f57607854604080516314274ad960e01b81523360048201526024810185905290516001600160a01b03909216916314274ad99160448082019260009290919082900301818387803b15801561158657600080fd5b505af115801561159a573d6000803e3d6000fd5b505050505b506001919050565b6000606c73__DrawManager___________________________63ed21d6ea90916040518263ffffffff1660e01b81526004018082815260200191505060206040518083038186803b1580156115fb57600080fd5b505af415801561160f573d6000803e3d6000fd5b505050506040513d602081101561162557600080fd5b5051905090565b6001600160a01b03166000908152606a602052604090205490565b6040805163713b41f560e11b8152606c60048201526001600160a01b0383166024820152905160009173__DrawManager___________________________9163e27683ea91604480820192602092909190829003018186803b1580156116ac57600080fd5b505af41580156116c0573d6000803e3d6000fd5b505050506040513d60208110156116d657600080fd5b505192915050565b604080516305a094bf60e51b8152606c60048201526001600160a01b03831660248201529051600091610d9d9173__DrawManager___________________________9163b41297e0916044808301926020929190829003018186803b15801561174657600080fd5b505af415801561175a573d6000803e3d6000fd5b505050506040513d602081101561177057600080fd5b50516001600160a01b0384166000908152606a60205260409020549063ffffffff6133b916565b60735460ff1681565b60735460ff166117eb576040805162461bcd60e51b8152602060048201526011602482015270141bdbdb0bd90b5b9bdd0b5c185d5cd959607a1b604482015290519081900360640190fd5b6117fc60723363ffffffff612df616565b61183a576040805162461bcd60e51b815260206004820152600a6024820152692837b7b617b0b236b4b760b11b604482015290519081900360640190fd5b6073805460ff1916905560405133907fd92e31f504caf26579aa9a5860a669bf0ccf07c267baa65bc79bf3ee57cfa27c90600090a2565b6066546001600160a01b031681565b60408051631307db5360e11b815260746004820152436024820152905160009173__Blocklock_____________________________9163260fb6a691604480820192602092909190829003018186803b1580156115fb57600080fd5b6118ed60723363ffffffff612df616565b61192b576040805162461bcd60e51b815260206004820152600a6024820152692837b7b617b0b236b4b760b11b604482015290519081900360640190fd5b6112cd816133fb565b604080516311f43c3360e31b8152606c60048201526001600160a01b0383166024820152905160009173__DrawManager___________________________91638fa1e19891604480820192602092909190829003018186803b1580156116ac57600080fd5b6000610d9d826119a76123a2565b9063ffffffff61344316565b60006001606c6004015411156119d05750607054600019016108fc565b5060006108fc565b600054610100900460ff16806119f157506119f161349c565b806119ff575060005460ff16155b611a3a5760405162461bcd60e51b815260040180806020018281038252602e8152602001806140d3602e913960400191505060405180910390fd5b600054610100900460ff16158015611a65576000805460ff1961ff0019909116610100171660011790555b600160335580156112cd576000805461ff001916905550565b611a8f60723363ffffffff612df616565b611acd576040805162461bcd60e51b815260206004820152600a6024820152692837b7b617b0b236b4b760b11b604482015290519081900360640190fd5b611ad782826126fc565b611ae083612625565b505050565b611af660723363ffffffff612df616565b611b34576040805162461bcd60e51b815260206004820152600a6024820152692837b7b617b0b236b4b760b11b604482015290519081900360640190fd5b6112cd816134a2565b6000610f416074613528565b60735460ff1615611b91576040805162461bcd60e51b815260206004820152600d60248201526c141bdbdb0bd90b5c185d5cd959609a1b604482015290519081900360640190fd5b611c2330611b9d612db1565b6001600160a01b03166370a08231306040518263ffffffff1660e01b815260040180826001600160a01b03166001600160a01b0316815260200191505060206040518083038186803b158015611bf257600080fd5b505afa158015611c06573d6000803e3d6000fd5b505050506040513d6020811015611c1c57600080fd5b5051613297565b565b6067546001600160a01b031681565b6078546000906001600160a01b03163314611c88576040805162461bcd60e51b815260206004820152600f60248201526e2837b7b617b7b7363c96ba37b5b2b760891b604482015290519081900360640190fd5b604080516311f43c3360e31b8152606c60048201526001600160a01b038616602482015290518591849160009173__DrawManager___________________________91638fa1e19891604480820192602092909190829003018186803b158015611cf157600080fd5b505af4158015611d05573d6000803e3d6000fd5b505050506040513d6020811015611d1b57600080fd5b5051905080821115611d67576040805162461bcd60e51b815260206004820152601060248201526f6e6f7420656e6f7567682066756e647360801b604482015290519081900360640190fd5b6040805162dec4c960e41b815260746004820152436024820152905173__Blocklock_____________________________91630dec4c90916044808301926020929190829003018186803b158015611dbe57600080fd5b505af4158015611dd2573d6000803e3d6000fd5b505050506040513d6020811015611de857600080fd5b505115611e2a576040805162461bcd60e51b815260206004820152600b60248201526a141bdbdb0bdb1bd8dad95960aa1b604482015290519081900360640190fd5b604080518082018252601981527f6d6f766520636f756c64206e6f742073756220616d6f756e74000000000000006020808301919091526001600160a01b038a166000908152606a9091529190912054611e8b91879063ffffffff61354716565b6001600160a01b038089166000908152606a60205260408082209390935590881681522054611ec0908663ffffffff6135de16565b6001600160a01b038088166000908152606a60205260408082209390935582516362559ecd60e11b8152606c6004820152918a16602483015260448201889052915173__DrawManager___________________________9263c4ab3d9a9260648082019391829003018186803b158015611f3957600080fd5b505af4158015611f4d573d6000803e3d6000fd5b5050604080516349ec2abb60e11b8152606c60048201526001600160a01b038a16602482015260448101899052905173__DrawManager___________________________93506393d8557692506064808301926000929190829003018186803b158015611fb957600080fd5b505af4158015611fcd573d6000803e3d6000fd5b5060019a9950505050505050505050565b611fef60723363ffffffff612df616565b61202d576040805162461bcd60e51b815260206004820152600a6024820152692837b7b617b0b236b4b760b11b604482015290519081900360640190fd5b6120356123fb565b6112cd81612625565b6078546000906001600160a01b03163314612092576040805162461bcd60e51b815260206004820152600f60248201526e2837b7b617b7b7363c96ba37b5b2b760891b604482015290519081900360640190fd5b6040805162dec4c960e41b815260746004820152436024820152905173__Blocklock_____________________________91630dec4c90916044808301926020929190829003018186803b1580156120e957600080fd5b505af41580156120fd573d6000803e3d6000fd5b505050506040513d602081101561211357600080fd5b505115612155576040805162461bcd60e51b815260206004820152600b60248201526a141bdbdb0bdb1bd8dad95960aa1b604482015290519081900360640190fd5b61215f83836132e4565b90505b92915050565b6040805162dec4c960e41b815260746004820152436024820152905160009173__Blocklock_____________________________91630dec4c9091604480820192602092909190829003018186803b1580156115fb57600080fd5b600054610100900460ff16806121dc57506121dc61349c565b806121ea575060005460ff16155b6122255760405162461bcd60e51b815260040180806020018281038252602e8152602001806140d3602e913960400191505060405180910390fd5b600054610100900460ff16158015612250576000805460ff1961ff0019909116610100171660011790555b6001600160a01b03871661229d576040805162461bcd60e51b815260206004820152600f60248201526e506f6f6c2f6f776e65722d7a65726f60881b604482015290519081900360640190fd5b6001600160a01b0386166122eb576040805162461bcd60e51b815260206004820152601060248201526f506f6f6c2f63746f6b656e2d7a65726f60801b604482015290519081900360640190fd5b606680546001600160a01b0319166001600160a01b03881617905561230f876133fb565b612318856134a2565b61232184613202565b61232b8383613638565b801561233d576000805461ff00191690555b50505050505050565b6000606c73__DrawManager___________________________633484b6bb9091846040518363ffffffff1660e01b8152600401808381526020018281526020019250505060206040518083038186803b1580156116ac57600080fd5b60665460408051630ae9d70b60e41b815290516000926001600160a01b03169163ae9d70b0916004808301926020929190829003018186803b1580156123e757600080fd5b505afa15801561160f573d6000803e3d6000fd5b61240c60723363ffffffff612df616565b61244a576040805162461bcd60e51b815260206004820152600a6024820152692837b7b617b0b236b4b760b11b604482015290519081900360640190fd5b60006124546119b3565b11612497576040805162461bcd60e51b815260206004820152600e60248201526d141bdbdb0bd8dbdb5b5a5d1d195960921b604482015290519081900360640190fd5b61249f61371e565b156124e0576040805162461bcd60e51b815260206004820152600c60248201526b506f6f6c2f616c726561647960a01b604482015290519081900360640190fd5b60006124ea6119b3565b6000818152606b60205260408082206001600482015590519293509183917f53d7daff7a7443f21eac131333ba8e4123eccaca1ca37c67665dca97f990f6f091a26040805160018152600060208201819052818301819052915184917f39d270b67baa0bff7a394d3427e52a85d706cae15e649754ec7b54f3c9deb3f0919081900360600190a35050565b60665460408051633af9e66960e01b815230600482015290516000926001600160a01b031691633af9e66991602480830192602092919082900301818787803b1580156125c157600080fd5b505af115801561160f573d6000803e3d6000fd5b6000908152606b60205260409020805460018201546002830154600384015460048501546005860154600687015460079097015495976001600160a01b0395861697949693959294929091169290565b61263660723363ffffffff612df616565b612674576040805162461bcd60e51b815260206004820152600a6024820152692837b7b617b0b236b4b760b11b604482015290519081900360640190fd5b600061267e6119b3565b11156126cf5761268c61371e565b6126cf576040805162461bcd60e51b815260206004820152600f60248201526e141bdbdb0bdb9bdd0b5c995dd85c99608a1b604482015290519081900360640190fd5b6126d7610da5565b156126e4576126e4613749565b6112cd816137fc565b6078546001600160a01b031681565b61270d60723363ffffffff612df616565b61274b576040805162461bcd60e51b815260206004820152600a6024820152692837b7b617b0b236b4b760b11b604482015290519081900360640190fd5b6040805162dec4c960e41b815260746004820152436024820152905173__Blocklock_____________________________91630dec4c90916044808301926020929190829003018186803b1580156127a257600080fd5b505af41580156127b6573d6000803e3d6000fd5b505050506040513d60208110156127cc57600080fd5b505161280f576040805162461bcd60e51b815260206004820152600d60248201526c141bdbdb0bdd5b9b1bd8dad959609a1b604482015290519081900360640190fd5b60006128196119b3565b1161285c576040805162461bcd60e51b815260206004820152600e60248201526d141bdbdb0bd8dbdb5b5a5d1d195960921b604482015290519081900360640190fd5b61286461371e565b156128a5576040805162461bcd60e51b815260206004820152600c60248201526b506f6f6c2f616c726561647960a01b604482015290519081900360640190fd5b60338054600101908190556040805163cc89d03b60e01b815260746004820152436024820152905173__Blocklock_____________________________9163cc89d03b916044808301926000929190829003018186803b15801561290857600080fd5b505af415801561291c573d6000803e3d6000fd5b50505050600061292a6119b3565b90506000606b6000838152602001908152602001600020905084846040516020018083815260200182815260200192505050604051602081830303815290604052805190602001208160030154146129bb576040805162461bcd60e51b815260206004820152600f60248201526e141bdbdb0bd898590b5cd958dc995d608a1b604482015290519081900360640190fd5b604080516020808201889052825180830382018152918301909252805191012060006129e682612346565b905060006129f2612575565b90506000606954821115612a2057612a1d612a18606954846133b990919063ffffffff16565b613974565b90505b6000612a308660000154836139ff565b60018701546001600160a01b03166000908152606a6020526040902054909150612a60908263ffffffff6135de16565b60018701546001600160a01b03166000908152606a6020526040812091909155612a90838363ffffffff6133b916565b6005880180546001600160a01b0319166001600160a01b03881690811790915560068901829055600789018490556004890188905590915015801590612ad557508015155b15612ba85760698490556001600160a01b0385166000908152606a6020526040902054612b08908263ffffffff6135de16565b6001600160a01b0386166000818152606a60205260408082209390935582516371a28dbb60e11b8152606c6004820152602481019290925260448201849052915173__DrawManager___________________________9263e3451b769260648082019391829003018186803b158015612b8057600080fd5b505af4158015612b94573d6000803e3d6000fd5b50505050612ba385828a613c0f565b612bbf565b606954612bbb908363ffffffff6135de16565b6069555b604080518781526020810183905280820184905290516001600160a01b038716918a917f39d270b67baa0bff7a394d3427e52a85d706cae15e649754ec7b54f3c9deb3f09181900360600190a3600187015460408051848152602081018b905281516001600160a01b03909316927f108516ddcf5ba43cea6bb2cd5ff6d59ac196c1c86ccb9178332b9dd72d1ca561929181900390910190a250505050505050506033548114611ae0576040805162461bcd60e51b815260206004820152601f60248201527f5265656e7472616e637947756172643a207265656e7472616e742063616c6c00604482015290519081900360640190fd5b6000606c73__DrawManager___________________________63663d9a7a90916040518263ffffffff1660e01b81526004018082815260200191505060206040518083038186803b1580156115fb57600080fd5b612d1b60723363ffffffff612df616565b612d59576040805162461bcd60e51b815260206004820152600a6024820152692837b7b617b0b236b4b760b11b604482015290519081900360640190fd5b6040805163cc89d03b60e01b815260746004820152436024820152905173__Blocklock_____________________________9163cc89d03b916044808301926000929190829003018186803b1580156109ac57600080fd5b60665460408051636f307dc360e01b815290516000926001600160a01b031691636f307dc3916004808301926020929190829003018186803b1580156123e757600080fd5b60006001600160a01b038216612e3d5760405162461bcd60e51b81526004018080602001828103825260228152602001806140b16022913960400191505060405180910390fd5b506001600160a01b03166000908152602091909152604090205460ff1690565b6001600160a01b0382166000908152606a602052604090205480821115612ebb576040805162461bcd60e51b815260206004820152600d60248201526c506f6f6c2f6e6f2d66756e647360981b604482015290519081900360640190fd5b612ecb818363ffffffff6133b916565b6001600160a01b0384166000908152606a6020526040902055606954612ef7908363ffffffff6133b916565b6069556066546040805163852a12e360e01b81526004810185905290516001600160a01b039092169163852a12e3916024808201926020929091908290030181600087803b158015612f4857600080fd5b505af1158015612f5c573d6000803e3d6000fd5b505050506040513d6020811015612f7257600080fd5b505115612fb4576040805162461bcd60e51b815260206004820152600b60248201526a506f6f6c2f72656465656d60a81b604482015290519081900360640190fd5b612fbc612db1565b6001600160a01b031663a9059cbb84846040518363ffffffff1660e01b815260040180836001600160a01b03166001600160a01b0316815260200182815260200192505050602060405180830381600087803b15801561301b57600080fd5b505af115801561302f573d6000803e3d6000fd5b505050506040513d602081101561304557600080fd5b5051611ae0576040805162461bcd60e51b815260206004820152600d60248201526c2837b7b617ba3930b739b332b960991b604482015290519081900360640190fd5b6130928282612df6565b6130cd5760405162461bcd60e51b815260040180806020018281038252602181526020018061406f6021913960400191505060405180910390fd5b6001600160a01b0316600090815260209190915260409020805460ff19169055565b604080516371a28dbb60e11b8152606c60048201526001600160a01b038416602482015260448101839052905173__DrawManager___________________________9163e3451b76916064808301926000929190829003018186803b15801561315757600080fd5b505af415801561316b573d6000803e3d6000fd5b505050506131798282613e10565b6040805182815290516001600160a01b038416917f2da466a7b24304f47e87fa2e1e5a81b9831ce54fec19055ce277ca2f39ba42c4919081900360200190a25050565b6002810154815460009182916131d79163ffffffff6135de16565b905082600001548360010154101580156131f45750808360010154105b15610d9d5750506001015490565b6001600160a01b03811661324d576040805162461bcd60e51b815260206004820152600d60248201526c506f6f6c2f6e6f742d7a65726f60981b604482015290519081900360640190fd5b606780546001600160a01b0319166001600160a01b0383169081179091556040517f4adde74fa6a2bac1c22b89b0488eb67527c033fc6110f443d1424a91a0d41d4590600090a250565b6132a18282613e10565b6040805182815290516001600160a01b038416917f6dd4ea9218ce2f17ec77769fa65225b906e99dd3f597b7e087df3bdd8f7899dd919081900360200190a25050565b604080516362559ecd60e11b8152606c60048201526001600160a01b038416602482015260448101839052905160009173__DrawManager___________________________9163c4ab3d9a916064808201928692909190829003018186803b15801561334f57600080fd5b505af4158015613363573d6000803e3d6000fd5b505050506133718383612e5d565b6040805183815290516001600160a01b038516917f5bd2fe46fdbb7534e8b97cffa63f641b75d3485cba0cfb856f0703409cf65e70919081900360200190a250600192915050565b600061215f83836040518060400160405280601e81526020017f536166654d6174683a207375627472616374696f6e206f766572666c6f770000815250613547565b61340c60728263ffffffff613fed16565b6040516001600160a01b038216907f44d6d25963f097ad14f29f06854a01f575648a1ef82f30e562ccd3889717e33990600090a250565b60008261345257506000612162565b8282028284828161345f57fe5b041461215f5760405162461bcd60e51b81526004018080602001828103825260218152602001806140906021913960400191505060405180910390fd5b303b1590565b670de0b6b3a76400008111156134ed576040805162461bcd60e51b815260206004820152600b60248201526a506f6f6c2f6c6573732d3160a81b604482015290519081900360640190fd5b60688190556040805182815290517f19cbde830537adec39ff348fcf33c89911750be4bc7433a01b3836d71ddb78819181900360200190a150565b6000610d9d826003015461353b846131bc565b9063ffffffff6135de16565b600081848411156135d65760405162461bcd60e51b81526004018080602001828103825283818151815260200191508051906020019080838360005b8381101561359b578181015183820152602001613583565b50505050905090810190601f1680156135c85780820380516001836020036101000a031916815260200191505b509250505060405180910390fd5b505050900390565b60008282018381101561215f576040805162461bcd60e51b815260206004820152601b60248201527f536166654d6174683a206164646974696f6e206f766572666c6f770000000000604482015290519081900360640190fd5b604080516343be6ded60e01b81526074600482015260248101849052905173__Blocklock_____________________________916343be6ded916044808301926000929190829003018186803b15801561369157600080fd5b505af41580156136a5573d6000803e3d6000fd5b505060408051636611206360e01b81526074600482015260248101859052905173__Blocklock_____________________________9350636611206392506044808301926000929190829003018186803b15801561370257600080fd5b505af4158015613716573d6000803e3d6000fd5b505050505050565b600080606b600061372d6119b3565b8152602081019190915260400160002060040154151591505090565b6000613753610da5565b60405190915081907f023ad9f3cfd45bbf91919354cab651602c11b3d4267df2f095331f1e31c0c42990600090a26078546001600160a01b0316156112cd576078546001600160a01b031663a35947096137ab6115a7565b6040518263ffffffff1660e01b815260040180828152602001915050600060405180830381600087803b1580156137e157600080fd5b505af11580156137f5573d6000803e3d6000fd5b5050505050565b60408051630c520e5160e31b8152606c6004820152905173__DrawManager___________________________916362907288916024808301926020929190829003018186803b15801561384e57600080fd5b505af4158015613862573d6000803e3d6000fd5b505050506040513d602081101561387857600080fd5b50506040805161010081018252606880548252606780546001600160a01b039081166020858101918252438688019081526060870189815260006080890181815260a08a0182815260c08b0183815260e08c01848152607080548652606b8952948e90209c518d55975160018d018054918b166001600160a01b0319928316179055955160028d0155935160038c0155905160048b01555160058a01805491881691909416179092555160068801559151600790960195909555915491549254855187815294850152845191169391927f3ba93e35d4f024f23249948504642bc624ab65bc80542daab33f8583f1b8d72f92908290030190a350565b60008073__FixidityLib___________________________63f800d6726040518163ffffffff1660e01b815260040160206040518083038186803b1580156139bb57600080fd5b505af41580156139cf573d6000803e3d6000fd5b505050506040513d60208110156139e557600080fd5b50519050808311156139f8579050610da0565b5090919050565b60008073__FixidityLib___________________________63bd5cbd62846040518263ffffffff1660e01b81526004018082815260200191505060206040518083038186803b158015613a5157600080fd5b505af4158015613a65573d6000803e3d6000fd5b505050506040513d6020811015613a7b57600080fd5b50516040805163d6c1528b60e01b81526004810187905260126024820152905191925060009173__FixidityLib___________________________91633c4308a8918591849163d6c1528b91604480820192602092909190829003018186803b158015613ae757600080fd5b505af4158015613afb573d6000803e3d6000fd5b505050506040513d6020811015613b1157600080fd5b5051604080516001600160e01b031960e086901b16815260048101939093526024830191909152516044808301926020929190829003018186803b158015613b5857600080fd5b505af4158015613b6c573d6000803e3d6000fd5b505050506040513d6020811015613b8257600080fd5b505160408051630e99899360e01b815260048101839052905191925073__FixidityLib___________________________91630e99899391602480820192602092909190829003018186803b158015613bda57600080fd5b505af4158015613bee573d6000803e3d6000fd5b505050506040513d6020811015613c0457600080fd5b505195945050505050565b6040805163555ddc6560e11b81526001600160a01b03851660048201527f68f03b0b1a978ee238a70b362091d993343460bc1a2830ab3f708936d9f564a460248201529051600091731820a4b7618bde71dce8cdc73aab6c95905fad249163aabbb8ca91604480820192602092909190829003018186803b158015613c9357600080fd5b505afa158015613ca7573d6000803e3d6000fd5b505050506040513d6020811015613cbd57600080fd5b505190506001600160a01b038116156109c057604080516001600160a01b03868116602483015260448201869052606480830186905283518084039091018152608490920183526020820180516001600160e01b0316630354092d60e31b178152925182516000949286169362030d40939092918291908083835b60208310613d575780518252601f199092019160209182019101613d38565b6001836020036101000a03801982511681845116808217855250505050505090500191505060006040518083038160008787f1925050503d8060008114613dba576040519150601f19603f3d011682016040523d82523d6000602084013e613dbf565b606091505b50509050806137f557816001600160a01b0316856001600160a01b0316847fea0a60a98b5cdcd8aa181fe33e194645a2f58d715af888f2ad1df758203e14ad60405160405180910390a45050505050565b6001600160a01b0382166000908152606a6020526040902054613e39908263ffffffff6135de16565b6001600160a01b0383166000908152606a6020526040902055606954613e65908263ffffffff6135de16565b606955613e70612db1565b6066546040805163095ea7b360e01b81526001600160a01b039283166004820152602481018590529051929091169163095ea7b3916044808201926020929091908290030181600087803b158015613ec757600080fd5b505af1158015613edb573d6000803e3d6000fd5b505050506040513d6020811015613ef157600080fd5b5051613f33576040805162461bcd60e51b815260206004820152600c60248201526b506f6f6c2f617070726f766560a01b604482015290519081900360640190fd5b6066546040805163140e25ad60e31b81526004810184905290516001600160a01b039092169163a0712d68916024808201926020929091908290030181600087803b158015613f8157600080fd5b505af1158015613f95573d6000803e3d6000fd5b505050506040513d6020811015613fab57600080fd5b505115610d86576040805162461bcd60e51b815260206004820152600b60248201526a506f6f6c2f737570706c7960a81b604482015290519081900360640190fd5b613ff78282612df6565b15614049576040805162461bcd60e51b815260206004820152601f60248201527f526f6c65733a206163636f756e7420616c72656164792068617320726f6c6500604482015290519081900360640190fd5b6001600160a01b0316600090815260209190915260409020805460ff1916600117905556fe526f6c65733a206163636f756e7420646f6573206e6f74206861766520726f6c65536166654d6174683a206d756c7469706c69636174696f6e206f766572666c6f77526f6c65733a206163636f756e7420697320746865207a65726f2061646472657373436f6e747261637420696e7374616e63652068617320616c7265616479206265656e20696e697469616c697a6564a265627a7a72315820af5a23ec7930196210a65745168b4ca97f4057ca0fad05aee0e0c4ef15bf0e1a64736f6c634300050c0032",
  "compiler": {
    "name": "solc",
    "version": "0.5.12+commit.7709ece9.Emscripten.clang",
    "optimizer": {
      "enabled": true,
      "runs": 200
    },
    "evmVersion": "petersburg"
  }
}