{
  "fileName": "RecipientWhitelistPoolToken.sol",
  "contractName": "RecipientWhitelistPoolToken",
  "source": "/**\nCopyright 2019 PoolTogether LLC\n\nThis file is part of PoolTogether.\n\nPoolTogether is free software: you can redistribute it and/or modify\nit under the terms of the GNU General Public License as published by\nthe Free Software Foundation under version 3 of the License.\n\nPoolTogether is distributed in the hope that it will be useful,\nbut WITHOUT ANY WARRANTY; without even the implied warranty of\nMERCHANTABILITY or FITNESS FOR A PARTICULAR PURPOSE.  See the\nGNU General Public License for more details.\n\nYou should have received a copy of the GNU General Public License\nalong with PoolTogether.  If not, see <https://www.gnu.org/licenses/>.\n*/\n\npragma solidity 0.5.12;\n\nimport \"./PoolToken.sol\";\n\n/**\n * @title RecipientWhitelistPoolToken\n * @author Brendan Asselstine\n * @notice Allows the pool admins to only allow token transfers to particular addresses.\n */\ncontract RecipientWhitelistPoolToken is PoolToken {\n  /**\n   * @notice Whether the whitelist is enabled\n   */\n  bool internal _recipientWhitelistEnabled;\n\n  /**\n   * @notice Whether a recipient has been whitelisted\n   */\n  mapping(address => bool) internal _recipientWhitelist;\n\n  /**\n   * @notice Emitted when the whitelist is enabled or disabled\n   * @param admin The admin who affected the change.\n   * @param enabled Whether the whitelist was enabled.\n   */\n  event WhitelistEnabled(address indexed admin, bool enabled);\n\n  /**\n   * @notice Emitted when a recipient whitelist status changes.\n   * @param admin The admin who affected the change\n   * @param recipient The recipient whose whitelisting status was changed\n   * @param whitelisted Whether the recipient was whitelisted\n   */\n  event RecipientWhitelisted(address indexed admin, address indexed recipient, bool whitelisted);\n\n  /**\n   * @notice Returns whether the whitelist is enabled.  If enabled, recipients must be whitelisted in order to receive tokens.\n   * Otherwise if the whitelist is not enabled anyone is able to receive tokens.\n   * @return True if whitelist enabled, false otherwise.\n   */\n  function recipientWhitelistEnabled() public view returns (bool) {\n    return _recipientWhitelistEnabled;\n  }\n\n  /**\n   * @notice Checks whether a recipient has been whitelisted.  This is irrespective of whether whitelisting is enabled or not.\n   * @return True if the recipient has been whitelisted, false otherwise.\n   */\n  function recipientWhitelisted(address _recipient) public view returns (bool) {\n    return _recipientWhitelist[_recipient];\n  }\n\n  /**\n   * @notice Sets whether recipient whitelisting is enabled.  Only callable by the Pool admin.\n   * @param _enabled True if whitelisting should be enabled, false otherwise\n   */\n  function setRecipientWhitelistEnabled(bool _enabled) public onlyAdmin {\n    _recipientWhitelistEnabled = _enabled;\n\n    emit WhitelistEnabled(msg.sender, _enabled);\n  }\n\n  /**\n   * @notice Sets whether the recipient should be whitelisted.  Only callable by the Pool admin.\n   * @param _recipient The recipient to whitelist\n   * @param _whitelisted True if the recipient should be whitelisted, false otherwise\n   */\n  function setRecipientWhitelisted(address _recipient, bool _whitelisted) public onlyAdmin {\n    _recipientWhitelist[_recipient] = _whitelisted;\n\n    emit RecipientWhitelisted(msg.sender, _recipient, _whitelisted);\n  }\n\n  /**\n    * @dev Call from.tokensToSend() if the interface is registered\n    * @param operator address operator requesting the transfer\n    * @param from address token holder address\n    * @param to address recipient address.  Can only be whitelisted addresses, if any\n    * @param amount uint256 amount of tokens to transfer\n    * @param userData bytes extra information provided by the token holder (if any)\n    * @param operatorData bytes extra information provided by the operator (if any)\n    */\n  function _callTokensToSend(\n      address operator,\n      address from,\n      address to,\n      uint256 amount,\n      bytes memory userData,\n      bytes memory operatorData\n  )\n      internal\n  {\n      if (_recipientWhitelistEnabled) {\n        require(to == address(0) || _recipientWhitelist[to], \"Pool/not-list\");\n      }\n      super._callTokensToSend(operator, from, to, amount, userData, operatorData);\n  }\n\n  /**\n   * @notice Requires the caller to be the Pool admin\n   */\n  modifier onlyAdmin() {\n    require(_pool.isAdmin(msg.sender), \"WhitelistToken/is-admin\");\n    _;\n  }\n}\n",
  "sourcePath": "@pooltogether/pooltogether-contracts/contracts/RecipientWhitelistPoolToken.sol",
  "abi": [
    {
      "anonymous": false,
      "inputs": [
        {
          "indexed": true,
          "internalType": "address",
          "name": "owner",
          "type": "address"
        },
        {
          "indexed": true,
          "internalType": "address",
          "name": "spender",
          "type": "address"
        },
        {
          "indexed": false,
          "internalType": "uint256",
          "name": "value",
          "type": "uint256"
        }
      ],
      "name": "Approval",
      "type": "event"
    },
    {
      "anonymous": false,
      "inputs": [
        {
          "indexed": true,
          "internalType": "address",
          "name": "operator",
          "type": "address"
        },
        {
          "indexed": true,
          "internalType": "address",
          "name": "tokenHolder",
          "type": "address"
        }
      ],
      "name": "AuthorizedOperator",
      "type": "event"
    },
    {
      "anonymous": false,
      "inputs": [
        {
          "indexed": true,
          "internalType": "address",
          "name": "operator",
          "type": "address"
        },
        {
          "indexed": true,
          "internalType": "address",
          "name": "from",
          "type": "address"
        },
        {
          "indexed": false,
          "internalType": "uint256",
          "name": "amount",
          "type": "uint256"
        },
        {
          "indexed": false,
          "internalType": "bytes",
          "name": "data",
          "type": "bytes"
        },
        {
          "indexed": false,
          "internalType": "bytes",
          "name": "operatorData",
          "type": "bytes"
        }
      ],
      "name": "Burned",
      "type": "event"
    },
    {
      "anonymous": false,
      "inputs": [
        {
          "indexed": true,
          "internalType": "address",
          "name": "operator",
          "type": "address"
        },
        {
          "indexed": true,
          "internalType": "address",
          "name": "to",
          "type": "address"
        },
        {
          "indexed": false,
          "internalType": "uint256",
          "name": "amount",
          "type": "uint256"
        },
        {
          "indexed": false,
          "internalType": "bytes",
          "name": "data",
          "type": "bytes"
        },
        {
          "indexed": false,
          "internalType": "bytes",
          "name": "operatorData",
          "type": "bytes"
        }
      ],
      "name": "Minted",
      "type": "event"
    },
    {
      "anonymous": false,
      "inputs": [
        {
          "indexed": true,
          "internalType": "address",
          "name": "admin",
          "type": "address"
        },
        {
          "indexed": true,
          "internalType": "address",
          "name": "recipient",
          "type": "address"
        },
        {
          "indexed": false,
          "internalType": "bool",
          "name": "whitelisted",
          "type": "bool"
        }
      ],
      "name": "RecipientWhitelisted",
      "type": "event"
    },
    {
      "anonymous": false,
      "inputs": [
        {
          "indexed": true,
          "internalType": "address",
          "name": "operator",
          "type": "address"
        },
        {
          "indexed": true,
          "internalType": "address",
          "name": "from",
          "type": "address"
        },
        {
          "indexed": false,
          "internalType": "uint256",
          "name": "amount",
          "type": "uint256"
        },
        {
          "indexed": false,
          "internalType": "bytes",
          "name": "data",
          "type": "bytes"
        },
        {
          "indexed": false,
          "internalType": "bytes",
          "name": "operatorData",
          "type": "bytes"
        }
      ],
      "name": "Redeemed",
      "type": "event"
    },
    {
      "anonymous": false,
      "inputs": [
        {
          "indexed": true,
          "internalType": "address",
          "name": "operator",
          "type": "address"
        },
        {
          "indexed": true,
          "internalType": "address",
          "name": "tokenHolder",
          "type": "address"
        }
      ],
      "name": "RevokedOperator",
      "type": "event"
    },
    {
      "anonymous": false,
      "inputs": [
        {
          "indexed": true,
          "internalType": "address",
          "name": "operator",
          "type": "address"
        },
        {
          "indexed": true,
          "internalType": "address",
          "name": "from",
          "type": "address"
        },
        {
          "indexed": true,
          "internalType": "address",
          "name": "to",
          "type": "address"
        },
        {
          "indexed": false,
          "internalType": "uint256",
          "name": "amount",
          "type": "uint256"
        },
        {
          "indexed": false,
          "internalType": "bytes",
          "name": "data",
          "type": "bytes"
        },
        {
          "indexed": false,
          "internalType": "bytes",
          "name": "operatorData",
          "type": "bytes"
        }
      ],
      "name": "Sent",
      "type": "event"
    },
    {
      "anonymous": false,
      "inputs": [
        {
          "indexed": true,
          "internalType": "address",
          "name": "from",
          "type": "address"
        },
        {
          "indexed": true,
          "internalType": "address",
          "name": "to",
          "type": "address"
        },
        {
          "indexed": false,
          "internalType": "uint256",
          "name": "value",
          "type": "uint256"
        }
      ],
      "name": "Transfer",
      "type": "event"
    },
    {
      "anonymous": false,
      "inputs": [
        {
          "indexed": true,
          "internalType": "address",
          "name": "admin",
          "type": "address"
        },
        {
          "indexed": false,
          "internalType": "bool",
          "name": "enabled",
          "type": "bool"
        }
      ],
      "name": "WhitelistEnabled",
      "type": "event"
    },
    {
      "constant": true,
      "inputs": [
        {
          "internalType": "address",
          "name": "holder",
          "type": "address"
        },
        {
          "internalType": "address",
          "name": "spender",
          "type": "address"
        }
      ],
      "name": "allowance",
      "outputs": [
        {
          "internalType": "uint256",
          "name": "",
          "type": "uint256"
        }
      ],
      "payable": false,
      "stateMutability": "view",
      "type": "function"
    },
    {
      "constant": false,
      "inputs": [
        {
          "internalType": "address",
          "name": "spender",
          "type": "address"
        },
        {
          "internalType": "uint256",
          "name": "value",
          "type": "uint256"
        }
      ],
      "name": "approve",
      "outputs": [
        {
          "internalType": "bool",
          "name": "",
          "type": "bool"
        }
      ],
      "payable": false,
      "stateMutability": "nonpayable",
      "type": "function"
    },
    {
      "constant": false,
      "inputs": [
        {
          "internalType": "address",
          "name": "operator",
          "type": "address"
        }
      ],
      "name": "authorizeOperator",
      "outputs": [],
      "payable": false,
      "stateMutability": "nonpayable",
      "type": "function"
    },
    {
      "constant": true,
      "inputs": [
        {
          "internalType": "address",
          "name": "_addr",
          "type": "address"
        }
      ],
      "name": "balanceOf",
      "outputs": [
        {
          "internalType": "uint256",
          "name": "",
          "type": "uint256"
        }
      ],
      "payable": false,
      "stateMutability": "view",
      "type": "function"
    },
    {
      "constant": false,
      "inputs": [
        {
          "internalType": "uint256",
          "name": "",
          "type": "uint256"
        },
        {
          "internalType": "bytes",
          "name": "",
          "type": "bytes"
        }
      ],
      "name": "burn",
      "outputs": [],
      "payable": false,
      "stateMutability": "nonpayable",
      "type": "function"
    },
    {
      "constant": true,
      "inputs": [],
      "name": "decimals",
      "outputs": [
        {
          "internalType": "uint8",
          "name": "",
          "type": "uint8"
        }
      ],
      "payable": false,
      "stateMutability": "view",
      "type": "function"
    },
    {
      "constant": false,
      "inputs": [
        {
          "internalType": "address",
          "name": "spender",
          "type": "address"
        },
        {
          "internalType": "uint256",
          "name": "subtractedValue",
          "type": "uint256"
        }
      ],
      "name": "decreaseAllowance",
      "outputs": [
        {
          "internalType": "bool",
          "name": "",
          "type": "bool"
        }
      ],
      "payable": false,
      "stateMutability": "nonpayable",
      "type": "function"
    },
    {
      "constant": true,
      "inputs": [],
      "name": "defaultOperators",
      "outputs": [
        {
          "internalType": "address[]",
          "name": "",
          "type": "address[]"
        }
      ],
      "payable": false,
      "stateMutability": "view",
      "type": "function"
    },
    {
      "constant": true,
      "inputs": [],
      "name": "granularity",
      "outputs": [
        {
          "internalType": "uint256",
          "name": "",
          "type": "uint256"
        }
      ],
      "payable": false,
      "stateMutability": "view",
      "type": "function"
    },
    {
      "constant": false,
      "inputs": [
        {
          "internalType": "address",
          "name": "spender",
          "type": "address"
        },
        {
          "internalType": "uint256",
          "name": "addedValue",
          "type": "uint256"
        }
      ],
      "name": "increaseAllowance",
      "outputs": [
        {
          "internalType": "bool",
          "name": "",
          "type": "bool"
        }
      ],
      "payable": false,
      "stateMutability": "nonpayable",
      "type": "function"
    },
    {
      "constant": false,
      "inputs": [
        {
          "internalType": "string",
          "name": "name",
          "type": "string"
        },
        {
          "internalType": "string",
          "name": "symbol",
          "type": "string"
        },
        {
          "internalType": "address[]",
          "name": "defaultOperators",
          "type": "address[]"
        },
        {
          "internalType": "contract BasePool",
          "name": "pool",
          "type": "address"
        }
      ],
      "name": "init",
      "outputs": [],
      "payable": false,
      "stateMutability": "nonpayable",
      "type": "function"
    },
    {
      "constant": false,
      "inputs": [
        {
          "internalType": "string",
          "name": "name",
          "type": "string"
        },
        {
          "internalType": "string",
          "name": "symbol",
          "type": "string"
        },
        {
          "internalType": "address[]",
          "name": "defaultOperators",
          "type": "address[]"
        },
        {
          "internalType": "contract BasePool",
          "name": "pool",
          "type": "address"
        },
        {
          "internalType": "uint8",
          "name": "decimals",
          "type": "uint8"
        }
      ],
      "name": "init",
      "outputs": [],
      "payable": false,
      "stateMutability": "nonpayable",
      "type": "function"
    },
    {
      "constant": true,
      "inputs": [
        {
          "internalType": "address",
          "name": "operator",
          "type": "address"
        },
        {
          "internalType": "address",
          "name": "tokenHolder",
          "type": "address"
        }
      ],
      "name": "isOperatorFor",
      "outputs": [
        {
          "internalType": "bool",
          "name": "",
          "type": "bool"
        }
      ],
      "payable": false,
      "stateMutability": "view",
      "type": "function"
    },
    {
      "constant": true,
      "inputs": [],
      "name": "name",
      "outputs": [
        {
          "internalType": "string",
          "name": "",
          "type": "string"
        }
      ],
      "payable": false,
      "stateMutability": "view",
      "type": "function"
    },
    {
      "constant": false,
      "inputs": [
        {
          "internalType": "address",
          "name": "",
          "type": "address"
        },
        {
          "internalType": "uint256",
          "name": "",
          "type": "uint256"
        },
        {
          "internalType": "bytes",
          "name": "",
          "type": "bytes"
        },
        {
          "internalType": "bytes",
          "name": "",
          "type": "bytes"
        }
      ],
      "name": "operatorBurn",
      "outputs": [],
      "payable": false,
      "stateMutability": "nonpayable",
      "type": "function"
    },
    {
      "constant": false,
      "inputs": [
        {
          "internalType": "address",
          "name": "account",
          "type": "address"
        },
        {
          "internalType": "uint256",
          "name": "amount",
          "type": "uint256"
        },
        {
          "internalType": "bytes",
          "name": "data",
          "type": "bytes"
        },
        {
          "internalType": "bytes",
          "name": "operatorData",
          "type": "bytes"
        }
      ],
      "name": "operatorRedeem",
      "outputs": [],
      "payable": false,
      "stateMutability": "nonpayable",
      "type": "function"
    },
    {
      "constant": false,
      "inputs": [
        {
          "internalType": "address",
          "name": "sender",
          "type": "address"
        },
        {
          "internalType": "address",
          "name": "recipient",
          "type": "address"
        },
        {
          "internalType": "uint256",
          "name": "amount",
          "type": "uint256"
        },
        {
          "internalType": "bytes",
          "name": "data",
          "type": "bytes"
        },
        {
          "internalType": "bytes",
          "name": "operatorData",
          "type": "bytes"
        }
      ],
      "name": "operatorSend",
      "outputs": [],
      "payable": false,
      "stateMutability": "nonpayable",
      "type": "function"
    },
    {
      "constant": true,
      "inputs": [],
      "name": "pool",
      "outputs": [
        {
          "internalType": "address",
          "name": "",
          "type": "address"
        }
      ],
      "payable": false,
      "stateMutability": "view",
      "type": "function"
    },
    {
      "constant": false,
      "inputs": [
        {
          "internalType": "uint256",
          "name": "amount",
          "type": "uint256"
        }
      ],
      "name": "poolMint",
      "outputs": [],
      "payable": false,
      "stateMutability": "nonpayable",
      "type": "function"
    },
    {
      "constant": false,
      "inputs": [
        {
          "internalType": "address",
          "name": "from",
          "type": "address"
        },
        {
          "internalType": "uint256",
          "name": "amount",
          "type": "uint256"
        }
      ],
      "name": "poolRedeem",
      "outputs": [],
      "payable": false,
      "stateMutability": "nonpayable",
      "type": "function"
    },
    {
      "constant": true,
      "inputs": [],
      "name": "recipientWhitelistEnabled",
      "outputs": [
        {
          "internalType": "bool",
          "name": "",
          "type": "bool"
        }
      ],
      "payable": false,
      "stateMutability": "view",
      "type": "function"
    },
    {
      "constant": true,
      "inputs": [
        {
          "internalType": "address",
          "name": "_recipient",
          "type": "address"
        }
      ],
      "name": "recipientWhitelisted",
      "outputs": [
        {
          "internalType": "bool",
          "name": "",
          "type": "bool"
        }
      ],
      "payable": false,
      "stateMutability": "view",
      "type": "function"
    },
    {
      "constant": false,
      "inputs": [
        {
          "internalType": "uint256",
          "name": "amount",
          "type": "uint256"
        },
        {
          "internalType": "bytes",
          "name": "data",
          "type": "bytes"
        }
      ],
      "name": "redeem",
      "outputs": [],
      "payable": false,
      "stateMutability": "nonpayable",
      "type": "function"
    },
    {
      "constant": false,
      "inputs": [
        {
          "internalType": "address",
          "name": "operator",
          "type": "address"
        }
      ],
      "name": "revokeOperator",
      "outputs": [],
      "payable": false,
      "stateMutability": "nonpayable",
      "type": "function"
    },
    {
      "constant": false,
      "inputs": [
        {
          "internalType": "address",
          "name": "recipient",
          "type": "address"
        },
        {
          "internalType": "uint256",
          "name": "amount",
          "type": "uint256"
        },
        {
          "internalType": "bytes",
          "name": "data",
          "type": "bytes"
        }
      ],
      "name": "send",
      "outputs": [],
      "payable": false,
      "stateMutability": "nonpayable",
      "type": "function"
    },
    {
      "constant": false,
      "inputs": [
        {
          "internalType": "bool",
          "name": "_enabled",
          "type": "bool"
        }
      ],
      "name": "setRecipientWhitelistEnabled",
      "outputs": [],
      "payable": false,
      "stateMutability": "nonpayable",
      "type": "function"
    },
    {
      "constant": false,
      "inputs": [
        {
          "internalType": "address",
          "name": "_recipient",
          "type": "address"
        },
        {
          "internalType": "bool",
          "name": "_whitelisted",
          "type": "bool"
        }
      ],
      "name": "setRecipientWhitelisted",
      "outputs": [],
      "payable": false,
      "stateMutability": "nonpayable",
      "type": "function"
    },
    {
      "constant": true,
      "inputs": [],
      "name": "symbol",
      "outputs": [
        {
          "internalType": "string",
          "name": "",
          "type": "string"
        }
      ],
      "payable": false,
      "stateMutability": "view",
      "type": "function"
    },
    {
      "constant": true,
      "inputs": [],
      "name": "totalSupply",
      "outputs": [
        {
          "internalType": "uint256",
          "name": "",
          "type": "uint256"
        }
      ],
      "payable": false,
      "stateMutability": "view",
      "type": "function"
    },
    {
      "constant": false,
      "inputs": [
        {
          "internalType": "address",
          "name": "recipient",
          "type": "address"
        },
        {
          "internalType": "uint256",
          "name": "amount",
          "type": "uint256"
        }
      ],
      "name": "transfer",
      "outputs": [
        {
          "internalType": "bool",
          "name": "",
          "type": "bool"
        }
      ],
      "payable": false,
      "stateMutability": "nonpayable",
      "type": "function"
    },
    {
      "constant": false,
      "inputs": [
        {
          "internalType": "address",
          "name": "holder",
          "type": "address"
        },
        {
          "internalType": "address",
          "name": "recipient",
          "type": "address"
        },
        {
          "internalType": "uint256",
          "name": "amount",
          "type": "uint256"
        }
      ],
      "name": "transferFrom",
      "outputs": [
        {
          "internalType": "bool",
          "name": "",
          "type": "bool"
        }
      ],
      "payable": false,
      "stateMutability": "nonpayable",
      "type": "function"
    }
  ],
  "bytecode": "0x608060405234801561001057600080fd5b50613078806100206000396000f3fe608060405234801561001057600080fd5b50600436106101e55760003560e01c8063959b8c3f1161010f578063d7d5b928116100a2578063e77c646d11610071578063e77c646d14610b39578063fad8b32a14610bae578063fc673c4f14610bd4578063fe9d930314610ca7576101e5565b8063d7d5b9281461084e578063d95b637114610921578063dd62ed3e1461094f578063e3d7b3081461097d576101e5565b8063a457c2d7116100de578063a457c2d7146107a9578063a884b930146107d5578063a9059cbb146107f4578063c8cb23f814610820576101e5565b8063959b8c3f146106db57806395d89b41146107015780639bd9bbc614610709578063a35947091461078c576101e5565b8063313ce56711610187578063625cbfae11610156578063625cbfae1461041957806362ad1b831461042157806370a08231146104ff57806388a8a91914610525576101e5565b8063313ce567146103a157806339509351146103bf5780634bf67fa6146103eb578063556f0dc714610411576101e5565b806314274ad9116101c357806314274ad9146102ff57806316f0115b1461032d57806318160ddd1461035157806323b872dd1461036b576101e5565b806306e48538146101ea57806306fdde0314610242578063095ea7b3146102bf575b600080fd5b6101f2610cde565b60408051602080825283518183015283519192839290830191858101910280838360005b8381101561022e578181015183820152602001610216565b505050509050019250505060405180910390f35b61024a610d41565b6040805160208082528351818301528351919283929083019185019080838360005b8381101561028457818101518382015260200161026c565b50505050905090810190601f1680156102b15780820380516001836020036101000a031916815260200191505b509250505060405180910390f35b6102eb600480360360408110156102d557600080fd5b506001600160a01b038135169060200135610dce565b604080519115158252519081900360200190f35b61032b6004803603604081101561031557600080fd5b506001600160a01b038135169060200135610de6565b005b610335610ef7565b604080516001600160a01b039092168252519081900360200190f35b610359610f06565b60408051918252519081900360200190f35b6102eb6004803603606081101561038157600080fd5b506001600160a01b03813581169160208101359091169060400135610f7c565b6103a9611126565b6040805160ff9092168252519081900360200190f35b6102eb600480360360408110156103d557600080fd5b506001600160a01b038135169060200135611136565b6102eb6004803603602081101561040157600080fd5b50356001600160a01b031661117b565b610359611199565b6102eb61119e565b61032b600480360360a081101561043757600080fd5b6001600160a01b03823581169260208101359091169160408201359190810190608081016060820135600160201b81111561047157600080fd5b82018360208201111561048357600080fd5b803590602001918460018302840111600160201b831117156104a457600080fd5b919390929091602081019035600160201b8111156104c157600080fd5b8201836020820111156104d357600080fd5b803590602001918460018302840111600160201b831117156104f457600080fd5b5090925090506111ae565b6103596004803603602081101561051557600080fd5b50356001600160a01b0316611282565b61032b6004803603608081101561053b57600080fd5b810190602081018135600160201b81111561055557600080fd5b82018360208201111561056757600080fd5b803590602001918460018302840111600160201b8311171561058857600080fd5b91908080601f0160208091040260200160405190810160405280939291908181526020018383808284376000920191909152509295949360208101935035915050600160201b8111156105da57600080fd5b8201836020820111156105ec57600080fd5b803590602001918460018302840111600160201b8311171561060d57600080fd5b91908080601f0160208091040260200160405190810160405280939291908181526020018383808284376000920191909152509295949360208101935035915050600160201b81111561065f57600080fd5b82018360208201111561067157600080fd5b803590602001918460208302840111600160201b8311171561069257600080fd5b919080806020026020016040519081016040528093929190818152602001838360200280828437600092019190915250929550505090356001600160a01b031691506113059050565b61032b600480360360208110156106f157600080fd5b50356001600160a01b03166113b9565b61024a6114c6565b61032b6004803603606081101561071f57600080fd5b6001600160a01b0382351691602081013591810190606081016040820135600160201b81111561074e57600080fd5b82018360208201111561076057600080fd5b803590602001918460018302840111600160201b8311171561078157600080fd5b509092509050611527565b61032b600480360360208110156107a257600080fd5b503561157e565b6102eb600480360360408110156107bf57600080fd5b506001600160a01b03813516906020013561160b565b61032b600480360360208110156107eb57600080fd5b50351515611673565b6102eb6004803603604081101561080a57600080fd5b506001600160a01b03813516906020013561178b565b61032b6004803603604081101561083657600080fd5b506001600160a01b0381351690602001351515611873565b61032b6004803603608081101561086457600080fd5b6001600160a01b0382351691602081013591810190606081016040820135600160201b81111561089357600080fd5b8201836020820111156108a557600080fd5b803590602001918460018302840111600160201b831117156108c657600080fd5b919390929091602081019035600160201b8111156108e357600080fd5b8201836020820111156108f557600080fd5b803590602001918460018302840111600160201b8311171561091657600080fd5b509092509050611996565b6102eb6004803603604081101561093757600080fd5b506001600160a01b0381358116916020013516611a68565b6103596004803603604081101561096557600080fd5b506001600160a01b0381358116916020013516611b0a565b61032b600480360360a081101561099357600080fd5b810190602081018135600160201b8111156109ad57600080fd5b8201836020820111156109bf57600080fd5b803590602001918460018302840111600160201b831117156109e057600080fd5b91908080601f0160208091040260200160405190810160405280939291908181526020018383808284376000920191909152509295949360208101935035915050600160201b811115610a3257600080fd5b820183602082011115610a4457600080fd5b803590602001918460018302840111600160201b83111715610a6557600080fd5b91908080601f0160208091040260200160405190810160405280939291908181526020018383808284376000920191909152509295949360208101935035915050600160201b811115610ab757600080fd5b820183602082011115610ac957600080fd5b803590602001918460208302840111600160201b83111715610aea57600080fd5b919080806020026020016040519081016040528093929190818152602001838360200280828437600092019190915250929550505081356001600160a01b03169250506020013560ff16611b35565b61032b60048036036040811015610b4f57600080fd5b81359190810190604081016020820135600160201b811115610b7057600080fd5b820183602082011115610b8257600080fd5b803590602001918460018302840111600160201b83111715610ba357600080fd5b509092509050611be8565b61032b60048036036020811015610bc457600080fd5b50356001600160a01b0316611c3d565b61032b60048036036080811015610bea57600080fd5b6001600160a01b0382351691602081013591810190606081016040820135600160201b811115610c1957600080fd5b820183602082011115610c2b57600080fd5b803590602001918460018302840111600160201b83111715610c4c57600080fd5b919390929091602081019035600160201b811115610c6957600080fd5b820183602082011115610c7b57600080fd5b803590602001918460018302840111600160201b83111715610c9c57600080fd5b509092509050611d4c565b61032b60048036036040811015610cbd57600080fd5b81359190810190604081016020820135600160201b811115610c6957600080fd5b60606035805480602002602001604051908101604052809291908181526020018280548015610d3657602002820191906000526020600020905b81546001600160a01b03168152600190910190602001808311610d18575b505050505090505b90565b60338054604080516020601f6002600019610100600188161502019095169490940493840181900481028201810190925282815260609390929091830182828015610d365780601f10610da257610100808354040283529160200191610d36565b820191906000526020600020905b815481529060010190602001808311610db057509395945050505050565b600033610ddc818585611d90565b5060019392505050565b603a546001600160a01b03163314610e3b576040805162461bcd60e51b8152602060048201526013602482015272141bdbdb151bdad95b8bdbdb9b1e4b5c1bdbdb606a1b604482015290519081900360640190fd5b610e6882836000846040518060200160405280600081525060405180602001604052806000815250611e43565b60408051828152606060208201819052600090820181905260a082840181905282015290516001600160a01b0384169182917f1f58e3485c3f6fc2bddf52e2bd0d82ad5c19e1ac9ab403b1aa9f0a1794d2bfb69181900360e00190a36040805182815290516000916001600160a01b038516916000805160206130248339815191529181900360200190a35050565b603a546001600160a01b031690565b603a5460408051633a3c267d60e21b815290516000926001600160a01b03169163e8f099f4916004808301926020929190829003018186803b158015610f4b57600080fd5b505afa158015610f5f573d6000803e3d6000fd5b505050506040513d6020811015610f7557600080fd5b5051905090565b60006001600160a01b038316610fcd576040805162461bcd60e51b8152602060048201526011602482015270506f6f6c546f6b656e2f746f2d7a65726f60781b604482015290519081900360640190fd5b6001600160a01b03841661101e576040805162461bcd60e51b8152602060048201526013602482015272506f6f6c546f6b656e2f66726f6d2d7a65726f60681b604482015290519081900360640190fd5b600033905061104f818686866040518060200160405280600081525060405180602001604052806000815250611e43565b61107b818686866040518060200160405280600081525060405180602001604052806000815250611ed2565b6040805180820182526016815275506f6f6c546f6b656e2f6578636565642d616c6c6f7760501b6020808301919091526001600160a01b038089166000908152603983528481209186168152915291909120546110ed91879184916110e89190889063ffffffff6120bf16565b611d90565b61111b8186868660405180602001604052806000815250604051806020016040528060008152506000612156565b506001949350505050565b603a54600160a01b900460ff1690565b3360008181526039602090815260408083206001600160a01b038716845290915281205490916111729185906110e8908663ffffffff61240c16565b50600192915050565b6001600160a01b03166000908152603b602052604090205460ff1690565b600190565b603a54600160a81b900460ff1690565b6111b83388611a68565b611202576040805162461bcd60e51b81526020600482015260166024820152752837b7b62a37b5b2b717b737ba16b7b832b930ba37b960511b604482015290519081900360640190fd5b6112793388888888888080601f01602080910402602001604051908101604052809392919081815260200183838082843760009201919091525050604080516020601f8c018190048102820181019092528a815292508a915089908190840183828082843760009201919091525061246692505050565b50505050505050565b603a54604080516379f0877160e01b81526001600160a01b038481166004830152915160009392909216916379f0877191602480820192602092909190829003018186803b1580156112d357600080fd5b505afa1580156112e7573d6000803e3d6000fd5b505050506040513d60208110156112fd57600080fd5b505192915050565b600054610100900460ff168061131e575061131e612532565b8061132c575060005460ff16155b6113675760405162461bcd60e51b815260040180806020018281038252602e815260200180612ff6602e913960400191505060405180910390fd5b600054610100900460ff16158015611392576000805460ff1961ff0019909116610100171660011790555b6113a0858585856012612538565b80156113b2576000805461ff00191690555b5050505050565b336001600160a01b038216141561140d576040805162461bcd60e51b81526020600482015260136024820152722837b7b62a37b5b2b717b0baba3416b9b2b63360691b604482015290519081900360640190fd5b6001600160a01b03811660009081526036602052604090205460ff161561145e573360009081526038602090815260408083206001600160a01b03851684529091529020805460ff1916905561148d565b3360009081526037602090815260408083206001600160a01b03851684529091529020805460ff191660011790555b60405133906001600160a01b038316907ff4caeb2d6ca8932a215a353d0703c326ec2d81fc68170f320eb2ab49e9df61f990600090a350565b60348054604080516020601f6002600019610100600188161502019095169490940493840181900481028201810190925282815260609390929091830182828015610d365780601f10610da257610100808354040283529160200191610d36565b6115783333868686868080601f016020809104026020016040519081016040528093929190818152602001838380828437600092018290525060408051602081019091529081529250612466915050565b50505050565b603a546001600160a01b031633146115d3576040805162461bcd60e51b8152602060048201526013602482015272141bdbdb151bdad95b8bdbdb9b1e4b5c1bdbdb606a1b604482015290519081900360640190fd5b603a54604080516020808201835260008083528351918201909352918252611608926001600160a01b0316918291859161280e565b50565b6040805180820182526012815271506f6f6c546f6b656e2f6e6567617469766560701b602080830191909152336000818152603983528481206001600160a01b038816825290925292812054909261117292909186916110e89190879063ffffffff6120bf16565b603a5460408051630935e01b60e21b815233600482015290516001600160a01b03909216916324d7806c91602480820192602092909190829003018186803b1580156116be57600080fd5b505afa1580156116d2573d6000803e3d6000fd5b505050506040513d60208110156116e857600080fd5b5051611735576040805162461bcd60e51b81526020600482015260176024820152762bb434ba32b634b9ba2a37b5b2b717b4b996b0b236b4b760491b604482015290519081900360640190fd5b603a8054821515600160a81b810260ff60a81b1990921691909117909155604080519182525133917f643561a6454325dc43853b954eb9350a955ea80047c134c779c055bcbf459137919081900360200190a250565b60006001600160a01b0383166117e8576040805162461bcd60e51b815260206004820152601760248201527f506f6f6c546f6b656e2f7472616e736665722d7a65726f000000000000000000604482015290519081900360640190fd5b6000339050611819818286866040518060200160405280600081525060405180602001604052806000815250611e43565b611845818286866040518060200160405280600081525060405180602001604052806000815250611ed2565b610ddc8182868660405180602001604052806000815250604051806020016040528060008152506000612156565b603a5460408051630935e01b60e21b815233600482015290516001600160a01b03909216916324d7806c91602480820192602092909190829003018186803b1580156118be57600080fd5b505afa1580156118d2573d6000803e3d6000fd5b505050506040513d60208110156118e857600080fd5b5051611935576040805162461bcd60e51b81526020600482015260176024820152762bb434ba32b634b9ba2a37b5b2b717b4b996b0b236b4b760491b604482015290519081900360640190fd5b6001600160a01b0382166000818152603b6020908152604091829020805460ff19168515159081179091558251908152915133927f0a40230cc5a9cbd3edc99d49ffd13beb7dc906030a2dde3b53a53b62fc8979cd92908290030190a35050565b6119a03387611a68565b6119ea576040805162461bcd60e51b81526020600482015260166024820152752837b7b62a37b5b2b717b737ba16b7b832b930ba37b960511b604482015290519081900360640190fd5b611a6033878787878080601f01602080910402602001604051908101604052809392919081815260200183838082843760009201919091525050604080516020601f8b01819004810282018101909252898152925089915088908190840183828082843760009201919091525061296092505050565b505050505050565b6000816001600160a01b0316836001600160a01b03161480611ad357506001600160a01b03831660009081526036602052604090205460ff168015611ad357506001600160a01b0380831660009081526038602090815260408083209387168352929052205460ff16155b80611b0357506001600160a01b0380831660009081526037602090815260408083209387168352929052205460ff165b9392505050565b6001600160a01b03918216600090815260396020908152604080832093909416825291909152205490565b600054610100900460ff1680611b4e5750611b4e612532565b80611b5c575060005460ff16155b611b975760405162461bcd60e51b815260040180806020018281038252602e815260200180612ff6602e913960400191505060405180910390fd5b600054610100900460ff16158015611bc2576000805460ff1961ff0019909116610100171660011790555b611bcf8686868686612538565b8015611a60576000805461ff0019169055505050505050565b611c3833338585858080601f016020809104026020016040519081016040528093929190818152602001838380828437600092018290525060408051602081019091529081529250612960915050565b505050565b6001600160a01b038116331415611c93576040805162461bcd60e51b81526020600482015260156024820152742837b7b62a37b5b2b717b932bb37b5b296b9b2b63360591b604482015290519081900360640190fd5b6001600160a01b03811660009081526036602052604090205460ff1615611ce7573360009081526038602090815260408083206001600160a01b03851684529091529020805460ff19166001179055611d13565b3360009081526037602090815260408083206001600160a01b03851684529091529020805460ff191690555b60405133906001600160a01b038316907f50546e66e5f44d728365dc3908c63bc5cfeeab470722c1677e3073a6ac294aa190600090a350565b6040805162461bcd60e51b8152602060048201526014602482015273141bdbdb151bdad95b8bdb9bcb5cdd5c1c1bdc9d60621b604482015290519081900360640190fd5b6001600160a01b038216611de1576040805162461bcd60e51b8152602060048201526013602482015272506f6f6c546f6b656e2f66726f6d2d7a65726f60681b604482015290519081900360640190fd5b6001600160a01b03808416600081815260396020908152604080832094871680845294825291829020859055815185815291517f8c5be1e5ebec7d5bd14f71427d1e84f3dd0314c0f7b2291e5b200ac8c7c3b9259281900390910190a3505050565b603a54600160a81b900460ff1615611ec4576001600160a01b0384161580611e8357506001600160a01b0384166000908152603b602052604090205460ff165b611ec4576040805162461bcd60e51b815260206004820152600d60248201526c141bdbdb0bdb9bdd0b5b1a5cdd609a1b604482015290519081900360640190fd5b611a60868686868686612b93565b603a5460408051639e63a8c560e01b81526001600160a01b03888116600483015287811660248301526044820187905291519190921691639e63a8c59160648083019260209291908290030181600087803b158015611f3057600080fd5b505af1158015611f44573d6000803e3d6000fd5b505050506040513d6020811015611f5a57600080fd5b5050604080518481526060602082810182815286519284019290925285516001600160a01b03808a16958b821695918d16947f06b541ddaa720db2b10a4d0cdac39b8d360425fc073085fac19bc82614677987948b948b948b9490939290840191608085019187019080838360005b83811015611fe1578181015183820152602001611fc9565b50505050905090810190601f16801561200e5780820380516001836020036101000a031916815260200191505b50838103825284518152845160209182019186019080838360005b83811015612041578181015183820152602001612029565b50505050905090810190601f16801561206e5780820380516001836020036101000a031916815260200191505b509550505050505060405180910390a4836001600160a01b0316856001600160a01b0316600080516020613024833981519152856040518082815260200191505060405180910390a3505050505050565b6000818484111561214e5760405162461bcd60e51b81526004018080602001828103825283818151815260200191508051906020019080838360005b838110156121135781810151838201526020016120fb565b50505050905090810190601f1680156121405780820380516001836020036101000a031916815260200191505b509250505060405180910390fd5b505050900390565b6040805163555ddc6560e11b81526001600160a01b03871660048201527fb281fc8c12954d22544db45de3159a39272895b169a852b314f9cc762e44c53b60248201529051600091731820a4b7618bde71dce8cdc73aab6c95905fad249163aabbb8ca91604480820192602092909190829003018186803b1580156121da57600080fd5b505afa1580156121ee573d6000803e3d6000fd5b505050506040513d602081101561220457600080fd5b505190506001600160a01b0381161561239857806001600160a01b03166223de298989898989896040518763ffffffff1660e01b815260040180876001600160a01b03166001600160a01b03168152602001866001600160a01b03166001600160a01b03168152602001856001600160a01b03166001600160a01b031681526020018481526020018060200180602001838103835285818151815260200191508051906020019080838360005b838110156122c95781810151838201526020016122b1565b50505050905090810190601f1680156122f65780820380516001836020036101000a031916815260200191505b50838103825284518152845160209182019186019080838360005b83811015612329578181015183820152602001612311565b50505050905090810190601f1680156123565780820380516001836020036101000a031916815260200191505b5098505050505050505050600060405180830381600087803b15801561237b57600080fd5b505af115801561238f573d6000803e3d6000fd5b50505050612402565b8115612402576123b0866001600160a01b0316612e9c565b15612402576040805162461bcd60e51b815260206004820152601860248201527f506f6f6c546f6b656e2f6e6f2d72656369702d696e7465720000000000000000604482015290519081900360640190fd5b5050505050505050565b600082820183811015611b03576040805162461bcd60e51b815260206004820152601b60248201527f536166654d6174683a206164646974696f6e206f766572666c6f770000000000604482015290519081900360640190fd5b6001600160a01b0385166124b7576040805162461bcd60e51b8152602060048201526013602482015272506f6f6c546f6b656e2f66726f6d2d7a65726f60681b604482015290519081900360640190fd5b6001600160a01b038416612506576040805162461bcd60e51b8152602060048201526011602482015270506f6f6c546f6b656e2f746f2d7a65726f60781b604482015290519081900360640190fd5b612514868686868686611e43565b612522868686868686611ed2565b611a608686868686866001612156565b303b1590565b845161257c576040805162461bcd60e51b815260206004820152600e60248201526d506f6f6c546f6b656e2f6e616d6560901b604482015290519081900360640190fd5b83516125c2576040805162461bcd60e51b815260206004820152601060248201526f141bdbdb151bdad95b8bdcde5b589bdb60821b604482015290519081900360640190fd5b6001600160a01b038216612613576040805162461bcd60e51b8152602060048201526013602482015272506f6f6c546f6b656e2f706f6f6c2d7a65726f60681b604482015290519081900360640190fd5b8451612626906033906020880190612ed8565b50835161263a906034906020870190612ed8565b50603a80546001600160a01b0319166001600160a01b0384161760ff60a01b1916600160a01b60ff841602179055825161267b906035906020860190612f56565b5060005b6035548110156126d8576001603660006035848154811061269c57fe5b6000918252602080832091909101546001600160a01b031683528201929092526040019020805460ff191691151591909117905560010161267f565b50604080516329965a1d60e01b815230600482018190527fac7fbab5f54a3ca8194167523c6753bfeb96a445279294b6125b68cce2177054602483015260448201529051731820a4b7618bde71dce8cdc73aab6c95905fad24916329965a1d91606480830192600092919082900301818387803b15801561275857600080fd5b505af115801561276c573d6000803e3d6000fd5b5050604080516329965a1d60e01b815230600482018190527faea199e31a596269b42cdafd93407f14436db6e4cad65417994c2eb37381e05a602483015260448201529051731820a4b7618bde71dce8cdc73aab6c95905fad2493506329965a1d9250606480830192600092919082900301818387803b1580156127ef57600080fd5b505af1158015612803573d6000803e3d6000fd5b505050505050505050565b836001600160a01b0316856001600160a01b03167f2fe5be0146f74c5bce36c0b80911af6c7d86ff27e89d5cfa61fc681327954e5d858585604051808481526020018060200180602001838103835285818151815260200191508051906020019080838360005b8381101561288d578181015183820152602001612875565b50505050905090810190601f1680156128ba5780820380516001836020036101000a031916815260200191505b50838103825284518152845160209182019186019080838360005b838110156128ed5781810151838201526020016128d5565b50505050905090810190601f16801561291a5780820380516001836020036101000a031916815260200191505b509550505050505060405180910390a36040805184815290516001600160a01b038616916000916000805160206130248339815191529181900360200190a35050505050565b6001600160a01b0384166129b1576040805162461bcd60e51b8152602060048201526013602482015272506f6f6c546f6b656e2f66726f6d2d7a65726f60681b604482015290519081900360640190fd5b6129c085856000868686611e43565b603a546040805163a423cd2960e01b81526001600160a01b038781166004830152602482018790529151919092169163a423cd299160448083019260209291908290030181600087803b158015612a1657600080fd5b505af1158015612a2a573d6000803e3d6000fd5b505050506040513d6020811015612a4057600080fd5b5050604080518481526060602082810182815286519284019290925285516001600160a01b03808a1695908b16947f1f58e3485c3f6fc2bddf52e2bd0d82ad5c19e1ac9ab403b1aa9f0a1794d2bfb6948a948a948a9484019160808501919087019080838360005b83811015612ac0578181015183820152602001612aa8565b50505050905090810190601f168015612aed5780820380516001836020036101000a031916815260200191505b50838103825284518152845160209182019186019080838360005b83811015612b20578181015183820152602001612b08565b50505050905090810190601f168015612b4d5780820380516001836020036101000a031916815260200191505b509550505050505060405180910390a36040805184815290516000916001600160a01b038716916000805160206130248339815191529181900360200190a35050505050565b603a60009054906101000a90046001600160a01b03166001600160a01b031663a4e2d6346040518163ffffffff1660e01b815260040160206040518083038186803b158015612be157600080fd5b505afa158015612bf5573d6000803e3d6000fd5b505050506040513d6020811015612c0b57600080fd5b505115612c55576040805162461bcd60e51b8152602060048201526013602482015272141bdbdb151bdad95b8bda5ccb5b1bd8dad959606a1b604482015290519081900360640190fd5b6040805163555ddc6560e11b81526001600160a01b03871660048201527f29ddb589b1fb5fc7cf394961c1adf5f8c6454761adf795e67fe149f658abe89560248201529051600091731820a4b7618bde71dce8cdc73aab6c95905fad249163aabbb8ca91604480820192602092909190829003018186803b158015612cd957600080fd5b505afa158015612ced573d6000803e3d6000fd5b505050506040513d6020811015612d0357600080fd5b505190506001600160a01b0381161561127957806001600160a01b03166375ab97828888888888886040518763ffffffff1660e01b815260040180876001600160a01b03166001600160a01b03168152602001866001600160a01b03166001600160a01b03168152602001856001600160a01b03166001600160a01b031681526020018481526020018060200180602001838103835285818151815260200191508051906020019080838360005b83811015612dc9578181015183820152602001612db1565b50505050905090810190601f168015612df65780820380516001836020036101000a031916815260200191505b50838103825284518152845160209182019186019080838360005b83811015612e29578181015183820152602001612e11565b50505050905090810190601f168015612e565780820380516001836020036101000a031916815260200191505b5098505050505050505050600060405180830381600087803b158015612e7b57600080fd5b505af1158015612e8f573d6000803e3d6000fd5b5050505050505050505050565b6000813f7fc5d2460186f7233c927e7db2dcc703c0e500b653ca82273b7bfad8045d85a4708115801590612ed05750808214155b949350505050565b828054600181600116156101000203166002900490600052602060002090601f016020900481019282601f10612f1957805160ff1916838001178555612f46565b82800160010185558215612f46579182015b82811115612f46578251825591602001919060010190612f2b565b50612f52929150612fb7565b5090565b828054828255906000526020600020908101928215612fab579160200282015b82811115612fab57825182546001600160a01b0319166001600160a01b03909116178255602090920191600190910190612f76565b50612f52929150612fd1565b610d3e91905b80821115612f525760008155600101612fbd565b610d3e91905b80821115612f525780546001600160a01b0319168155600101612fd756fe436f6e747261637420696e7374616e63652068617320616c7265616479206265656e20696e697469616c697a6564ddf252ad1be2c89b69c2b068fc378daa952ba7f163c4a11628f55a4df523b3efa265627a7a72315820a93ca8154a48bc782d4e68162a76a547897e52537be857b83ac40c9f43b9898964736f6c634300050c0032",
  "compiler": {
    "name": "solc",
    "version": "0.5.12+commit.7709ece9.Emscripten.clang",
    "optimizer": {
      "enabled": true,
      "runs": 200
    },
    "evmVersion": "petersburg"
  }
}